:020000040800F2
:100000007806002039020008410200084302000877
:1000100045020008470200084902000800000000ED
:100020000000000000000000000000004B0200087B
:100030004D020008000000004F02000811070008F0
:10004000530200085302000853020008530200083C
:10005000530200085302000853020008530200082C
:10006000530200085302000853020008530200081C
:10007000530200085302000853020008530200080C
:100080005302000853020008530200080000000059
:100090000000000000000000000000005302000803
:1000A00053020008530200085302000853020008DC
:1000B0008507000853020008530200085302000895
:1000C00053020008530200085302000853020008BC
:1000D0005302000853020008530200080000000009
:1000E000F502000853020008530200080000000057
:1000F00000000000000000000000000053020008A3
:1001000000000000530200085302000853020008D8
:1001100000000000000000000000000000000000DF
:10012000530200085302000853020008530200085B
:100130005302000800000000000000000000000062
:100140000000000000000000000000005302000852
:10015000530200085302000853020008530200082B
:1001600053020008530200080000000000000000D5
:10017000000000000000000000000000000000007F
:100180000000000053020008000000000000000012
:10019000530200085302000800F002F800F03CF897
:1001A0000AA090E8000C82448344AAF10107DA45D2
:1001B00001D100F031F8AFF2090EBAE80F0013F0E8
:1001C000010F18BFFB1A43F001031847C4090000D0
:1001D000E4090000103A24BF78C878C1FAD8520761
:1001E00024BF30C830C144BF04680C6070470000B1
:1001F0000023002400250026103A28BF78C1FBD830
:10020000520728BF30C148BF0B6070471FB500F0D0
:10021000B2FC1FBD10B510BD00F031F81146FFF75C
:10022000F5FF00F01BFC00F04FF803B4FFF7F2FFFE
:1002300003BC00F057F80000094880470948004710
:10024000FEE7FEE7FEE7FEE7FEE7FEE7FEE7FEE786
:10025000FEE7FEE704480549054A064B70470000E3
:10026000690700089901000878000020780600203E
:10027000780200207802002070477047704775466A
:1002800000F02CF8AE4605006946534620F0070002
:10029000854618B020B5FFF7DDFFBDE820404FF0E0
:1002A00000064FF000074FF000084FF0000BAC467F
:1002B000ACE8C009ACE8C009ACE8C009ACE8C009CA
:1002C00021F007018D46704710B50446AFF300805A
:1002D0002046BDE81040FFF7A8BF00000048704767
:1002E0000800002001491820ABBEFEE726000200EE
:1002F0007047000080B50D2000F0A6FB002808BF65
:1003000080BD40F27000C2F200000168013101605E
:100310000168032924BF002101600D2000F07AFB51
:1003200080BD000043F60042C4F2010201211368BF
:1003300001FA00F0184310607047000070B543F6F2
:100340004405C4F2020500F13E400C46296800F164
:10035000FF7043F6080C4FEAB020C4F2010C41F4E0
:1003600080410728296000F27480DFE800F004185B
:10037000303F4E72725D0C2024F0030500EA8400C9
:100380004FF00F0E5CF805100EFA00F021EA0000A5
:100390004CF805005CF805004CF8050059E00C200D
:1003A00024F0030500EA84004FF00F0E5CF80560AE
:1003B0000EFA00F126EA01014CF8051001215CF863
:1003C000056001FA00F030434CF8050041E00C20D4
:1003D00024F0030600EA84000F215CF806508140F7
:1003E00025EA01014CF8061002212BE00C2024F034
:1003F000030600EA84000F215CF80650814025EADC
:1004000001014CF8061003211CE00C2024F0030627
:1004100000EA84000F215CF80650814025EA0101C2
:100420004CF8061004210DE00C2024F0030600EA2D
:1004300084000F215CF80650814025EA01014CF848
:10044000061007215CF8065001FA00F028434CF82A
:100450000600022A0AD0012A15D0EAB90120DCF8E8
:100460000014A0400843CCF8000415E00120DCF89B
:100470000014A0400143CCF8001443F60C41C4F230
:1004800001010A6806E043F60C41C4F201010120B3
:100490000A68A04010430860DCF8F803042C40F41C
:1004A0000050CCF8F8030DD80625DFE804F012035D
:1004B0000507090007250CE008250AE0092508E0E2
:1004C0000A2506E00A2C01D2172502E00F2C07D8D6
:1004D00028252846194600F07FFA284600F05CFAE5
:1004E0002046FFF71FFF70BD70B5054640F60000BF
:1004F000C4F20200144685420E460DD040F2004080
:10050000C4F2020085420AD00020C4F202008542F3
:1005100007D100F06FF804E000F080F801E000F08F
:1005200073F828463146224600F002F870BD0000FC
:1005300080B549004FF0030CD0F800E00CFA01F34D
:100540002EEA03030360036802FA01F11943016014
:1005500080BD000010B54FEA410C4FF0030E8468D7
:100560000EFA0CFE24EA0E048460846802FA0CF28F
:1005700022438260012244688A4024EA02024260E7
:10058000426803FA01F111434160C168029A21EA0D
:100590000E01C160C16802FA0CF21143C16010BDC6
:1005A00080B549004FF0030CD0F80CE00CFA01F3D1
:1005B0002EEA0303C360C36802FA01F11943C16064
:1005C00080BD000080B54FF0010CD0F814E00CFAAB
:1005D00001F32EEA03034361436902FA01F119436F
:1005E000416180BD0122436902FA01F15940416134
:1005F0007047000043F63000C4F20200016841F089
:10060000010101607047000043F63000C4F20200AF
:10061000016841F0020101607047000043F63000BC
:10062000C4F20200016841F004010160704700005B
:1006300043F60800C4F20200D0F8F81321F00F01CD
:10064000C0F8F813D0F8F81341F00201C0F8F8131D
:1006500050F8081C41F0010140F8081C50F8081C33
:100660008907FBD550F8081C542221F0807140F80E
:10067000081C50F8041C21F4800140F8041C50F8B8
:10068000041C40F8041C50F8041C62F38E1140F85E
:10069000041C50F8041C082262F3050140F8041CF5
:1006A00050F8041C21F4403140F8041C50F8081C98
:1006B00041F0807140F8081C50F8081C8901FBD4F7
:1006C000016821F003010160016841F0020101604D
:1006D000016801F00C010829FAD1016821F0F0014C
:1006E0000160016821F4E0510160016841F480512A
:1006F0000160016821F46041016040F200004BF6A6
:100700000051C2F20000C0F20151016070470000C8
:1007100040F26800C2F200000168002908BF70477B
:10072000016801390160704780B54EF21001CEF2C8
:10073000000100220A600B6843F004030B6040F6DE
:10074000412358434FF0FF3303EB401048608A6069
:10075000086840F002000860086840F00100086086
:10076000102000F041F980BD4EF68850CEF2000016
:10077000016841F4700101604FF0006140F8801C95
:100780007047000080B54FF0804000F059F9002814
:1007900008BF80BD40F26C00C2F200000168013168
:1007A00001600068B0F5FA7F05D940F27400C2F22A
:1007B0000000012101604FF0804000F025F980BD6C
:1007C000C16841F00101C1607047000010B50446E6
:1007D00000F048F840F6FF30C4F20000844212DD19
:1007E00043F6FF70C4F2010084421DDC40F6004075
:1007F000C4F20000844225D00020C4F201008442EB
:1008000026D1192427E0B4F1804F1DD040F20040DA
:10081000C4F2000084421DD040F60000C4F2000083
:10082000844215D11E2416E044F20000C4F20100F7
:1008300084420BD044F60000C4F20100844207D188
:100840001A2408E0322406E01C2404E0182402E004
:10085000002400E01D24204600F0AEF8204600F001
:10086000CBF810BD10B5044640F6FF30C4F20000CE
:10087000844219DD43F6FF70C4F2010084422BDC90
:1008800040F60040C4F2000084423AD00020C4F296
:100890000100844258D143F64000C4F2020042688D
:1008A00042F0010242604FE0B4F1804F32D040F29A
:1008B0000040C4F2000084423ED040F60000C4F282
:1008C0000000844240D143F64000C4F202000268B6
:1008D00042F00402026037E044F20000C4F201007A
:1008E000844220D044F60000C4F2010084422BD19F
:1008F00043F64000C4F20200426842F480224260A3
:1009000022E043F64000C4F20200026842F008020E
:10091000026019E043F64000C4F20200026842F0AF
:100920000102026010E043F64000C4F20200426897
:1009300042F48032426007E043F64000C4F2020015
:10094000026842F002020260204600F00DF82068C2
:1009500020F010002060E06840F00100E0602068B6
:1009600040F00100206010BD43F60802C4F202020C
:10097000136801EB810103F00303022B1ABF126815
:1009800040F23F6242F2CF0282624FF0FF3202EB4E
:100990004101C16270470000C1B200F01F00012296
:1009A00002FA00F04EF20012CEF2000242EAD10149
:1009B00021F0030108607047C1B200F01F0001225E
:1009C00002FA00F04EF20012CEF2000242EAD10129
:1009D00021F0030108607047E422C0F2E00209013F
:1009E00062F31F20017070474EF623510001CEF2D2
:1009F0000001087070470000E421C0F2E00161F3DB
:100A00001F20202101707047016921F0010101615F
:100A10007047000043F61442C4F20102012113683A
:100A200001FA00F0184310607047000040F26801BE
:100A3000C2F20001086000BF08680028FCD17047BE
:100A4000006900F00100704743F61441C4F201014F
:100A5000096821FA00F000F0010070470024C4F298
:100A6000020400F045F840F2700640F2740740F2CC
:100A70006C09C2F200064FF0000804F58065C2F26E
:100A80000007C2F2000900BF306860B96420FFF7B8
:100A9000CDFF204605210022FFF794FD28460621C0
:100AA0000022FFF78FFD306801280CD12046052178
:100AB000FFF798FD284606210022FFF783FD4FF43B
:100AC000FA70FFF7B3FF30680228DDD138680128DB
:100AD000DAD1204605210022FFF774FD28460621C1
:100AE000FFF780FDC9F80080C7F80080CCE7000060
:100AF000F0B581B0FFF79CFD0120FFF715FE40F631
:100B00000004C4F2020420460D2100220027FFF752
:100B1000EBFC20460D210222FFF742FDA4F5006503
:100B2000284605210122FFF7DFFCA4F58066304648
:100B300006210122FFF7D8FC2846052101220023C7
:100B40000097FFF707FD304606210122002300979A
:100B5000FFF700FD20460D2100220023FFF7EEFBEA
:100B60004FF080400121FFF731FE4FF08040FFF74A
:100B700027FE01B0F0BDF1EE100A4FF6FF71C0F292
:100B8000C03120EA010040F04070E1EE100A7047E9
:100B9000B00B00080000002008000000D40100088D
:100BA000B80B00080800002070060000F0010008E3
:080BB0000024F4000000000025
:040000050800019955
:00000001FF
