:020000040800F2
:10000000800600203902000841020008430200086F
:1000100045020008470200084902000800000000ED
:100020000000000000000000000000004B0200087B
:100030004D020008000000004F020008C50800083B
:10004000530200085302000853020008530200083C
:10005000530200085302000853020008530200082C
:10006000530200085302000853020008530200081C
:10007000530200085302000853020008530200080C
:100080005302000853020008530200080000000059
:100090000000000000000000000000005302000803
:1000A00053020008530200085302000853020008DC
:1000B00053020008530200085302000853020008CC
:1000C00053020008530200085302000853020008BC
:1000D0005302000853020008530200080000000009
:1000E00053020008530200085302000800000000F9
:1000F00000000000000000000000000053020008A3
:1001000000000000530200085302000853020008D8
:1001100000000000000000000000000000000000DF
:10012000530200085302000853020008530200085B
:100130005302000800000000000000000000000062
:100140000000000000000000000000005302000852
:10015000530200085302000853020008530200082B
:1001600053020008530200080000000000000000D5
:10017000000000000000000000000000000000007F
:100180000000000053020008000000000000000012
:10019000530200085302000800F002F800F03CF897
:1001A0000AA090E8000C82448344AAF10107DA45D2
:1001B00001D100F031F8AFF2090EBAE80F0013F0E8
:1001C000010F18BFFB1A43F001031847280C000069
:1001D000480C0000103A24BF78C878C1FAD85207FA
:1001E00024BF30C830C144BF04680C6070470000B1
:1001F0000023002400250026103A28BF78C1FBD830
:10020000520728BF30C148BF0B6070471FB500F0D0
:10021000DFFD1FBD10B510BD00F031F81146FFF72E
:10022000F5FF00F031FC00F04FF803B4FFF7F2FFE8
:1002300003BC00F057F80000094880470948004710
:10024000FEE7FEE7FEE7FEE7FEE7FEE7FEE7FEE786
:10025000FEE7FEE704480549054A064B70470000E3
:100260001D09000899010008800000208006002078
:10027000800200208002002070477047704775465A
:1002800000F02CF8AE4605006946534620F0070002
:10029000854618B020B5FFF7DDFFBDE820404FF0E0
:1002A00000064FF000074FF000084FF0000BAC467F
:1002B000ACE8C009ACE8C009ACE8C009ACE8C009CA
:1002C00021F007018D46704710B50446AFF300805A
:1002D0002046BDE81040FFF7A8BF00000048704767
:1002E0000800002001491820ABBEFEE726000200EE
:1002F0007047000070B5054640F60000C4F20200E9
:10030000144685420E460DD040F20040C4F2020071
:1003100085420AD00020C4F20200854207D100F0D5
:1003200043FA04E000F054FA01E000F047FA2846EE
:100330003146224600F002F870BD000080B5490049
:100340004FF0030CD0F800E00CFA01F32EEA03039F
:100350000360036802FA01F11943016080BD0000E7
:1003600080B549004FF0030CD0F808E00CFA01F317
:100370002EEA03038360836802FA01F11943816066
:1003800080BD0000D0E902100138CA6A032888BF86
:100390007047013201EE102AB8EE411A21EE000A30
:1003A000DFE800F00211070CBCEEC00A81ED0D0A77
:1003B0007047BCEEC00A81ED0F0A7047BCEEC00A60
:1003C00081ED100A7047BCEEC00A81ED0E0A70473D
:1003D000F0B581B016460D460746C0E9001200F0A0
:1003E0005FF9D7E90247284631460222FFF782FF2C
:1003F000284631460222FFF7B3FF072E67D84FF693
:10040000FF70C4F2000084420BDC40F2FF70C4F2C3
:100410000000844224DCB4F1804F10D040F2004050
:1004200026E044F2FF30C4F2010084423EDC0020AA
:10043000C4F20100844202D044F200003EE0B00069
:10044000012101FA00F043F6FF71C4F201018C4270
:10045000286225DC40F20040C4F2000084420BD048
:1004600040F60000C4F20000844205D040F600408F
:10047000C4F2000084422AD1B000022101FA00F047
:1004800044F20001C4F201018C4228621AD044F601
:100490000000C4F20100844214D044F200400DE098
:1004A00044F20000C4F2010084420BD044F2004048
:1004B000C4F20100844205D044F60000C4F20100F9
:1004C000844204D1B000032101FA00F0286226F032
:1004D0000700082870D14FF6FF70C4F20000844274
:1004E0000BDC40F2FF70C4F20000844227DCB4F160
:1004F000804F10D040F2004029E044F2FF30C4F2B7
:100500000100844244DC0020C4F20100844202D095
:1005100044F2000044E06FF01F0000EB8600012170
:1005200001FA00F043F6FF71C4F201018C426862E7
:1005300028DC40F20040C4F2000084420BD040F6B8
:100540000000C4F20000844205D040F60040C4F22E
:100550000000844230D16FF01F0000EB86000221C2
:1005600001FA00F044F20001C4F201018C42686219
:100570001AD044F60000C4F20100844214D044F2C0
:1005800000400DE044F20000C4F2010084420BD0B0
:1005900044F20040C4F20100844205D044F6000059
:1005A000C4F20100844207D16FF01F0000EB860007
:1005B000032101FA00F068622046142100F0BCF922
:1005C000E06A791E032954D84008DFE801F00214DC
:1005D0002639A16904F1340221F07001A161A169F9
:1005E0006FF0020341F06001A161A16941F00801CF
:1005F000A161012136E0A16904F1380221F4E04152
:10060000A161A1696FF0200341F4C041A161A1691A
:1006100041F40061A161102124E0E16904F13C0290
:1006200021F07001E161E1696FF4007341F0600154
:10063000E161E16941F00801E1614FF4807111E08D
:10064000E16904F1400221F4E041E161E1696FF404
:10065000005341F4C041E161E16941F40061E161AD
:100660004FF480511060206A18402062206A0843CD
:1006700020624420C4F20100A0F144018C4203D165
:10068000016841F400410160206840F001002060F1
:1006900001B0F0BD80B5806800F0DCF980BD0000DD
:1006A000D0E9002140F60003C4F202039A4219D0B7
:1006B00040F20043C4F202039A4220D00023C4F265
:1006C00002039A423CD10F293AD8DFE801F0083AF8
:1006D0003939390828393D444B39393939084FF00F
:1006E00080414CE00639032988BF7047DFE801F0FC
:1006F000171C022140F20041C4F200014FE003390F
:1007000007291DD8DFE801F01D0B10353F0404490F
:1007100040F20041C4F2000101F580613FE040F287
:100720000041C4F200012AE040F20041C4F200019D
:100730002FE040F20041C4F200010422C0E902129D
:1007400070474FF0804124E040F20041C4F20001C4
:1007500001F57C4113E040F20041C4F2000101F5D3
:100760007C4116E040F20041C4F2000101F57C41F9
:1007700015E040F20041C4F2000101F58061012260
:10078000C0E90212704740F20041C4F2000101F5D5
:1007900080610222C0E9021270474FF080410322BB
:1007A000C0E902127047000043F63000C4F20200B4
:1007B000016841F0010101607047000043F630001C
:1007C000C4F20200016841F00201016070470000BC
:1007D00043F63000C4F20200016841F004010160F8
:1007E0007047000043F60800C4F20200D0F8F81386
:1007F00021F00F01C0F8F813D0F8F81341F002010E
:10080000C0F8F81350F8081C41F0010140F8081C2A
:1008100050F8081C8907FBD550F8081C542221F019
:10082000807140F8081C50F8041C21F4800140F845
:10083000041C50F8041C40F8041C50F8041C62F31B
:100840008E1140F8041C50F8041C082262F30501C4
:1008500040F8041C50F8041C21F4403140F8041CFA
:1008600050F8081C41F0807140F8081C50F8081C32
:100870008901FBD4016821F003010160016841F0A6
:1008800002010160016801F00C010829FAD1016838
:1008900021F0F0010160016821F4E051016001687C
:1008A00041F480510160016821F46041016040F22F
:1008B00000004BF60051C2F20000C0F2015101608D
:1008C0007047000040F26800C2F200000168002991
:1008D00008BF7047016801390160704780B54EF26A
:1008E0001001CEF2000100220A600B6843F00403FD
:1008F0000B6040F6412358434FF0FF3303EB4010A9
:1009000048608A60086840F002000860086840F0AB
:100910000100086000F0A6F880BD00004EF6885087
:10092000CEF20000016841F4700101604FF00061F7
:1009300040F8801C7047000010B5044640F6FF30B8
:10094000C4F20000844219DD43F6FF70C4F20100D6
:1009500084422BDC40F60040C4F2000084423AD0CE
:100960000020C4F20100844258D143F64000C4F292
:100970000200426842F0010242604FE0B4F1804F51
:1009800032D040F20040C4F2000084423ED040F633
:100990000000C4F20000844240D143F64000C4F29B
:1009A0000200026842F00402026037E044F20000F4
:1009B000C4F20100844220D044F60000C4F20100D9
:1009C00084422BD143F64000C4F20200426842F454
:1009D0008022426022E043F64000C4F20200026836
:1009E00042F00802026019E043F64000C4F202003F
:1009F000026842F00102026010E043F64000C4F2D7
:100A00000200426842F48032426007E043F6400050
:100A1000C4F20200026842F002020260206820F084
:100A200010002060204600F009F8E06840F0010066
:100A3000E060206840F00100206010BD01EB810102
:100A400042F2CF02490082624FF0FF3212FA81F186
:100A5000C1627047532282624FF0FF3212FA81F175
:100A6000C16270474EF62350CEF2000000210170A3
:100A70007047000040F26801C2F20001086000BF48
:100A800008680028FCD1704700F03AF89FED1A0B77
:100A900040F26C06002755EC104BC2F2000600BF76
:100AA000384600F080F822462B4600F093F800F01C
:100AB00049F800EE100A3046FFF764FC6420FFF7A7
:100AC000D9FF01370B2FEBD10A2700BF384600F0C2
:100AD0006AF822462B4600F07DF800F033F800EE6D
:100AE000100A3046FFF74EFC6420FFF7C3FF013FBA
:100AF000781CEBD10027D3E79A9999999999B93F36
:100B0000B0B5FFF76FFE0120FFF7E8FE0024C4F246
:100B10000204204605210222FFF7ECFB20460521B6
:100B20000322FFF71DFC40F26C05C2F200052846C7
:100B300021460522FFF74CFC28464FF47A71FFF757
:100B4000A9FDB0BD21F0004201F00043A2F16052C6
:100B5000B2F5801F28BFD2F17F6C0BD95FEA001C71
:100B600043EAC20242EB507018BF704728BF20F022
:100B700001007047B2F5801FBCBF184670474FEAAE
:100B8000410C1CF5001F02D2084600F02EB970B5CA
:100B900000F0CAF800000089FFF7F6BF4FF00040F0
:100BA000A0F58000704710F0004248BF4042B0FA04
:100BB00080F310FA03F10AD0C3F11D0303F580633B
:100BC00002EB03524FEA415002EBD12170474FF044
:100BD0000000704770B5DFF848C11CEA111E1EBF47
:100BE0001CEA13159EEA0C0F95EA0C0F00F06F80BB
:100BF00081EA03044EEAD47EAE4421EA4C1123EA92
:100C00004C1341F4801143F48013AEF17F7EA1FBBD
:100C1000024CA0FB0365361955EB0C05A1FB034CF8
:100C20004CF10003A0FB021C16EB0C06654153F1CE
:100C30000003094218BF46F0010613F4007F0BD1F0
:100C40004FEA03314FEA053041EA155140EA1650A8
:100C500034036FF003020AE04FEAC3214FEAC520D4
:100C600041EA555140EA5650F4026FF0020202EB9D
:100C70002E4201EB025585EACE710AD05FEA440CA0
:100C800018BF24F0004450F1000041F1000120EAB7
:100C9000D47040F2FE7C624500D270BDA84214BF01
:100CA0004FF080444FF04044002E08BF0024BEF1B6
:100CB000806FA8BFA1F1C041BDE8704080F2828082
:100CC00001F1C04101F000414FF0000070470CEA13
:100CD00013159EEA0C0F18BF95EA0C0F06D081EA97
:100CE000030E4FF000000EF0004170BD00F01CF844
:100CF0008900013E00F007B800F009B84FEA430C44
:100D00005FEA5C5C08D081EA030100F05BB84FEA5F
:100D1000410C5FEA5C5CF6D102494FF0000070477D
:100D20000000FF070000F87F0EF1020E2EF0030E08
:100D30005EF8046B364205D4012A43EB030515F532
:100D4000001F12D8012841EB010C1CF5001F0CD824
:100D50000ED14FEAD17C0CEB4C0C0CF1020C15F5CA
:100D6000001F08BF4CEBD37C04E04FF0080C01E0FF
:100D70004FEAD37C0CEB4C0526FA05F606F0070685
:100D8000B6F1040C06D20EEB860CBDE870404CF0B8
:100D9000010C6047DFE80CF0090B02024FF0004144
:100DA000A1F500214FF0000070BD19461046012842
:100DB00051EB010418BFD4F5001484BF002001F0EA
:100DC000004170BD0808A0F500114FEA31017047DD
:100DD000F1EE100A4FF6FF71C0F2C03120EA0100B7
:100DE00040F04070E1EE100A7047FF2141EAD05018
:100DF000C0057047180E0008000000200800000021
:100E0000D4010008200E0008080000207806000029
:100E1000F0010008000000000024F40000000000C1
:040000050800019955
:00000001FF
