:020000040800F2
:100000006806002039020008410200084302000887
:1000100045020008470200084902000800000000ED
:100020000000000000000000000000004B0200087B
:100030004D020008000000004F02000851020008B5
:10004000530200085302000853020008530200083C
:10005000530200085302000853020008530200082C
:10006000530200085302000853020008530200081C
:10007000530200085302000853020008530200080C
:100080005302000853020008530200080000000059
:100090000000000000000000000000005302000803
:1000A00053020008530200085302000853020008DC
:1000B00053020008530200085302000853020008CC
:1000C00053020008530200085302000853020008BC
:1000D0005302000853020008530200080000000009
:1000E00053020008530200085302000800000000F9
:1000F00000000000000000000000000053020008A3
:1001000000000000530200085302000853020008D8
:1001100000000000000000000000000000000000DF
:10012000530200085302000853020008530200085B
:100130005302000800000000000000000000000062
:100140000000000000000000000000005302000852
:10015000530200085302000853020008530200082B
:1001600053020008530200080000000000000000D5
:10017000000000000000000000000000000000007F
:100180000000000053020008000000000000000012
:10019000530200085302000800F002F800F03CF897
:1001A0000AA090E8000C82448344AAF10107DA45D2
:1001B00001D100F031F8AFF2090EBAE80F0013F0E8
:1001C000010F18BFFB1A43F0010318479C040000FD
:1001D000BC040000103A24BF78C878C1FAD852078E
:1001E00024BF30C830C144BF04680C6070470000B1
:1001F0000023002400250026103A28BF78C1FBD830
:10020000520728BF30C148BF0B6070471FB500F0D0
:100210001EFA1FBD10B510BD00F031F81146FFF7F2
:10022000F5FF00F039F900F04FF803B4FFF7F2FFE3
:1002300003BC00F057F80000094880470948004710
:10024000FEE7FEE7FEE7FEE7FEE7FEE7FEE7FEE786
:10025000FEE7FEE704480549054A064B70470000E3
:100260007D0400089901000868000020680600204D
:10027000680200206802002070477047704775468A
:1002800000F02CF8AE4605006946534620F0070002
:10029000854618B020B5FFF7DDFFBDE820404FF0E0
:1002A00000064FF000074FF000084FF0000BAC467F
:1002B000ACE8C009ACE8C009ACE8C009ACE8C009CA
:1002C00021F007018D46704710B50446AFF300805A
:1002D0002046BDE81040FFF7A8BF00000048704767
:1002E0000800002001491820ABBEFEE726000200EE
:1002F0007047000070B5054640F60000C4F20200E9
:10030000144685420E460DD040F20040C4F2020071
:1003100085420AD00020C4F20200854207D100F0D5
:100320006DF804E000F07EF801E000F071F8284676
:100330003146224600F002F870BD000080B5490049
:100340004FF0030CD0F800E00CFA01F32EEA03039F
:100350000360036802FA01F11943016080BD0000E7
:1003600010B54FEA410C4FF0030E84680EFA0CFEF4
:1003700024EA0E048460846802FA0CF2224382604C
:10038000012244688A4024EA02024260426803FA79
:1003900001F111434160C168029A21EA0E01C16076
:1003A000C16802FA0CF21143C16010BD80B549006A
:1003B0004FF0030CD0F80CE00CFA01F32EEA030323
:1003C000C360C36802FA01F11943C16080BD000037
:1003D0000069012202FA01F10840704780B54FF030
:1003E000010CD0F814E00CFA01F32EEA0303436188
:1003F000436902FA01F11943416180BD43F63000BF
:10040000C4F20200016841F0010101607047000080
:1004100043F63000C4F20200016841F002010160BD
:100420007047000043F63000C4F20200016841F05A
:10043000040101607047000043F60800C4F20200A6
:1004400050F8081C41F0010140F8081C50F8081C45
:100450008907FBD5016821F0030101600168016093
:10046000016811F00C0FFBD140F2000042F2004194
:10047000C2F20000C0F2F401016070474EF68850ED
:10048000CEF20000016841F4700101604FF000619C
:1004900040F8801C7047000086B040F2000AC4F2A9
:1004A000020A00F0B1F80AF5006528460D21012284
:1004B0000124FFF77BFF5046052101220023009411
:1004C0004FF00009FFF74CFF5046062101220023A0
:1004D0000094FFF745FF0AF58066304608210122A7
:1004E00000230094FFF73CFF30460921012200233E
:1004F0000094FFF735FF0DF104080024002700BF2A
:10050000304608210122FFF769FF30460921002209
:10051000FFF764FF28460D21FFF75AFF002808BFA8
:100520000124EDD0012CEBD1032F07F101074FF08F
:100530000104C8BF0127CDF81490CDE90399CDE996
:10054000019948F827400298012814D15046052106
:100550000122FFF743FF5046062100220024FFF747
:100560003DFF504607210022FFF738FF30460621A5
:100570000022FFF733FF0398012814D150460521CC
:1005800000220024FFF72AFF504606210122FFF730
:1005900025FF504607210022FFF720FF30460621A5
:1005A0000022FFF71BFF0498012814D150460521B3
:1005B00000220024FFF712FF504606210022FFF719
:1005C0000DFF504607210122FFF708FF30460621A4
:1005D0000022FFF703FF0598012891D1504605211D
:1005E00000220024FFF7FAFE504606210022FFF702
:1005F000F5FE504607210022FFF7F0FE30460621A7
:100600000122FFF7EBFE7BE710B5FFF715FF002493
:10061000C4F2020404F500600D210022FFF76AFE17
:10062000204605210122FFF765FE20460621012212
:10063000FFF760FE04F58064204608210122FFF7E1
:1006400059FE204609210122FFF754FE10BDF1EEAC
:10065000100A4FF6FF71C0F2C03120EA010040F0ED
:100660004070E1EE100A7047880600080000002084
:1006700008000000D40100089006000808000020CF
:1006800060060000F00100080024F40000000000F3
:040000050800019955
:00000001FF
