:020000040800F2
:10000000600600201D0200082502000827020008E3
:10001000290200082B0200082D0200080000000041
:100020000000000000000000000000002F02000897
:100030003102000800000000330200083502000809
:1000400037020008370200083702000837020008AC
:10005000370200083702000837020008370200089C
:10006000370200083702000837020008370200088C
:10007000370200083702000837020008370200087C
:1000800037020008370200083702000800000000AD
:10009000000000000000000000000000370200081F
:1000A000370200083702000837020008370200084C
:1000B000370200083702000837020008370200083C
:1000C000370200083702000837020008370200082C
:1000D000370200083702000837020008000000005D
:1000E000370200083702000837020008000000004D
:1000F00000000000000000000000000037020008BF
:10010000000000003702000837020008370200082C
:1001100000000000000000000000000000000000DF
:1001200037020008370200083702000837020008CB
:10013000370200080000000000000000000000007E
:10014000000000000000000000000000370200086E
:10015000370200083702000837020008370200089B
:10016000370200083702000800000000000000000D
:10017000000000000000000000000000000000007F
:10018000000000003702000800000000000000002E
:10019000370200083702000800F002F800F02EF8DD
:1001A0000AA090E8000C82448344AAF10107DA45D2
:1001B00001D100F023F8AFF2090EBAE80F0013F0F6
:1001C000010F18BFFB1A43F0010318472402000077
:1001D000340200000023002400250026103A28BF26
:1001E00078C1FBD8520728BF30C148BF0B607047A9
:1001F0001FB500F0EFF81FBD10B510BD00F031F8CD
:100200001146FFF7F5FF00F0A7F800F04FF803B430
:10021000FFF7F2FF03BC00F057F8000009488047E1
:1002200009480047FEE7FEE7FEE7FEE7FEE7FEE7D8
:10023000FEE7FEE7FEE7FEE704480549054A064BF0
:10024000704700003D03000899010008600000208D
:1002500060060020600200206002002070477047A6
:100260007047754600F02CF8AE46050069465346C7
:1002700020F00700854618B020B5FFF7DDFFBDE888
:1002800020404FF000064FF000074FF000084FF0FD
:10029000000BAC46ACE8C009ACE8C009ACE8C0094A
:1002A000ACE8C00921F007018D46704710B504463F
:1002B000AFF300802046BDE81040FFF7A8BF000064
:1002C000004870470000002001491820ABBEFEE73F
:1002D000260002007047000080B500F015F843F6D4
:1002E0003000C4F20200016841F00101016080BDEC
:1002F00080B500F009F843F63000C4F2020001684E
:1003000041F00401016080BD43F60800C4F2020020
:1003100050F8081C41F0010140F8081C50F8081C76
:100320008907FBD5016821F00301016001680160C4
:10033000016811F00C0FFBD1704700004EF6885099
:10034000CEF20000016841F4700101604FF00061DD
:1003500040F8801C704700000024C4F20204FFF73C
:10036000BBFFFFF7C5FF206804F1140220F44060D2
:100370002060206840F480602060606820F02000E9
:10038000606060686060E06820F44060E060E068A1
:1003900040F40060E060A06820F44060A060A068C5
:1003A00040F40060A060D4F8000820F04060C4F879
:1003B000000840F60C00C4F20200016821F0406120
:1003C00001604FF0006100BF036819430160202104
:1003D0001046F9E7F1EE100A4FF6FF71C0F2C03196
:1003E00020EA010040F04070E1EE100A7047000082
:1003F000000400080000002060060000D40100088E
:040000050800019955
:00000001FF
