:020000040800F2
:10000000F006002041020008490200084B020008E7
:100010004D0200084F0200085102000800000000D5
:100020000000000000000000000000005302000873
:10003000550200080000000057020008A906000849
:100040005B0200085B0200085B0200085B0200081C
:100050005B0200085B0200085B0200085B0200080C
:100060005B0200085B0200085B0200085B020008FC
:100070005B0200085B0200085B0200085B020008EC
:100080005B0200085B0200085B0200080000000041
:100090000000000000000000000000005B020008FB
:1000A0005B0200085B0200085B0200085B020008BC
:1000B0005B0200085B0200085B0200085B020008AC
:1000C0005B0200085B0200085B0200085B0200089C
:1000D0005B0200085B0200081D070008000000002A
:1000E0005B0200085B0200085B02000800000000E1
:1000F0000000000000000000000000005B0200089B
:10010000000000005B0200085B0200085B020008C0
:1001100000000000000000000000000000000000DF
:100120005B0200085B0200085B0200085B0200083B
:100130005B0200080000000000000000000000005A
:100140000000000000000000000000005B0200084A
:100150005B0200085B0200085B02000871070008F0
:100160005B0200085B0200080000000000000000C5
:10017000000000000000000000000000000000007F
:10018000000000005B02000800000000000000000A
:100190005B0200085B02000800F002F800F041F882
:1001A0000AA090E8000C82448344AAF10107DA45D2
:1001B00001D100F036F8AFF2090EBAE80F0013F0E3
:1001C000010F18BFFB1A43F001031847E8090000AC
:1001D000080A0000103A24BF78C878C1FAD852073C
:1001E00024BF30C830C144BF04680C6070470000B1
:1001F0000023002400250026103A28BF78C1FBD830
:10020000520728BF30C148BF0B607047732900F008
:10021000F980002070471FB500F0BEFC1FBD10B56F
:1002200010BD00F021F91146FFF7F5FF00F03CFC8E
:1002300000F03FF903B4FFF7F2FF03BC00F046F90A
:100240000948804709480047FEE7FEE7FEE7FEE76A
:10025000FEE7FEE7FEE7FEE7FEE7FEE704480549A6
:10026000054A064B70470000010700089901000885
:10027000F0000020F0060020F0020020F002002034
:100280000FB4044910B503AA029800F0BFF810BCDF
:100290005DF814FB740000202DE9F0410E46044681
:1002A000002020622046E168884730B3252805D029
:1002B000D4E901219047206A401CF2E7E16820461A
:1002C00000278847050018D0A5F14100192802D859
:1002D00020354FF400673246294620462760FFF755
:1002E00095FF40B1012804D0F61D26F00706083618
:1002F000D8E7361DD6E72846DAE7206ABDE8F08160
:1003000070B50C460546012A05D02878800600D530
:10031000EA69002302E0012305E05B1C934202D25C
:10032000E05C0028F9D1A869E618C01AA861286A1B
:10033000184428622846AFF3008004E0D5E9012183
:1003400014F8010B9047B442F8D32846AFF300806D
:1003500070BD0000014900F091BB00007400002056
:1003600010B5044603E000F089FB401C09D014F8E6
:10037000010B05490028F6D1BDE810400A2000F025
:100380007DBB4FF0FF3010BD740000204FF0000225
:1003900000B5134694469646203922BFA0E80C507B
:1003A000A0E80C50B1F12001BFF4F7AF090728BF56
:1003B000A0E80C5048BF0CC05DF804EB890028BFD2
:1003C00040F8042B08BF704748BF20F8022B11F0FB
:1003D000804F18BF00F8012B704770477047704777
:1003E00010B5436913B1AFF3008001E0FFF788FF58
:1003F000012010BD127800F124010A7000224A7019
:100400000122EDE711684FF0FF32E9E7074B70B5C5
:100410000D467B4400F011F80446284600F020F811
:1004200010B14FF0FF3070BD204670BD6706000070
:1004300001694A1C02610878704700B58FB0CDE9A8
:1004400001310021059105497944CDE90310114698
:100450006846FFF721FF0FB000BD0000E5FFFFFF7A
:10046000007B00F080007047754600F02BF8AE4628
:1004700005006946534620F00700854618B020B5B0
:10048000FFF7ECFEBDE820404FF000064FF00007FC
:100490004FF000084FF0000BAC46ACE8C009ACE8E8
:1004A000C009ACE8C009ACE8C00921F007018D46DD
:1004B000704710B50446AFF300802046BDE81040F9
:1004C000FFF7B8BE0048704710000020014918200F
:1004D000ABBEFEE7260002007047000070B505467F
:1004E00040F60000C4F20200144685420E460DD0CC
:1004F00040F20040C4F2020085420AD00020C4F25B
:100500000200854207D100F041F804E000F052F803
:1005100001E000F045F828463146224600F002F896
:1005200070BD000080B549004FF0030CD0F800E02A
:100530000CFA01F32EEA03030360036802FA01F1E7
:100540001943016080BD000080B549004FF0030CE5
:10055000D0F80CE00CFA01F32EEA0303C360C36881
:1005600002FA01F11943C16080BD000080B54FF06F
:10057000010CD0F814E00CFA01F32EEA03034361F6
:10058000436902FA01F11943416180BD43F630002D
:10059000C4F20200016841F00101016070470000EF
:1005A00043F63000C4F20200016841F0020101602C
:1005B0007047000043F63000C4F20200016841F0C9
:1005C000040101607047000043F60800C4F2020015
:1005D000D0F8F81321F00F01C0F8F813D0F8F81391
:1005E00041F00201C0F8F81350F8081C41F0010175
:1005F00040F8081C50F8081C8907FBD550F8081C67
:10060000542221F0807140F8081C50F8041C21F499
:10061000800140F8041C50F8041C40F8041C50F8F9
:10062000041C62F38E1140F8041C50F8041C0822CC
:1006300062F3050140F8041C50F8041C21F4403119
:1006400040F8041C50F8081C41F0807140F8081C68
:1006500050F8081C8901FBD4016821F003010160F6
:10066000016841F002010160016801F00C010829F4
:10067000FAD1016821F0F0010160016821F4E05134
:100680000160016841F480510160016821F460411A
:10069000016040F200004BF60051C2F20000C0F2CF
:1006A000015101607047000040F27000C2F200008A
:1006B0000168002908BF704701680139016070476F
:1006C00080B54EF21001CEF2000100220A600B68E4
:1006D00043F004030B6040F6412358434FF0FF33CF
:1006E00003EB401048608A60086840F00200086030
:1006F000086840F00100086000F0A6F980BD000025
:100700004EF68850CEF20000016841F4700101609D
:100710004FF0006140F8801C70470000B0B544F213
:100720000044C4F20004204600F0BAF9E0B12046CB
:1007300000F030F940F2E905C2F20005287004F536
:1007400050402946012200F059F92878FFF702FEAF
:1007500040F20401C2F2000128780968814218BF02
:10076000B0BD02A0FFF7FCFDB0BD00BF0D00000052
:10077000B0B541F20044C4F20104204600F090F903
:10078000002808BFB0BD204600F004F940F2040183
:10079000C2F20001096840F2E80540F2E004C2F24A
:1007A00000058142C2F20004287008D140F27800AE
:1007B000C2F200000121016000202060B0BD40F2C3
:1007C0000801C2F200012068096888420ADD0020A1
:1007D000206040F27C00C2F20000FFF7D7FD06A0C7
:1007E000FFF7BEFD2878216840F27C02C2F20002C9
:1007F0005054481C2060B0BD4552524F52203A2000
:10080000546F6F206C6F6E6720737472696E670D22
:10081000000000002DE9F04F81B017460E46044657
:10082000DDF8288044F200490846114602229B4622
:10083000C4F20009FFF752FE584641460222FFF774
:100840004DFE6FF01F0000EB870306F12400024607
:1008500009F5504506F12001082FBCBF0A46BB0030
:10086000AC420CBF4FF0080C4FF0070C12680CFAAA
:1008700003F3082FB8BF084642EA03010160B8F14C
:10088000070F4FEA880004DC0CFA00F00BF120019E
:1008900004E020380CFA00F00BF124010A68DDF8BE
:1008A0002CA010430860304639460022FFF74CFE6A
:1008B000584641460022FFF747FE09F54C4043F6F3
:1008C0004401C4F20201844206D04C4509D00A68B2
:1008D00042F020020A600AE00A6842F010020A6050
:1008E00005E051F8042C42F4003241F8042CE16890
:1008F00026A221F40051E160E1684C4508BF0432B2
:1009000092ED000A4FEA0A1201EE102AB8EEC11A5F
:1009100021F4806180EE010AE160E168472521F45D
:100920008051E160E1684C4521F40041E1602169BA
:1009300021F440512161BDEEC00AA16810EE102AD9
:1009400041EA0211A160616941F0C0016161E168A1
:1009500041F00801E160E16841F00401E160E16813
:1009600041F02001E16008BF2625844208BF25250B
:10097000284600F071F8284600F056F8E06840F488
:100980000050E06001B0BDE8F08F00BFA037A04C80
:10099000A037204C01688906FCD54068C0B270477A
:1009A000B0B582B044F2004EC4F2000E8C460EF593
:1009B0004C4188424FF000024FF0000308BF06226E
:1009C00070450EF5DE3508BF0222884208BF0323BA
:1009D0002946704508BF03230EF5504418BF0EF595
:1009E000E031A04202BF29460B220C2300930B46A4
:1009F000CDF804C0FFF70EFF02B0B0BD62B14FF0FA
:100A0000000C00BF03681B06FCD511F80C300CF17C
:100A1000010C94454360F5D101684906FCD5016895
:100A200021F0400101607047C1B200F01F000122B7
:100A300002FA00F04EF20012CEF2000242EAD101B8
:100A400021F00301086070474EF62350CEF20000FB
:100A50000021017070470000E421C0F2E00161F361
:100A60001F2010210170704740F27001C2F2000196
:100A7000086000BF08680028FCD1704710B582B03C
:100A800004468DF8070044F20040C4F200000DF166
:100A900007010122FFF7B2FF204602B010BD00009F
:100AA000006800F02000704700F05AF81EA0FFF721
:100AB00057FC40F2780640F27C0440F2E40500273F
:100AC000C2F20006C2F200040FF26C09C2F2000585
:100AD0004FF0010A4FF0000B0FF26C08C4F202074E
:100AE0000DE04046FFF73CFCC6F800B02A683846E7
:100AF0000521FFF73BFD4FF47A70FFF7B5FF306833
:100B00000128F3D120784C28F0D148462146FFF740
:100B1000B7FB6078312804D03028E2D1C5F800B0A6
:100B2000E2E7C5F800A0DFE748656C6C6F204E7502
:100B3000636C656F0D000000627566666572203A31
:100B40002025730D0A0000004552524F52203A20D2
:100B500057726F6E6720636F6D6D616E640D00007C
:100B600010B5FFF731FD0120FFF7AAFD44F2004464
:100B7000C4F2000404F5DE3005210122FFF7AEFCCB
:100B800020464FF41651FFF70BFF04F550404FF489
:100B90001651FFF705FF10BDF1EE100A4FF6FF7179
:100BA000C0F2C03120EA010040F04070E1EE100ACE
:100BB00070470000D80B0008000000201000000063
:100BC000D4010008E80B000810000020E006000037
:100BD000F0010008000000000024F4000D000000F7
:080BE0000A0000000000000003
:040000050800019955
:00000001FF
