:020000040800F2
:10000000A806002051020008590200085B020008FF
:100010005D0200085F0200086102000800000000A5
:100020000000000000000000000000006302000863
:10003000650200080000000067020008050C0008C7
:100040006B0200086B0200086B0200086B020008DC
:100050006B0200086B0200086B0200086B020008CC
:100060006B0200086B0200086B0200086B020008BC
:100070006B0200086B0200086B0200086B020008AC
:100080006B0200086B0200086B0200080000000011
:100090000000000000000000000000006B020008EB
:1000A0006B0200086B0200086B0200086B0200087C
:1000B000790C00086B0200086B0200086B02000854
:1000C0006B0200086B0200086B0200086B0200085C
:1000D0006B0200086B0200086B02000800000000C1
:1000E0006B0200086B0200086B02000800000000B1
:1000F0000000000000000000000000006B0200088B
:10010000000000006B0200086B0200086B02000890
:1001100000000000000000000000000000000000DF
:100120006B0200086B0200086B0200086B020008FB
:100130006B0200080000000000000000000000004A
:100140000000000000000000000000006B0200083A
:100150006B0200086B0200086B0200086B020008CB
:100160006B0200086B0200080000000000000000A5
:10017000000000000000000000000000000000007F
:10018000000000006B0200080000000000000000FA
:100190006B0200086B02000800F002F800F049F85A
:1001A0000AA090E8000C82448344AAF10107DA45D2
:1001B00001D100F03EF8AFF2090EBAE80F0013F0DB
:1001C000010F18BFFB1A43F001031847A4210000D8
:1001D000C4210000103A24BF78C878C1FAD8520769
:1001E00024BF30C830C144BF04680C6070470000B1
:1001F0000023002400250026103A28BF78C1FBD830
:10020000520728BF30C148BF0B607047662902F013
:100210006280002070471FB502F050F800F09CFA91
:1002200004000020002101F047FBE0601FBD10B575
:1002300010BD00F0ADFB1146FFF7EDFF00F0E6FE4C
:1002400000F0CBFB03B4FFF7F2FF03BC00F00EFCA1
:100250000948804709480047FEE7FEE7FEE7FEE75A
:10026000FEE7FEE7FEE7FEE7FEE7FEE70448054996
:10027000054A064B704700005D0C00089901000814
:10028000A8000020A8060020A8020020A802002044
:100290000FB4044910B503AA029800F04BFA10BC41
:1002A0005DF814FB8C0000202DE9F0410E46044659
:1002B000002020622046E168884730B3252805D019
:1002C000D4E901219047206A401CF2E7E16820460A
:1002D00000278847050018D0A5F14100192802D849
:1002E00020354FF400673246294620462760FFF745
:1002F0008DFF40B1012804D0F61D26F00706083610
:10030000D8E7361DD6E72846DAE7206ABDE8F0814F
:100310007047704770472DE9FF4F0C461E464FF05F
:10032000FF378BB0D2E90001DDF860800A908A4681
:10033000C1F30A5505B93D46002108464FF00000BB
:10034000BAF1000F00F4400005DA00EB80004FF432
:10035000400101EA50004FEA9059B9F1010F00DD68
:10036000B9460A9850EA4A000ED044F61050A5F259
:10037000FF3545432F14B8F1000F1ED07542291EDA
:100380001EDDC9F100021CE0B8F1010F4FF00000C2
:1003900001D0302103E0F24305E02154401CB0427B
:1003A000FBDB30460022002121540B99C1F8088064
:1003B000C1E900200FB0BDE8F08FBD1B6D1CDEE76A
:1003C0004A4600DA694206A800F068FA06AB93E8EC
:1003D000070003AB83E8070050460A9900F08CFE43
:1003E0008DE80700A0F500501F3800900398002DFD
:1003F0000ADD42F21F014A460844002303A9039084
:10040000684601F0F5F809E0A0F500504A461F38AB
:10041000002303A90390684601F0FFF88DE8070068
:100420000004000C03D04FF0FF30410800E01046FC
:10043000B8F1000F03D00022009215461EE0751E91
:1004400005D400F08DF9303262556D1EF9D5B346F2
:100450000122084302D000227F1C04E020783028CB
:1004600001D100227F1E002A099784D01DE0112DA2
:1004700007DA00F075F9303262556D1C50EA01025E
:10048000F5D1084302D00098C8B10EE00021681EE3
:1004900005E0235C625C63542254401E491C814287
:1004A000F7DBAB46A81B401E0990002004F80B00A8
:1004B0000B98099AC0F80880C0E9002B7AE711264A
:1004C0004FF0000857E72DE9F04F88460446D21D4B
:1004D00022F0070191B0D1E90001CDE90A0101F054
:1004E000D3F902460B98C00F01D02D2007E02068F9
:1004F000810701D52B2002E0202101EAC000032A58
:10050000099001D0072A05DB03464146204600F04A
:1005100085F90BE12078800601D5E06900E006202E
:10052000B8F1650F814606D0B8F1660F18D0B8F162
:10053000670F70D131E00020B9F1110F009001DB9D
:10054000112301E009F101030AAA01A90CA8FFF790
:10055000E2FEDDE90C70002609F10105834647E063
:1005600001204B4600904FF000470AAA01A90CA8B1
:10057000FFF7D1FEDDE90DB00C995D46002610B9FC
:1005800009F101000D18B9EB050003D4C0F1FF36E5
:1005900009F10105A5EB09002BE0B9F1010F01DA22
:1005A0004FF001090020B9F1110F0090484601DD1C
:1005B000112300E003460AAA01A90CA8FFF7ABFE2D
:1005C000DDE90C704D4600268346207800070AD4EA
:1005D000AB4500DA5D4601A8012D04DD411911F893
:1005E000011C302907D04F4502DA17F1040F04DA55
:1005F000012082460FE06D1EEEE7002F02DCED1BAE
:100600003E4403E0781CA84200DD7D1CB81B00F1CD
:10061000010A4FF000472078000703D4AA4501DB08
:100620004FF0FF3A0021B7F1004F0DF143088DF86C
:10063000431024D002202B23002F01DA7F422D23E8
:100640000A21021EA0F1010000DC5FB197FBF1FC62
:1006500097FBF1F201FB1C7C17460CF1300C08F8FB
:1006600001CDEEE7A8F1010003702188090501D54D
:10067000452100E06521A0F1010800F8011C09985E
:100680000FA9A1EB0807FF1D00B10120411901EBE3
:10069000EA70A1693844081A401EA0612078C0069B
:1006A00002D42046AFF30080099828B1D4E9012193
:1006B0009047206A401C20622078C00622D5204640
:1006C000AFF300801EE0002E04DBB34502DD01A87D
:1006D000805D00E03020D4E901219047206A401C71
:1006E0002062761CAAF101005FEA000A0AD100F03C
:1006F00033F8C0680168405CD4E901219047206A62
:10070000401C2062281EA5F10105DCDC07E0D4E9CD
:10071000012118F8010B9047206A401C2062381E06
:10072000A7F10107F3DC2046AFF30080032011B0EE
:1007300041E60000074B70B50D467B4400F05BF8C6
:100740000446284600F01CF910B14FF0FF3070BD90
:10075000204670BDAB08000000487047280000200C
:1007600030B5B0F10A0271F100034FEA900E4EEA83
:10077000817EB0EB0E0061EB91014FEA101E4EEA54
:10078000017E10EB0E0041EB11114FEA102E4EEAE4
:10079000016E10EB0E0041EB11214FEA104E4EEAB4
:1007A000014E10EB0E0041EB1141401841F10001E8
:1007B0004FEAD00040EA41704FEAD1014FEA81048C
:1007C00044EA907410EB800544EB01046D1944EB8E
:1007D0000404521BA3414FF0000348BF0A3200D566
:1007E00030BD401C41F1000130BD000001694A1CD0
:1007F00002610878704700B58FB0CDE90131002162
:10080000059105497944CDE9031011466846FFF783
:100810004BFD0FB000BD0000E5FFFFFF2DE9F041EB
:100820001F46044603260168072A01F4006004DB22
:1008300008B116A505E016A503E008B115A500E06E
:1008400015A521F010002060A069C01EA0610FB1A5
:10085000401EA0612046AFF300804FB1D4E90121D2
:1008600038469047206A401C2062C01C206206E087
:10087000206AFAE7D4E9012115F8010B9047761EAA
:10088000F8D22046AFF30080BDE8F0814E414E0023
:100890006E616E00494E4600696E66002DE9F047B4
:1008A000814616468AB0354878440DC88DE80D005B
:1008B00032487844801C03AC0DC884E80D0041F632
:1008C0009B300844372190FBF1F290FBF1F5A5F144
:1008D000800501FB12041B3C02D56442012000E0AC
:1008E0000020DFF898A080460027FA44AAF1BE0A4B
:1008F0000EE0E0070AD03246684607EB47010123C5
:100900000AEB810100F089FE8DE8070064107F1C6E
:10091000002CEED1194F7F44AE3F19E0E80715D007
:1009200007EB04100DF1180A90E80E008AE80E009B
:10093000C068F04201D1981908903246012306A9F7
:1009400003A800F06AFE03AB83E807006D10641C87
:10095000002DE3D14FF0010332466946B8F1000F94
:1009600003A802D000F044FE01E000F056FEC9E901
:100970000001C9F808200AB0BDE8F087AC1A0000F1
:10098000007B00F08000704700487047080000209E
:100990007546FFF7F9FFAE4605006946534620F05D
:1009A0000700854618B020B5FFF760FCBDE8204081
:1009B0004FF000064FF000074FF000084FF0000B1B
:1009C000AC46ACE8C009ACE8C009ACE8C009ACE88A
:1009D000C00921F007018D46704710B50446AFF3FA
:1009E00000802046BDE81040FFF72CBC000000004E
:1009F00030B44FF0013C50F8042B51F8043BCCFAD2
:100A000052F4D51A20D1FCB950F8042B51F8043B0C
:100A1000CCFA52F4D51A17D1B4B950F8042B51F8C6
:100A2000043BCCFA52F4D51A0ED16CB950F8042B11
:100A300051F8043BCCFA52F4D51A05D1002CDAD087
:100A400030BC4FF00000704729BAB1FA81F111F0C3
:100A50001801D1F120008440F2D1CA40CB4012F0FD
:100A6000FF0213F0FF0330BCD01A70470149182071
:100A7000ABBEFEE7260002007047000070B50546D9
:100A800040F60000C4F20200144685420E460DD026
:100A900040F20040C4F2020085420AD00020C4F2B5
:100AA0000200854207D100F01FF804E000F030F8A2
:100AB00001E000F023F828463146224600F002F813
:100AC00070BD000080B549004FF0030CD0F800E085
:100AD0000CFA01F32EEA03030360036802FA01F142
:100AE0001943016080BD000043F63000C4F20200EB
:100AF000016841F0010101607047000043F63000D9
:100B0000C4F20200016841F0020101607047000078
:100B100043F63000C4F20200016841F004010160B4
:100B20007047000043F60800C4F20200D0F8F81342
:100B300021F00F01C0F8F813D0F8F81341F00201CA
:100B4000C0F8F81350F8081C41F0010140F8081CE7
:100B500050F8081C8907FBD550F8081C542221F0D6
:100B6000807140F8081C50F8041C21F4800140F802
:100B7000041C50F8041C40F8041C50F8041C62F3D8
:100B80008E1140F8041C50F8041C082262F3050181
:100B900040F8041C50F8041C21F4403140F8041CB7
:100BA00050F8081C41F0807140F8081C50F8081CEF
:100BB0008901FBD4016821F003010160016841F063
:100BC00002010160016801F00C010829FAD10168F5
:100BD00021F0F0010160016821F4E0510160016839
:100BE00041F480510160016821F46041016040F2EC
:100BF00000004BF60051C2F20000C0F2015101604A
:100C00007047000040F28800C2F20000016800292D
:100C100008BF7047016801390160704780B54EF226
:100C20001001CEF2000100220A600B6843F00403B9
:100C30000B6040F6412358434FF0FF3303EB401065
:100C400048608A60086840F002000860086840F068
:100C50000100086000F0AEF980BD00004EF688503B
:100C6000CEF20000016841F4700101604FF00061B4
:100C700040F8801C704700002DE9F04F81B010242F
:100C8000C4F20004206840F29005C007C2F20005DB
:100C900018D02878012811D140F29806C2F2000637
:100CA00096ED000B9FED721B51EC100B53EC112BCA
:100CB00000F018FE41EC100B86ED000B206820F0D0
:100CC000010020602068800740F1CC80287801284E
:100CD00040F0B58000262E70606A01F04DF841ECBE
:100CE000100B40F26808C2F2000840F2780988ED63
:100CF000000B6662C2F2000999ED000B98ED001B33
:100D000051EC100B53EC112B01F0D1FA40F2800B97
:100D100040F2700AC2F2000BC2F2000A98BB98EDD2
:100D2000000B99ED001B51EC100B53EC112B01F053
:100D3000ADF90646E0690F46013001F01DF80246A4
:100D400040F29800C2F2000090ED000B0B4651EC0F
:100D5000100B01F09DF802460B463046394600F074
:100D6000C1FD41EC100B9FED441B8BED000B9BED87
:100D7000000B53EC112B51EC100B00F067FE41EC13
:100D8000100B8AED000B99ED000B98ED001B51EC58
:100D9000100B53EC112B01F07CFA002841D199ED96
:100DA000000B9FED371B53EC102B51EC110B01F096
:100DB0006DF998ED000B53EC102B00F093FD80467D
:100DC000E0698946013000F0D7FF064640F29800FE
:100DD000C2F2000090ED000B9FED2B1B0F4653EC71
:100DE000112B51EC100B00F07DFD32463B4601F01B
:100DF0004FF802460B464046494600F073FD41EC71
:100E0000100B9FED1D1B8BED000B9BED000B53ECAE
:100E1000112B51EC100B00F019FE41EC100B8AED78
:100E2000000B40F2A000C2F20000012101709FED12
:100E3000180B40F29800C2F2000080ED000B2878F9
:100E400060B901202870606A00F096FF41EC100B39
:100E500040F27800C2F2000080ED000B206820F024
:100E60000200206001B0BDE8F08F00BF00BF00BFEE
:100E7000000000000000F03F0000000080842E41D0
:100E800000000000E0FFEF40000000000000F0BFA5
:100E9000000000000000000080B543F63000C4F2FE
:100EA0000200016941F2171241F400310161016849
:100EB00041F0010101600020C4F20200016821F04C
:100EC000F0010160016841F0A0010160016A41F494
:100ED000EE410162816841F0F0018160C16821F05A
:100EE000F001C160C16841F05001C160416821F06A
:100EF0000C01416044F20C40C4F20000016821F48E
:100F000000510160016821F480510160016821F401
:100F100080610160416821F440514160016821F421
:100F20000041016050F8041C114340F8041C0168A2
:100F300041F00C010160816841F0C00181600168ED
:100F400041F020010160016841F40051016000F0AE
:100F500039F800F01FF880BD62B14FF0000C00BFFF
:100F600003681B06FCD511F80C300CF1010C9445FC
:100F70004360F5D101684906FCD5016821F04001C4
:100F8000016070474EF20010CEF200004FF0805129
:100F9000016070474EF20410CEF200004021016063
:100FA000704700004EF21C40CEF20000202101707C
:100FB000704700004EF62350CEF200000021017071
:100FC000704700004EF22640CEF200001021017062
:100FD0007047000040F28801C2F20001086000BFC3
:100FE00008680028FCD1704710B582B004468DF81F
:100FF000070044F20040C4F200000DF10701012295
:10100000FFF7AAFF204602B010BD000000F064F810
:101010002020C4F202000168532241F00101016066
:1010200043F64000C4F20200016841F00101016092
:101030004FF08041086820F0100008601820C4F2CA
:10104000000002614FF6FF7242610A6842F001023D
:101050000A60016821F003010160016841F00101AB
:101060000160016821F0F0010160016841F0200198
:101070000160816821F00F018160816821F00A011F
:101080008160816841F00101816050F80C1C41F0E1
:10109000010140F80C1C50F80C1C41F0020140F812
:1010A0000C1CFFF77FFFFFF76DFF40F27005C2F2E7
:1010B000000506A495ED000B204653EC102BFFF71E
:1010C000E7F84FF47A70FFF785FFF3E725665B7367
:1010D00065635D0D0A00000080B5FFF723FD012068
:1010E000FFF79CFDFFF7D8FE0020C4F202000021AC
:1010F0000222FFF7C3FC80BD5FEA400C08BF91F0FD
:10110000000F4FEA8C234FEAC12243EA51514FEAC4
:101110001C5018BF00F5F0404FEA300018BF41F0F6
:1011200000415FEA6C5C00F02980BCF1FF3F08BF22
:1011300040F080407047130C06BF12044FF0100CB3
:101140004FF0000C130E04BF12020CF1080C130F29
:1011500004BF12010CF1040C930F04BF92000CF1B8
:10116000020CD30F04BF52000CF1010C11464FF0DA
:101170000002A0F11F00A0EB0C00704711F0004F1F
:1011800008BF704731F000413FF4D5AF0B0C06BFEC
:1011900009044FF0100C4FF0000C0B0E04BF0902B5
:1011A0000CF1080C0B0F04BF09010CF1040C8B0FA0
:1011B00004BF89000CF1020CCB0F04BF49000CF1F5
:1011C000010CCCF1200322FA03F341EA030102FAF5
:1011D0000CF2A0EB0C0000F10100704723F07F47F8
:1011E00020F07F4C80EA030000F00040ACEB0703E6
:1011F00003F57C5303F1FF032DE9804909B44FEA5D
:10120000144324EA03484FEA154B25EA0B4E0FF22C
:10121000042606EB13273E7803FB0667C7F5000795
:1012200007FB06F64FEAD64606F102064FEA5437A8
:1012300007FB066CCCF1005C4FEA1C472CEA074C1C
:101240000CFB06F507FB06F404EB15464FEA961671
:1012500049085FEA320234BF00204FF000404FEAF5
:10126000D13706FB07FC4FEA1C4C0CFB0BF7D21BDB
:1012700003FB0CF761EB07010CFB0EF7B0EB07402B
:1012800072EB17420CFB08F734BFA2EB0742B2EB3C
:10129000074261EB17414FEA0C444FEA910706FB06
:1012A00007FC4FEA1C4C0CFB0BF7B0EBC74072EB92
:1012B000573203FB0CF734BFA2EBC742B2EBC74275
:1012C00061EB57310CFB0EF7B0EBC70072EB5772B6
:1012D0000CFB08F734BFA2EBC702B2EBC70261EB0D
:1012E00057714FEA816141EA92114FEA826242EA04
:1012F00090124FEA806004EBCC04039F4FEAD13791
:1013000006FB07FC4FEA1C4C0CFB0BF7D21B03FB44
:101310000CF761EB07010CFB0EF7B0EB074072EB2B
:1013200017420CFB08F734BFA2EB0742B2EB0742AF
:1013300061EB17414FEA8C5504EB9C244FEA91076F
:1013400006FB07FC4FEA1C4C0CFB0BF7B0EBC7404D
:1013500072EB573203FB0CF734BFA2EBC742B2EB80
:10136000C74261EB57310CFB0EF7B0EBC70072EBD5
:1013700057720CFB08F734BFA2EBC702B2EBC702EF
:1013800061EB57714FEA816141EA92114FEA826243
:1013900042EA90124FEA806015EB4C2544F10004BC
:1013A0004FEAD13706FB07FC4FEA1C4C0CFB0BF74E
:1013B000D21B03FB0CF761EB07010CFB0EF7B0EB44
:1013C000074072EB17420CFB08F734BFA2EB074251
:1013D000B2EB074261EB17414FEA813141EA92419A
:1013E0004FEA823242EA90424FEA80304FEA0C766E
:1013F00015EB1C1544F1000448EA03434EEA0B4880
:101400004FF0000EB2EB080C71EB030724BF6246ED
:1014100039464EEB0E0E4FF0000B00185241494179
:101420004BEB0B0BB2EB080C71EB03077BF1000BE2
:1014300024BF624639464EEB0E0E4FF0000B0018EB
:10144000524149414BEB0B0BB2EB080C71EB03071C
:101450007BF1000B24BF624639464EEB0E0E51EA7B
:10146000020718BF46F0010616EB0E7655F1000292
:1014700054F1000103D5BDE88901BDE80088BDE84D
:101480008901BDE80048B619524141EB0101A3F1C1
:101490000103704780807F7E7D7C7B7A79787776C8
:1014A00076757473727171706F6E6E6D6C6C6B6A41
:1014B0006A696868676666656464636362616160DF
:1014C000605F5F5E5E5D5D5C5C5B5B5A5A5959585C
:1014D00058575756565555555454535352525251C6
:1014E000515050504F4F4F4E4E4D4D4D4C4C4C4B1C
:1014F0004B4B4A4A4A494949484848474747474663
:10150000464645454544444444434343434242429E
:10151000424141419C46002B30D477002BD04FEA0A
:1015200037071CB503B44FF010004FF01001BAF1AB
:10153000000F06D0BCF1000FDCBF40F0080040F007
:1015400008014FF000000FBCBDE810400BF1010B8B
:10155000BBF1010F08BF5FEA170722BF12F10102BA
:1015600011F101014FF0004143F1000300F0004090
:1015700043EA00007047F9D35708D0E746EA064629
:101580004FEA164613F1400F1FDD13F1200FDFBFA6
:1015900016430A46002120335B42BED0C3F1200728
:1015A00046EA06464FEA164602FA07F746EA0706F3
:1015B00022FA03F2C3F1200701FA07F742EA070211
:1015C00021FA03F14FF00003A7E746EA020646EAD4
:1015D00006464FEA164646EA0106BCBF46EA0646FC
:1015E000360C4FF000034FF000024FF0000194E77B
:1015F0002DE9804C70B49A46934691E8380007C8AC
:1016000031EA400C48BF34EA430C03D5FFF7E6FD4E
:10161000FFF780FFF0BCBDE8008C2DE9804C70B472
:101620009A46934691E8380007C810F0804F08BFEB
:1016300013F0804F03D100F005F8FFF76BFFF0BC0B
:10164000BDE8008C20F07F4723F07F4C80EA030048
:1016500000F0004007EB0C03A3F57C53A3F1FE035D
:1016600092F0000F00F0B38095F0000F00F077804B
:101670002DE901494FEA114021EA00484FEA14469A
:1016800024EA064700FB06FC08FB06F607FB08F801
:1016900018EB06484CEB164C00FB07F718EB074815
:1016A0004CEB17404FEA124B22EA0B4E4FEA15461D
:1016B00025EA06470BFB06FC0EFB06F607FB0EFEB3
:1016C0001EEB064E4CEB164C0BFB07F71EEB074EC2
:1016D0004CEB174B18EB0B0840F1000018EB0E0B0E
:1016E00058EB000840F100008F1A4FF000014FF056
:1016F00000063CBFC943661B14BFB5EB040C0021B8
:101700003CBFC943F61B4FEA174427EA04454FEA9A
:101710001C472CEA074C04FB076205FB07F70CFB90
:1017200005F616EB074642EB174204FB0CFC16EBE2
:101730000C4642EB1C421BEB060658EB02024141F1
:101740004EEA8E0E46EA9E0601D5BDE80189B6191D
:10175000524141EB0101A3F10103BDE801894FEAC8
:10176000144524EA05464FEA114721EA074C05FBD8
:1017700007F406FB07F70CFB06F111EB074144EBFE
:10178000174405FB0CFC11EB0C4144EB1C444FEAE5
:10179000124722EA074C05FB07F206FB07F70CFB92
:1017A00006F616EB074642EB174205FB0CFC16EB60
:1017B0000C4642EB1C456A1854F1000148BF7047C3
:1017C000B619524141EB0101A3F10103704795F0B5
:1017D000000F37D04FEA114221EA02464FEA144780
:1017E00024EA074C02FB07F106FB07F70CFB06F4A3
:1017F00014EB074441EB174102FB0CFC14EB0C44C7
:1018000041EB1C414FEA154725EA074C02FB07F55F
:1018100006FB07F70CFB06F616EB074645EB1745EC
:1018200002FB0CFC16EB0C4645EB1C42121951F165
:10183000000148BF7047B619524141EB0101A3F1C5
:10184000010370474FEA144524EA05464FEA114761
:1018500021EA074C05FB07F106FB07F70CFB06F234
:1018600012EB074241EB174105FB0CFC12EB0C425B
:1018700051EB1C414FF0000648BF7047921841EBF6
:101880000101A3F10103704703B4019841000098DE
:1018900050EAC12018BF04204A0D18BF40F00100D3
:1018A00040F2FF72B2EB515F08BF40F00200012826
:1018B00008BF052002B0704710B500290AD008788B
:1018C000002807D005487844FFF792F8002801D097
:1018D000002010BD0248784410BD0000CA0A000074
:1018E000C20A000010B591EA030F48BF83F000431D
:1018F00000F1D483841A71EB030C05D2121943EB67
:101900000C03001B61EB0C014FEA1154A4EB135CB8
:10191000DFF81CE11EEA430F18BF9EEA445F00F0A7
:10192000748021EA045123EA0E0343F48013DCF1AE
:10193000200E32D322FA0CFE10EB0E0023FA0CFE1E
:1019400041EB0E01CCF1200E03FA0EFE10EB0E005F
:10195000CCF1200E51F10001B1F5801F32D201EB24
:10196000045112FA0EF2BDE8104058BF7047401CF7
:1019700038BF5FEA420218BF7047002814BF20F04A
:10198000010041F100014FEA410313F5001F38BF88
:101990007047A1F1C04100F073BB012A43EB030281
:1019A000ACF1200CDCF11F0E32BF4FF0000E23FA19
:1019B0000CF310EB030041EB0451B4EB115FD0D0FA
:1019C000A1EB045101F58011490801EB04515FEAD4
:1019D00030000ED350F1000038BF12FA0EFE08D1CD
:1019E000BDE81040C9E7401C38BF5FEA4202CAD1D7
:1019F000C3E7BDE810404FEA410313F5001F38BFAD
:101A00007047A1F1C04100F03BBB9EEA445F08D0A3
:101A100011EA5E0FBDE8104004BF01F00041002054
:101A20007047BDE8104070B500F0DCFA64FBBE3EC4
:101A30000000E0FF491058BFC1F140415B1058BFA2
:101A4000C3F140438B42EFF3008070472DE9C04162
:101A500030B4DFF8A4C23CEA111418BF3CEA1314F6
:101A600000F0ED801CEA111481EA030544EAD57404
:101A700018BF1CEA131500F0C880A4EB050404F19C
:101A80007F7404F500344FF0004545EAC12145EA72
:101A9000C32341EA505143EA52534FEAC0204FEA70
:101AA000C222994208BF904200F09D804FEA136520
:101AB0000FF24416765D4FEA134506FB05F7C7F1B2
:101AC000807706FB07F74FEAD737A7FB0368764214
:101AD000A7FB06CEC8F5803838BFA8F1010807FB80
:101AE00008E6A6FB028C4FF0000EE6FB03CEDCF10D
:101AF000000CCEF1004E38BFAEF1010EA6FB0C5823
:101B00004FF00007E6FB0E87A1FB08C6A0FB07CE3F
:101B100016EB0E064FF0000545F10005E1FB0765E9
:101B200015F1E04E7EBFA4F580345FEA46066D41B4
:101B300016F1800745F100054FEA172747EA0567C8
:101B40004FEA15254FEA0666A6F1DE46B6F1805F3C
:101B500020D9384605EBC47124F0010C01EB0C11BF
:101B6000BCF1FE6F02D8F0BCBDE8008124425CBF2E
:101B700001F5801E9EEAC47F02D4F0BCBDE800815E
:101B8000244200F13980A1F1C041F0BCBDE8004120
:101B900000F076BA4FEAD02040EA41504FEAD12116
:101BA0004FEAD22242EA43524FEAD323A7FB0286EE
:101BB00007FB036605FB02661EEA0E0F58BFA6EB85
:101BC0000056B6EB00564FEA520E4EEAC37E18EBB3
:101BD0000E0E56EB530EBCD518EB02085E417F1C6F
:101BE00055F10005B5E74FF480154FF000074FF0B1
:101BF00000064FF00008ACE701F1C04101F00041E0
:101C00004FF00000F0BCBDE800810CEA131511EAAA
:101C10000C1F00D00CE013EA0C1F00F026804FF0E0
:101C2000000081EA030101F00041F0BCBDE8008141
:101C3000F0BCBDE8004181EA030100F021BAF0BC2C
:101C4000BDE8004170B500F0CDF900BF097EFC3E53
:101C500000F007B84FF0000081EA030101F00041F5
:101C6000704781EA030100F00BBAF0BCBDE8004107
:101C700022494FF000007047FFFDFBF9F7F5F4F241
:101C8000F0EEEDEBE9E8E6E4E3E1E0DEDDDBDAD817
:101C9000D7D5D4D3D1D0CFCDCCCBCAC8C7C6C5C475
:101CA000C2C1C0BFBEBDBCBBBAB9B8B7B6B5B4B38C
:101CB000B2B1B0AFAEADACABAAA9A8A8A7A6A5A477
:101CC000A3A3A2A1A09F9F9E9D9C9C9B9A9999983B
:101CD0009797969595949393929191908F8F8E8EDE
:101CE0008D8C8C8B8B8A898988888787868585846B
:101CF00084838382828181800000FF070000F87F57
:101D000051EA030C17D41CF5801F58BFBCF5801F87
:101D100000F10680994218BF704708BF9042704793
:101D200007D711F5801F58BF13F5801F19D49942AA
:101D30007047894270471CF5801F08D5BCF5801F8D
:101D4000F7D58B4218BF704708BF824270474FF4E7
:101D5000001C1CEB410F38BF1CEB430F01D28B4220
:101D6000704770B500F03EF9922449004FF00051E1
:101D70004FF08053FFF75EBEB0FA80F310FA03F124
:101D80000AD0C3F11D0303F580634FEA03524FEA03
:101D9000415002EBD12170474FF000007047000026
:101DA00051EA030C17D41CF5801F58BFBCF5801FE7
:101DB00000F10680994218BF704708BF90427047F3
:101DC00007D711F5801F58BF13F5801F19D499420A
:101DD0007047894270471CF5801F08D5BCF5801FED
:101DE000F7D58B4218BF704708BF824270474FF447
:101DF000001C1CEB410F38BF1CEB430F01D28B4280
:101E0000704770B500F0EEF8922449004FF0805111
:101E10004FF00053FFF70EBE51EA030C17D41CF528
:101E2000801F58BFBCF5801F00F10680994218BF83
:101E3000704708BF9042704707D711F5801F58BF01
:101E400013F5801F19D499427047894270471CF5D9
:101E5000801F08D5BCF5801FF7D58B4218BF70478F
:101E600008BF824270474FF4001C1CEB410F38BF83
:101E70001CEB430F01D28B42704770B500F0B2F8F3
:101E8000922449004FF000514FF08053FFF7D2BD2C
:101E900070B5DFF848C11CEA111E1EBF1CEA1315FD
:101EA0009EEA0C0F95EA0C0F00F06F8081EA0304A4
:101EB0004EEAD47EAE4421EA4C1123EA4C1341F49D
:101EC000801143F48013AEF17F7EA1FB024CA0FB96
:101ED0000365361955EB0C05A1FB034C4CF10003CF
:101EE000A0FB021C16EB0C06654153F100030942EE
:101EF00018BF46F0010613F4007F0BD14FEA0331FF
:101F00004FEA053041EA155140EA165034036FF0AC
:101F100003020AE04FEAC3214FEAC52041EA5551C6
:101F200040EA5650F4026FF0020202EB2E4201EB3F
:101F3000025585EACE710AD05FEA440C18BF24F03E
:101F4000004450F1000041F1000120EAD47040F259
:101F5000FE7C624500D270BDA84214BF4FF08044A1
:101F60004FF04044002E08BF0024BEF1806FA8BF90
:101F7000A1F1C041BDE8704080F2828001F1C04112
:101F800001F000414FF0000070470CEA13159EEA83
:101F90000C0F18BF95EA0C0F06D081EA030E4FF024
:101FA00000000EF0004170BD00F01CF88900013EF9
:101FB00000F007B800F009B84FEA430C5FEA5C5C38
:101FC00008D081EA030100F05BB84FEA410C5FEAF8
:101FD0005C5CF6D102494FF0000070470000FF073B
:101FE0000000F87F0EF1020E2EF0030E5EF8046B77
:101FF000364205D4012A43EB030515F5001F12D81C
:10200000012841EB010C1CF5001F0CD80ED14FEA42
:10201000D17C0CEB4C0C0CF1020C15F5001F08BF29
:102020004CEBD37C04E04FF0080C01E04FEAD37C8A
:102030000CEB4C0526FA05F606F00706B6F1040C83
:1020400006D20EEB860CBDE870404CF0010C6047E8
:10205000DFE80CF0090B02024FF00041A1F500216E
:102060004FF0000070BD19461046012851EB0104E5
:1020700018BFD4F5001484BF002001F0004170BDEA
:102080000808A0F500114FEA3101704710B591EA38
:10209000030F48BF83F000433FF52CAC841A71EB6B
:1020A000030C07D28CF0004C121943EB0C03001BFD
:1020B00061EB0C014FEA1154A4EB135CDFF8A4E1CF
:1020C0001EEA430F18BF9EEA445F00F0B48021EA85
:1020D000045123EA6E035242C3EB6E0338BF5B1E0A
:1020E000DCF1200E25D322FA0CFE10EB0E0043FA91
:1020F0000CFE41EB0E01CCF1200E03FA0EFE10EBAC
:102100000E00CCF1200E51F1000129D401EB045155
:1021100012FA0EF2BDE8104058BF7047401C1CBFB9
:10212000B2F1004F704700280CBF491C20F001009D
:10213000704712EB020E43EB030218BF4FF0010E83
:102140004EEA4202ACF1200CDCF11E0E56D943FAE5
:102150000CFE10EB0E00CCF11E0E51F1FF31D5D567
:102160000EF1010E12FA0EFE404141EB010101EBAE
:10217000445C5FEA5C5C10D901EB045110EBDE704B
:1021800038BFBEF1004FBDE8104018BF70470028AF
:102190000CBF491C20F00100704734D24FEAD42C08
:1021A00024F4006411F500111BD0B1FA81F20B3A4E
:1021B000A41AA41ED2F12003914030FA03F319436C
:1021C000904001EBCC7101EB0451002CBDE81040B4
:1021D000A8BF704701F1C04101F000414FF000007D
:1021E0007047B0FA80F310FA03F102D1BDE8104055
:1021F0007047E41A173C4805C90AE2E701EB0451AD
:10220000BDE81040704749104FEA300001EB04511F
:10221000BDE8104002E04FF0000170474A0008BFDF
:102220000042F8D0B2F5001F28BF704701F000410E
:102230004FF0000070479EEA445F07D011EA5E0F3E
:10224000BDE8104004BF002100207047BDE81040E9
:1022500070B5FFF7C7FE00BF40DFF63E104683F0C3
:10226000004170470000E0FF10B5FFF749FD0CBFCB
:102270000120002010BD10B5FFF742FD14BF012062
:10228000002010BD10B5FFF78BFD8CBF0120002092
:1022900010BD10B5FFF784FD2CBF0120002010BD3C
:1022A00010B5FFF7B9FD94BF0120002010BD10B597
:1022B000FFF7B2FD34BF0120002010BDF1EE100A7F
:1022C0004FF6FF71C0F2C03120EA010040F04070CB
:1022D000E1EE100A7047FEF7F6B800000240000079
:1022E000000000A00000000005400000000000C841
:1022F000000000000C4000000000409C00000000B6
:10230000194000000020BCBE000000003440000066
:10231000BFC91B8E00000004B5400000504BCFD059
:102320006607E2CF010000006C4100003E8251AA26
:10233000DFEEA73401000000D9420000DCB5A0E2C6
:102340003A301F97FFFFFFFFB4450000FD25A0C8EE
:10235000E9A3C14FFFFFFFFFFF3F00000000008027
:1023600000000000FF3F00000000008000000000AF
:10237000B02300080000002008000000D40100087D
:10238000B823000808000020A0060000F0010008A3
:102390001C00000043000000F8FFFFFF0C000000DD
:1023A0000E0000000F0000002E00000000000000E2
:0823B0000024F400000000000D
:040000050800019955
:00000001FF
