:020000040800F2
:100000002807002051020008590200085B0200087E
:100010005D0200085F0200086102000800000000A5
:100020000000000000000000000000006302000863
:10003000650200080000000067020008991400082B
:100040006B0200086B0200086B0200086B020008DC
:100050006B0200086B0200086B0200086B020008CC
:100060006B0200086B0200086B0200086B020008BC
:100070006B0200086B0200086B0200086B020008AC
:100080006B0200086B0200086B0200080000000011
:100090000000000000000000000000006B020008EB
:1000A0006B0200086B0200086B0200086B0200087C
:1000B0006B0200086B0200086B0200086B0200086C
:1000C0006B0200086B0200086B0200086B0200085C
:1000D0006B020008611600084117000800000000CC
:1000E0006B0200086B0200086B02000800000000B1
:1000F0000000000000000000000000006B0200088B
:10010000000000006B0200086B0200086B02000890
:1001100000000000000000000000000000000000DF
:100120006B0200086B0200086B0200086B020008FB
:100130006B0200080000000000000000000000004A
:100140000000000000000000000000006B0200083A
:100150006B0200086B0200086B0200086B020008CB
:100160006B0200086B0200080000000000000000A5
:10017000000000000000000000000000000000007F
:10018000000000006B0200080000000000000000FA
:100190006B0200086B02000800F002F800F049F85A
:1001A0000AA090E8000C82448344AAF10107DA45D2
:1001B00001D100F03EF8AFF2090EBAE80F0013F0DB
:1001C000010F18BFFB1A43F0010318473024000049
:1001D00050240000103A24BF78C878C1FAD85207DA
:1001E00024BF30C830C144BF04680C6070470000B1
:1001F0000023002400250026103A28BF78C1FBD830
:10020000520728BF30C148BF0B607047662902F013
:100210003F81002070471FB502F02DF900F032FB3E
:1002200004000020002102F099F8E0601FBD10B525
:1002300010BD00F043FC1146FFF7EDFF01F0EEFBAF
:1002400000F061FC03B4FFF7F2FF03BC00F0A2FC76
:100250000948804709480047FEE7FEE7FEE7FEE75A
:10026000FEE7FEE7FEE7FEE7FEE7FEE70448054996
:10027000054A064B70470000F11400089901000878
:100280002801002028070020280300202803002040
:100290000FB4044910B503AA029800F0E1FA10BCAB
:1002A0005DF814FB900000202DE9F0474FF0000AA4
:1002B00089460446C0F820A02046E1688847002807
:1002C00076D0252806D0D4E901219047206A401C29
:1002D0002062F1E7E168204600258847C4F81CA0A9
:1002E00006460027C4F818A02A2E09D0304602F08E
:1002F0002DF838B304EB8708303EC8F8186019E0D1
:1003000059F8041B204604EB87029161E168884795
:10031000012F064618D1E069002820DA25F02005D3
:100320001DE0D8F8180000EB800006EB40003038E4
:10033000C8F818002046E1688847064602F006F82B
:100340000028EED1012F0AD02E2E08D12046E168D8
:1003500088477F1C0646022F45F02005C4DBA069B4
:10036000002803DA404245F00105A061E80701D00A
:1003700025F01005B6B1A6F14100192802D82036A3
:1003800045F400654A463146204625604D46FFF754
:100390003DFF58B1012806D0ED1D25F0070000F102
:1003A000080989E704E005F1040985E730468AE792
:1003B000206ABDE8F0870000014901F019BB000088
:1003C0009000002010B5044603E001F011FB401C32
:1003D00009D014F8010B05490028F6D1BDE81040FA
:1003E0000A2001F005BB4FF0FF3010BD9000002047
:1003F0004FF0000200B5134694469646203922BFBE
:10040000A0E80C50A0E80C50B1F12001BFF4F7AF08
:10041000090728BFA0E80C5048BF0CC05DF804EBEA
:10042000890028BF40F8042B08BF704748BF20F858
:10043000022B11F0804F18BF00F8012B7047704756
:10044000704770472DE9FF4F0C461E464FF0FF37AF
:100450008BB0D2E90001DDF860800A908A46C1F3D2
:100460000A5505B93D46002108464FF00000BAF193
:10047000000F00F4400005DA00EB80004FF440016B
:1004800001EA50004FEA9059B9F1010F00DDB94679
:100490000A9850EA4A000ED044F61050A5F2FF35F3
:1004A00045432F14B8F1000F1ED07542291E1EDDE2
:1004B000C9F100021CE0B8F1010F4FF0000001D0BB
:1004C000302103E0F24305E02154401CB042FBDB45
:1004D00030460022002121540B99C1F80880C1E95F
:1004E00000200FB0BDE8F08FBD1B6D1CDEE74A4653
:1004F00000DA694206A800F067FA06AB93E8070045
:1005000003AB83E8070050460A9901F03FFB8DE8F2
:100510000700A0F500501F3800900398002D0ADD59
:1005200042F21F014A460844002303A9039068468B
:1005300001F0A8FD09E0A0F500504A461F3800234D
:1005400003A90390684601F0B2FD8DE8070000049E
:10055000000C03D04FF0FF30410800E01046B8F126
:10056000000F03D00022009215461EE0751E05D430
:1005700000F08CF9303262556D1EF9D5B346012278
:10058000084302D000227F1C04E02078302801D1EB
:1005900000227F1E002A099784D01DE0112D07DA62
:1005A00000F074F9303262556D1C50EA0102F5D149
:1005B000084302D00098C8B10EE00021681E05E093
:1005C000235C625C63542254401E491C8142F7DB69
:1005D000AB46A81B401E0990002004F80B000B98A6
:1005E000099AC0F80880C0E9002B7AE711264FF07D
:1005F000000857E72DE9F04F88460446D21D22F047
:10060000070191B0D1E90001CDE90A0101F086FEB0
:1006100002460B98C00F01D02D2007E0206881070B
:1006200001D52B2002E0202101EAC000032A099015
:1006300001D0072A05DB03464146204600F084F935
:100640000BE12078800601D5E06900E00620B8F1D2
:10065000650F814606D0B8F1660F18D0B8F1670F64
:1006600070D131E00020B9F1110F009001DB1123AE
:1006700001E009F101030AAA01A90CA8FFF7E2FEB3
:10068000DDE90C70002609F10105834647E00120F1
:100690004B4600904FF000470AAA01A90CA8FFF7AB
:1006A000D1FEDDE90DB00C995D46002610B909F1C7
:1006B00001000D18B9EB050003D4C0F1FF3609F1B4
:1006C0000105A5EB09002BE0B9F1010F01DA4FF0AC
:1006D00001090020B9F1110F0090484601DD1123F6
:1006E00000E003460AAA01A90CA8FFF7ABFEDDE96A
:1006F0000C704D4600268346207800070AD4AB458F
:1007000000DA5D4601A8012D04DD411911F8011C34
:10071000302907D04F4502DA17F1040F04DA01201F
:1007200082460FE06D1EEEE7002F02DCED1B3E441B
:1007300003E0781CA84200DD7D1CB81B00F1010A13
:100740004FF000472078000703D4AA4501DB4FF0A3
:10075000FF3A0021B7F1004F0DF143088DF8431027
:1007600024D002202B23002F01DA7F422D230A21DF
:10077000021EA0F1010000DC5FB197FBF1FC97FBCA
:10078000F1F201FB1C7C17460CF1300C08F801CD8E
:10079000EEE7A8F1010003702188090501D5452184
:1007A00000E06521A0F1010800F8011C09980FA9DB
:1007B000A1EB0807FF1D00B10120411901EBEA7010
:1007C000A1693844081A401EA0612078C00602D4EE
:1007D0002046AFF30080099828B1D4E90121904761
:1007E000206A401C20622078C00622D52046AFF344
:1007F00000801EE0002E04DBB34502DD01A8805D11
:1008000000E03020D4E901219047206A401C20629A
:10081000761CAAF101005FEA000A0AD100F032F862
:10082000C0680168405CD4E901219047206A401CFF
:100830002062281EA5F10105DCDC07E0D4E90121D6
:1008400018F8010B9047206A401C2062381EA7F15F
:100850000107F3DC2046AFF30080032011B041E62E
:10086000074B70B50D467B4400F05BF80446284604
:1008700000F01CF910B14FF0FF3070BD204670BD84
:1008800087110000004870474800002030B5B0F1E3
:100890000A0271F100034FEA900E4EEA817EB0EB3E
:1008A0000E0061EB91014FEA101E4EEA017E10EB43
:1008B0000E0041EB11114FEA102E4EEA016E10EBC3
:1008C0000E0041EB11214FEA104E4EEA014E10EBA3
:1008D0000E0041EB1141401841F100014FEAD000F8
:1008E00040EA41704FEAD1014FEA810444EA907432
:1008F00010EB800544EB01046D1944EB0404521B1A
:10090000A3414FF0000348BF0A3200D530BD401C60
:1009100041F1000130BD000001694A1C0261087804
:10092000704700B58FB0CDE901310021059105492F
:100930007944CDE9031011466846FFF7B5FC0FB0C6
:1009400000BD0000E5FFFFFF2DE9F0411F46044612
:1009500003260168072A01F4006004DB08B116A52C
:1009600005E016A503E008B115A500E015A521F0E6
:1009700010002060A069C01EA0610FB1401EA061E0
:100980002046AFF300804FB1D4E9012138469047AB
:10099000206A401C2062C01C206206E0206AFAE740
:1009A000D4E9012115F8010B9047761EF8D22046B4
:1009B000AFF30080BDE8F0814E414E006E616E00E5
:1009C000494E4600696E66002DE9F047814616469D
:1009D0008AB0354878440DC88DE80D003248784417
:1009E000801C03AC0DC884E80D0041F69B30084420
:1009F000372190FBF1F290FBF1F5A5F1800501FBA9
:100A000012041B3C02D56442012000E00020DFF804
:100A100098A080460027FA44AAF1BE0A0EE0E0073B
:100A20000AD03246684607EB470101230AEB8101F1
:100A300001F03DFB8DE8070064107F1C002CEED117
:100A4000194F7F44AE3F19E0E80715D007EB0410BB
:100A50000DF1180A90E80E008AE80E00C068F04216
:100A600001D1981908903246012306A903A801F084
:100A70001EFB03AB83E807006D10641C002DE3D15F
:100A80004FF0010332466946B8F1000F03A802D0C7
:100A900001F0F8FA01E001F00AFBC9E90001C9F828
:100AA00008200AB0BDE8F087381B0000007B00F08A
:100AB0008000704700487047280000207546FFF707
:100AC000F9FFAE4605006946534620F0070085460B
:100AD00018B020B5FFF7CAFBBDE820404FF0000674
:100AE0004FF000074FF000084FF0000BAC46ACE8A9
:100AF000C009ACE8C009ACE8C009ACE8C00921F005
:100B000007018D46704710B50446AFF300802046BC
:100B1000BDE81040FFF796BB30B44FF0013C50F8F1
:100B2000042B51F8043BCCFA52F4D51A20D1FCB96D
:100B300050F8042B51F8043BCCFA52F4D51A17D1D3
:100B4000B4B950F8042B51F8043BCCFA52F4D51A3E
:100B50000ED16CB950F8042B51F8043BCCFA52F486
:100B6000D51A05D1002CDAD030BC4FF00000704708
:100B700029BAB1FA81F111F01801D1F120008440B5
:100B8000F2D1CA40CB4012F0FF0213F0FF0330BC99
:100B9000D01A704701491820ABBEFEE726000200BC
:100BA0007047000070B5054640F60000C4F2020030
:100BB000144685420E460DD040F20040C4F20200B9
:100BC00085420AD00020C4F20200854207D100F01D
:100BD00013FA04E000F024FA01E000F017FA2846C6
:100BE0003146224600F002F870BD000080B5490091
:100BF0004FF0030CD0F800E00CFA01F32EEA0303E7
:100C00000360036802FA01F11943016080BD00002E
:100C100080B549004FF0030CD0F808E00CFA01F35E
:100C20002EEA03038360836802FA01F119438160AD
:100C300080BD000010B54FEA410C4FF0030E8468F0
:100C40000EFA0CFE24EA0E048460846802FA0CF2A8
:100C500022438260012244688A4024EA0202426000
:100C6000426803FA01F111434160C168029A21EA26
:100C70000E01C160C16802FA0CF21143C16010BDDF
:100C800080B549004FF0030CD0F80CE00CFA01F3EA
:100C90002EEA0303C360C36802FA01F11943C1607D
:100CA00080BD000080B54FF0010CD0F814E00CFAC4
:100CB00001F32EEA03034361436902FA01F1194388
:100CC000416180BDD0E902100138CA6A032888BF9B
:100CD0007047013201EE102AB8EE411A21EE000AE7
:100CE000DFE800F00211070CBCEEC00A81ED0D0A2E
:100CF0007047BCEEC00A81ED0F0A7047BCEEC00A17
:100D000081ED100A7047BCEEC00A81ED0E0A7047F3
:100D10002DE9F04381B040F2440816460D460746DF
:100D2000C4F20108C0E9001200F0E2F8D7E9024974
:100D3000284631460222FFF735FF00272846314674
:100D4000022200230097FFF775FFF01706EB5070A3
:100D500020F00700F110301A05EB810180000F220E
:100D600051F8203F824023EA02020A604FF6FF72E8
:100D7000C4F2000294424FF001020BDC40F2FF7318
:100D8000C4F200039C4213DCB4F1804F2BD040F23C
:100D9000004215E044F2FF33C4F201039C4215DC2B
:100DA0000023C4F201039C421DD044F2000215E06E
:100DB00040F60002C4F20002944205D040F6004220
:100DC000C4F20002944213D102220CE044F2004229
:100DD000C4F20102944205D044F60002C4F20102BA
:100DE000944205D103220B6802FA00F01843086010
:100DF00020460121A8F1440500F088FB2068A9F1F4
:100E0000010120F010002060E06A032954D8400856
:100E1000DFE801F002142639A16904F1340221F05F
:100E20007001A161A1696FF0020341F06001A1614D
:100E3000A16941F00801A161012136E0A16904F135
:100E4000380221F4E041A161A1696FF0200341F46F
:100E5000C041A161A16941F40061A161102124E0B8
:100E6000E16904F13C0221F07001E161E1696FF494
:100E7000007341F06001E161E16941F00801E16165
:100E80004FF4807111E0E16904F1400221F4E04186
:100E9000E161E1696FF4005341F4C041E161E1694E
:100EA00041F40061E1614FF480511060206A184004
:100EB0002062206A08432062AC4205D1D8F80000C5
:100EC00040F40040C8F80000206840F001002060B5
:100ED00001B0BDE8F083000080B5806800F098FBA9
:100EE00080BD000080B5806800F0AAFB80BD0000D6
:100EF000D0E9002140F60003C4F202039A4219D05F
:100F000040F20043C4F202039A4220D00023C4F20C
:100F100002039A423CD10F293AD8DFE801F0083A9F
:100F20003939390828393D444B39393939084FF0B6
:100F300080414CE00639032988BF7047DFE801F0A3
:100F4000171C022140F20041C4F200014FE00339B6
:100F500007291DD8DFE801F01D0B10353F040449B7
:100F600040F20041C4F2000101F580613FE040F22F
:100F70000041C4F200012AE040F20041C4F2000145
:100F80002FE040F20041C4F200010422C0E9021245
:100F900070474FF0804124E040F20041C4F200016C
:100FA00001F57C4113E040F20041C4F2000101F57B
:100FB0007C4116E040F20041C4F2000101F57C41A1
:100FC00015E040F20041C4F2000101F58061012208
:100FD000C0E90212704740F20041C4F2000101F57D
:100FE00080610222C0E9021270474FF08041032263
:100FF000C0E902127047000043F63000C4F202005C
:10100000016841F0010101607047000043F63000C3
:10101000C4F20200016841F0020101607047000063
:1010200043F63000C4F20200016841F0040101609F
:101030007047000043F60800C4F20200D0F8F8132D
:1010400021F00F01C0F8F813D0F8F81341F00201B5
:10105000C0F8F81350F8081C41F0010140F8081CD2
:1010600050F8081C8907FBD550F8081C542221F0C1
:10107000807140F8081C50F8041C21F4800140F8ED
:10108000041C50F8041C40F8041C50F8041C62F3C3
:101090008E1140F8041C50F8041C082262F305016C
:1010A00040F8041C50F8041C21F4403140F8041CA2
:1010B00050F8081C41F0807140F8081C50F8081CDA
:1010C0008901FBD4016821F003010160016841F04E
:1010D00002010160016801F00C010829FAD10168E0
:1010E00021F0F0010160016821F4E0510160016824
:1010F00041F480510160016821F46041016040F2D7
:1011000004004BF60051C2F20000C0F20151016030
:101110007047000070B5423840F2000540F2080404
:101120001328C2F20005C2F200040ED8DFE800F076
:101130000A0D110D370D0D0D0D0D3A0D0D0D0D0D87
:101140007F570D5A012028708FE081A0FFF73AF9F0
:101150008BE040F28800C2F2000090ED000AB5EE8C
:10116000400AF1EE10FA40F3808040F21801C2F21A
:10117000000190ED000A91ED001AB4EE410AF1EE83
:1011800010FA72DC40F21401C2F2000191ED000A83
:1011900090ED001A31EE400A80ED000A65E0002073
:1011A000287062E094ED000AB6EE001AB4EE410A2F
:1011B000F1EE10FA59DB94ED000AB0EE041AB4EE29
:1011C000410AF1EE10FA50DA40F20C00C2F20000CF
:1011D00090ED000A94ED001A30EE010A43E002207F
:1011E000287042E040F28800C2F2000090ED000A50
:1011F000B5EE400AF1EE10FA37DB40F21801C2F208
:10120000000190ED000A91ED001AB4EE410AF1EEF2
:1012100010FA2ADA40F21401C2F2000191ED000A3C
:1012200090ED001A30EE010A80ED000A1DE094ED09
:10123000000AB6EE001AB4EE410AF1EE10FA14DD1F
:1012400094ED000AB0EE041AB4EE410AF1EE10FA81
:101250000BDC40F20C00C2F2000090ED000A94EDAD
:10126000001A31EE400A84ED000A2A780020C4F208
:1012700002000421FFF716FD40F21006C2F200063C
:1012800094ED000A96ED001A40F2041080EE010A77
:10129000C2F20000FFF716FD287898B940F28800E6
:1012A000C2F2000090ED000A40F21800C2F2000005
:1012B00090ED001A40F2141080EE010AC2F2000014
:1012C000FFF700FD2878012817D140F28800C2F20C
:1012D000000090ED000A40F21800C2F2000090ED0C
:1012E000001A40F2141080EE010AB7EE001AC2F2A2
:1012F000000031EE400AFFF7E5FC2878022818BF0D
:1013000070BD4FF07F5040F288052060C2F20005AA
:101310000020286094ED000A96ED001A40F20410B7
:1013200080EE010AC2F20000FFF7CCFC40F2180088
:10133000C2F2000095ED000A90ED001A40F2141080
:1013400080EE010AC2F20000FFF7BCFC70BD00BFD6
:101350004552524F52203A2057726F6E6720636F8A
:101360006D6D616E640D0000F0B581B02DED048BE4
:1013700082B040F20007C2F2000704463878B0EEAF
:10138000608AB0EE409A28BB9FED3F0A9FED3F1A5E
:1013900029EE000A9FED3E2A30EE010A30EE020AE5
:1013A00010EE100A00F0F6FF9FED3A0A054628EE0F
:1013B000000A10EE100A0E4600F0ECFF41EC100B94
:1013C00042F26E50C0F600002A4633468DED000B07
:1013D000FEF75EFF3878012825D19FED2B0A9FED9F
:1013E0002B1A29EE000A9FED2A2A30EE010A30EE70
:1013F000020A10EE100A00F0CDFF9FED260A054606
:1014000028EE000A10EE100A0E4600F0C3FF41EC71
:10141000100B42F22850C0F600002A4633468DEDEC
:10142000000BFEF735FF3878022825D19FED160A0C
:101430009FED161A29EE000A9FED152A30EE010ADB
:1014400030EE020A10EE100A00F0A4FF9FED110A20
:10145000054628EE000A10EE100A0E4600F09AFF2C
:1014600041EC100B42F2B450C0F600002A4633465D
:101470008DED000BFEF70CFF204600F0AFFA02B036
:10148000BDEC048B01B0F0BD0000E1C400003442AB
:10149000000034430000C84240F28C00C2F2000059
:1014A0000168002908BF7047016801390160704771
:1014B00080B54EF21001CEF2000100220A600B68E6
:1014C00043F004030B6040F6412358434FF0FF33D1
:1014D00003EB401048608A60086840F00200086032
:1014E000086840F00100086000F068FA80BD000064
:1014F0004EF68850CEF20000016841F470010160A0
:101500004FF0006140F8801C7047000010B50446A1
:1015100040F6FF30C4F20000844219DD43F6FF704C
:10152000C4F2010084422BDC40F60040C4F200000B
:1015300084423AD00020C4F20100844258D143F6DC
:101540004000C4F20200426842F0010242604FE0F3
:10155000B4F1804F32D040F20040C4F20000844227
:101560003ED040F60000C4F20000844240D143F671
:101570004000C4F20200026842F00402026037E058
:1015800044F20000C4F20100844220D044F600007E
:10159000C4F2010084422BD143F64000C4F20200A1
:1015A000426842F48022426022E043F64000C4F2E6
:1015B0000200026842F00802026019E043F64000AF
:1015C000C4F20200026842F00102026010E043F639
:1015D0004000C4F20200426842F48032426007E0F8
:1015E00043F64000C4F20200026842F002020260C8
:1015F000204600F00DF8206820F010002060E06820
:1016000040F00100E060206840F00100206010BD63
:1016100043F60802C4F20202136801EB810103F0F1
:101620000303022B1ABF126840F23F6242F2CF025C
:1016300082624FF0FF3202EB4101C162704700004D
:1016400043F60802C4F202021368013903F00303EF
:10165000022B1ABF12680F2253228262C1627047A6
:10166000B0B541F20004C4F20104204600F0D2F902
:10167000002808BFB0BD204600F046F940F2001532
:10168000C2F20005287020462946012200F070F9B8
:1016900040F22001C2F2000128780A68824240F23A
:1016A000F800C2F200001CBF2A7802702A7809688C
:1016B000914211D10078FFF72DFD40F2FC00C2F2FB
:1016C00000000021016040F21C01C2F2000120462E
:1016D000022200F04DF9B0BD40F2FC0440F22400BB
:1016E000C2F20004C2F200002168026891420BDDE0
:1016F00000212160016840F29400C2F20000FEF770
:1017000077FE07A0FEF7C4FD2878216840F2940216
:10171000C2F200025054206801302060B0BD00BF0A
:101720000A0D20204552524F52203A20546F6F200C
:101730006C6F6E6720737472696E6720200A0D00EB
:10174000B0B544F20044C4F20004204600F062F94F
:10175000002808BFB0BD204600F0D6F840F20115C1
:10176000C2F20005287004F54C402946012200F021
:10177000FFF82878FEF720FE287840F22000C2F219
:1017800000000068B0BD00002DE9F04F81B01746A1
:101790000E460446DDF8288044F20049084611460A
:1017A00002229B46C4F20009FFF7FCF95846414665
:1017B0000222FFF7F7F96FF01F0000EB870306F135
:1017C0002400024609F5504506F12001082FBCBF50
:1017D0000A46BB00AC420CBF4FF0080C4FF0070CA0
:1017E00012680CFA03F3082FB8BF084642EA030157
:1017F0000160B8F1070F4FEA880004DC0CFA00F032
:101800000BF1200104E020380CFA00F00BF1240168
:101810000A68DDF82CA010430860304639460022E3
:10182000FFF72EFA584641460022FFF729FA09F53C
:101830004C4043F64401C4F20201844206D04C45B8
:1018400009D00A6842F020020A600AE00A6842F001
:1018500010020A6005E051F8042C42F4003241F80D
:10186000042CE16826A221F40051E160E1684C45B6
:1018700008BF043292ED000A4FEA0A1201EE102A64
:10188000B8EEC11A21F4806180EE010AE160E168DE
:10189000472521F48051E160E1684C4521F4004185
:1018A000E160216921F440512161BDEEC00AA168C7
:1018B00010EE102A41EA0211A160616941F0C001F5
:1018C0006161E16841F00801E160E16841F0040113
:1018D000E160E16841F02001E16008BF2625844213
:1018E00008BF2525284600F071F8284600F056F874
:1018F000E06840F40050E06001B0BDE8F08F00BF48
:10190000A037A04CA037204C01688906FCD5406860
:10191000C0B27047B0B582B044F2004EC4F2000EBF
:101920008C460EF54C4188424FF000024FF0000308
:1019300008BF062270450EF5DE3508BF0222884238
:1019400008BF03232946704508BF03230EF5504402
:1019500018BF0EF5E031A04202BF29460B220C232E
:1019600000930B46CDF804C0FFF70EFF02B0B0BDE8
:1019700062B14FF0000C00BF03681B06FCD511F8E4
:101980000C300CF1010C94454360F5D10168490617
:10199000FCD5016821F0400101607047C1B200F040
:1019A0001F00012202FA00F04EF20012CEF20002F5
:1019B00042EAD10121F00301086070474EF623503E
:1019C000CEF200000021017070470000E421C0F257
:1019D000E00161F31F2010210170704740F28C017B
:1019E000C2F20001086000BF08680028FCD17047FF
:1019F00010B582B004468DF8070044F20040C4F2EE
:101A000000000DF107010122FFF7B2FF204602B0EE
:101A100010BD0000006800F02000704700F022F8C0
:101A200040F2080440F2100540F2880640F2180720
:101A3000C2F20004C2F20005C2F20006C2F20007C0
:101A400094ED000A95ED001A96ED002A97ED003A04
:101A500080EE010AC2EE030A4FF47A70FFF784FCAD
:101A6000EEE700002DE9F04182B0FFF7E3FA012034
:101A7000FFF71EFD0024C4F20204204600210222CA
:101A8000FFF790F8204606210222FFF78BF8204648
:101A900004210122FFF786F8204600210322FFF7E8
:101AA000B7F8204606210322FFF7B2F840F20415EA
:101AB000C2F20005284621460022FFF729F940F22C
:101AC0001008C2F2000898ED000A2846BCEEC00AD1
:101AD00010EE101AFFF700FA40F21416C2F20006D8
:101AE000304621460622FFF713F940F21807C2F2EA
:101AF000000797ED000A3046BCEEC00A10EE101A3F
:101B0000FFF7F0F940F20800C2F2000090ED000A81
:101B100098ED001A284680EE010AFFF7D3F840F24C
:101B20008800C2F2000090ED000A97ED001A3046DE
:101B300080EE010AFFF7C6F8A4F5DE304FF4164137
:101B4000FFF7E8FE0A21A4F570404FF41657009104
:101B50002146092223460197FFF716FE02A0FEF751
:101B600031FC02B0BDE8F081202020202020202080
:101B7000202048656C6C6F2048616E646F6E672032
:101B80002020202020202020200D00005FEA400C93
:101B900008BF91F0000F4FEA8C234FEAC12243EABD
:101BA00051514FEA1C5018BF00F5F0404FEA300089
:101BB00018BF41F000415FEA6C5C00F02980BCF185
:101BC000FF3F08BF40F080407047130C06BF12046F
:101BD0004FF0100C4FF0000C130E04BF12020CF16A
:101BE000080C130F04BF12010CF1040C930F04BF77
:101BF00092000CF1020CD30F04BF52000CF1010C47
:101C000011464FF00002A0F11F00A0EB0C0070473E
:101C100011F0004F08BF704731F000413FF4D5AFDD
:101C20000B0C06BF09044FF0100C4FF0000C0B0E0C
:101C300004BF09020CF1080C0B0F04BF09010CF1E1
:101C4000040C8B0F04BF89000CF1020CCB0F04BFF6
:101C500049000CF1010CCCF1200322FA03F341EA14
:101C6000030102FA0CF2A0EB0C0000F10100704736
:101C700023F07F4720F07F4C80EA030000F0004013
:101C8000ACEB070303F57C5303F1FF032DE9804917
:101C900009B44FEA144324EA03484FEA154B25EAF6
:101CA0000B4E0FF2042606EB13273E7803FB066764
:101CB000C7F5000707FB06F64FEAD64606F102060F
:101CC0004FEA543707FB066CCCF1005C4FEA1C4727
:101CD0002CEA074C0CFB06F507FB06F404EB154653
:101CE0004FEA961649085FEA320234BF00204FF0EF
:101CF00000404FEAD13706FB07FC4FEA1C4C0CFBB7
:101D00000BF7D21B03FB0CF761EB07010CFB0EF783
:101D1000B0EB074072EB17420CFB08F734BFA2EBA5
:101D20000742B2EB074261EB17414FEA0C444FEA1E
:101D3000910706FB07FC4FEA1C4C0CFB0BF7B0EBC2
:101D4000C74072EB573203FB0CF734BFA2EBC7421C
:101D5000B2EBC74261EB57310CFB0EF7B0EBC7009B
:101D600072EB57720CFB08F734BFA2EBC702B2EB61
:101D7000C70261EB57714FEA816141EA92114FEA64
:101D8000826242EA90124FEA806004EBCC04039F27
:101D90004FEAD13706FB07FC4FEA1C4C0CFB0BF754
:101DA000D21B03FB0CF761EB07010CFB0EF7B0EB4A
:101DB000074072EB17420CFB08F734BFA2EB074257
:101DC000B2EB074261EB17414FEA8C5504EB9C24C0
:101DD0004FEA910706FB07FC4FEA1C4C0CFB0BF784
:101DE000B0EBC74072EB573203FB0CF734BFA2EBEA
:101DF000C742B2EBC74261EB57310CFB0EF7B0EBB9
:101E0000C70072EB57720CFB08F734BFA2EBC70296
:101E1000B2EBC70261EB57714FEA816141EA92115F
:101E20004FEA826242EA90124FEA806015EB4C253D
:101E300044F100044FEAD13706FB07FC4FEA1C4C83
:101E40000CFB0BF7D21B03FB0CF761EB07010CFB40
:101E50000EF7B0EB074072EB17420CFB08F734BFEC
:101E6000A2EB0742B2EB074261EB17414FEA813127
:101E700041EA92414FEA823242EA90424FEA803090
:101E80004FEA0C7615EB1C1544F1000448EA0343B5
:101E90004EEA0B484FF0000EB2EB080C71EB030753
:101EA00024BF624639464EEB0E0E4FF0000B001871
:101EB000524149414BEB0B0BB2EB080C71EB0307A2
:101EC0007BF1000B24BF624639464EEB0E0E4FF0FD
:101ED000000B0018524149414BEB0B0BB2EB080CC5
:101EE00071EB03077BF1000B24BF624639464EEBD2
:101EF0000E0E51EA020718BF46F0010616EB0E76E9
:101F000055F1000254F1000103D5BDE88901BDE897
:101F10000088BDE88901BDE80048B619524141EB8F
:101F20000101A3F10103704780807F7E7D7C7B7A75
:101F30007978777676757473727171706F6E6E6D75
:101F40006C6C6B6A6A69686867666665646463631B
:101F500062616160605F5F5E5E5D5D5C5C5B5B5AA1
:101F60005A5959585857575656555555545453530E
:101F700052525251515050504F4F4F4E4E4D4D4D69
:101F80004C4C4C4B4B4B4A4A4A49494948484847B4
:101F900047474746464645454544444444434343F2
:101FA00043424242424141419C46002B30D477009B
:101FB0002BD04FEA37071CB503B44FF010004FF099
:101FC0001001BAF1000F06D0BCF1000FDCBF40F0E9
:101FD000080040F008014FF000000FBCBDE81040C1
:101FE0000BF1010BBBF1010F08BF5FEA170722BF1E
:101FF00012F1010211F101014FF0004143F1000320
:1020000000F0004043EA00007047F9D35708D0E7DA
:1020100046EA06464FEA164613F1400F1FDD13F15C
:10202000200FDFBF16430A46002120335B42BED09B
:10203000C3F1200746EA06464FEA164602FA07F7BA
:1020400046EA070622FA03F2C3F1200701FA07F76E
:1020500042EA070221FA03F14FF00003A7E746EA3C
:10206000020646EA06464FEA164646EA0106BCBFA5
:1020700046EA0646360C4FF000034FF000024FF0E0
:10208000000194E72DE9804C70B49A46934691E89C
:10209000380007C831EA400C48BF34EA430C03D586
:1020A000FFF7E6FDFFF780FFF0BCBDE8008C2DE9EF
:1020B000804C70B49A46934691E8380007C810F0F7
:1020C000804F08BF13F0804F03D100F005F8FFF7F1
:1020D0006BFFF0BCBDE8008C20F07F4723F07F4C05
:1020E00080EA030000F0004007EB0C03A3F57C53EB
:1020F000A3F1FE0392F0000F00F0B38095F0000F03
:1021000000F077802DE901494FEA114021EA0048AB
:102110004FEA144624EA064700FB06FC08FB06F6D5
:1021200007FB08F818EB06484CEB164C00FB07F7CA
:1021300018EB07484CEB17404FEA124B22EA0B4EC4
:102140004FEA154625EA06470BFB06FC0EFB06F692
:1021500007FB0EFE1EEB064E4CEB164C0BFB07F777
:102160001EEB074E4CEB174B18EB0B0840F1000031
:1021700018EB0E0B58EB000840F100008F1A4FF0DF
:1021800000014FF000063CBFC943661B14BFB5EB0E
:10219000040C00213CBFC943F61B4FEA174427EA51
:1021A00004454FEA1C472CEA074C04FB076205FB79
:1021B00007F70CFB05F616EB074642EB174204FB4C
:1021C0000CFC16EB0C4642EB1C421BEB060658EBD4
:1021D000020241414EEA8E0E46EA9E0601D5BDE856
:1021E0000189B619524141EB0101A3F10103BDE898
:1021F00001894FEA144524EA05464FEA114721EACE
:10220000074C05FB07F406FB07F70CFB06F111EB87
:10221000074144EB174405FB0CFC11EB0C4144EB6C
:102220001C444FEA124722EA074C05FB07F206FB63
:1022300007F70CFB06F616EB074642EB174205FBC9
:102240000CFC16EB0C4642EB1C456A1854F10001DD
:1022500048BF7047B619524141EB0101A3F1010398
:10226000704795F0000F37D04FEA114221EA02463D
:102270004FEA144724EA074C02FB07F106FB07F775
:102280000CFB06F414EB074441EB174102FB0CFC7A
:1022900014EB0C4441EB1C414FEA154725EA074C6F
:1022A00002FB07F506FB07F70CFB06F616EB0746E5
:1022B00045EB174502FB0CFC16EB0C4645EB1C42AC
:1022C000121951F1000148BF7047B619524141EB54
:1022D0000101A3F1010370474FEA144524EA0546C2
:1022E0004FEA114721EA074C05FB07F106FB07F708
:1022F0000CFB06F212EB074241EB174105FB0CFC0D
:1023000012EB0C4251EB1C414FF0000648BF7047E6
:10231000921841EB0101A3F10103704703B4019846
:102320004100009850EAC12018BF04204A0D18BF90
:1023300040F0010040F2FF72B2EB515F08BF40F085
:102340000200012808BF052002B0704730380A2873
:1023500001D20120704700207047000010B500290D
:102360000AD00878002807D005487844FEF7D4FB47
:10237000002801D0002010BD0248784410BD0000A4
:10238000B2020000AA0200000808A0F500114FEAFE
:102390003101704743004FEAD30C4FEA3C0C4340F5
:1023A0001FBF40070CF1605113F0FE4F70471CF047
:1023B000006F03D10CF00041002070470CF0004387
:1023C00043EA507040EACC0010B500F00EF800BFB0
:1023D000000000924FEA0001FFF7D6BF4FF0004126
:1023E000A1F500214FF0000070470EF1020E2EF013
:1023F000030E5EF8044B244204D44FEA4102B2F1CA
:102400007F4F11D84FEA4003B3F17F4F0CD80ED164
:102410004FEAD07C0CEB4C0C0CF1020CB2F17F4F6C
:1024200008BF4CEBD17C04E04FF0080C01E04FEA10
:10243000D17C0CEB4C0324FA03F404F00704B4F150
:10244000040C06D20EEB840CBDE810404CF0010CDD
:102450006047DFE80CF0070802024FF00040A0F5EB
:10246000800010BD0846420018BFD2F1807288BFBC
:1024700000F0004010BDF1EE100A4FF6FF71C0F2FF
:10248000C03120EA010040F04070E1EE100A7047D0
:10249000FEF7B0B802400000000000A000000000FD
:1024A00005400000000000C8000000000C400000D3
:1024B0000000409C00000000194000000020BCBE4D
:1024C0000000000034400000BFC91B8E0000000463
:1024D000B5400000504BCFD06607E2CF01000000AE
:1024E0006C4100003E8251AADFEEA73401000000DB
:1024F000D9420000DCB5A0E23A301F97FFFFFFFF92
:10250000B4450000FD25A0C8E9A3C14FFFFFFFFFB0
:10251000FF3F00000000008000000000FF3F0000BF
:1025200000000080000000005243204361723A3AEC
:1025300020536572766F204D6F746F723A20252E8E
:1025400031665B6465675D20204443204D6F746F86
:102550007220447574793A20252E3166205B7065AF
:102560007263656E745D20204257440D0A00524329
:10257000204361723A3A20536572766F204D6F7432
:102580006F723A20252E31665B6465675D202044BA
:1025900043204D6F746F7220447574793A20252E54
:1025A0003166205B70657263656E745D20204657EE
:1025B000440D0A005243204361723A3A2053657237
:1025C000766F204D6F746F723A20252E31665B64F2
:1025D00065675D20204443204D6F746F7220447501
:1025E00074793A20252E3166205B70657263656EC2
:1025F000745D202053544F500D0A00003826000807
:102600000000002028000000D40100086026000817
:102610002800002000070000F00100081C00000056
:1026200043000000F8FFFFFF0C0000000E00000058
:102630000F0000002E000000020000000024F40043
:102640000000C03F0000003F0000A0410060EA45DC
:102650000060EA460D0A00000D0000000A000000BC
:040000050800019955
:00000001FF
