:020000040800F2
:100000006806002039020008410200084302000887
:1000100045020008470200084902000800000000ED
:100020000000000000000000000000004B0200087B
:100030004D020008000000004F02000851020008B5
:10004000530200085302000853020008530200083C
:10005000530200085302000853020008530200082C
:10006000530200085302000853020008530200081C
:10007000530200085302000853020008530200080C
:100080005302000853020008530200080000000059
:100090000000000000000000000000005302000803
:1000A00053020008530200085302000853020008DC
:1000B00053020008530200085302000853020008CC
:1000C00053020008530200085302000853020008BC
:1000D0005302000853020008530200080000000009
:1000E00053020008530200085302000800000000F9
:1000F00000000000000000000000000053020008A3
:1001000000000000530200085302000853020008D8
:1001100000000000000000000000000000000000DF
:10012000530200085302000853020008530200085B
:100130005302000800000000000000000000000062
:100140000000000000000000000000005302000852
:10015000530200085302000853020008530200082B
:1001600053020008530200080000000000000000D5
:10017000000000000000000000000000000000007F
:100180000000000053020008000000000000000012
:10019000530200085302000800F002F800F03CF897
:1001A0000AA090E8000C82448344AAF10107DA45D2
:1001B00001D100F031F8AFF2090EBAE80F0013F0E8
:1001C000010F18BFFB1A43F0010318475006000047
:1001D00070060000103A24BF78C878C1FAD85207D8
:1001E00024BF30C830C144BF04680C6070470000B1
:1001F0000023002400250026103A28BF78C1FBD830
:10020000520728BF30C148BF0B6070471FB500F0D0
:1002100048FA1FBD10B510BD00F031F81146FFF7C8
:10022000F5FF00F03FF900F04FF803B4FFF7F2FFDD
:1002300003BC00F057F80000094880470948004710
:10024000FEE7FEE7FEE7FEE7FEE7FEE7FEE7FEE786
:10025000FEE7FEE704480549054A064B70470000E3
:100260008904000899010008680000206806002041
:10027000680200206802002070477047704775468A
:1002800000F02CF8AE4605006946534620F0070002
:10029000854618B020B5FFF7DDFFBDE820404FF0E0
:1002A00000064FF000074FF000084FF0000BAC467F
:1002B000ACE8C009ACE8C009ACE8C009ACE8C009CA
:1002C00021F007018D46704710B50446AFF300805A
:1002D0002046BDE81040FFF7A8BF00000048704767
:1002E0000800002001491820ABBEFEE726000200EE
:1002F0007047000070B5054640F60000C4F20200E9
:10030000144685420E460DD040F20040C4F2020071
:1003100085420AD00020C4F20200854207D100F0D5
:100320006DF804E000F082F801E000F073F8284670
:100330003146224600F002F870BD000080B5490049
:100340004FF0030CD0F800E00CFA01F32EEA03039F
:100350000360036802FA01F11943016080BD0000E7
:1003600010B54FEA410C4FF0030E84680EFA0CFEF4
:1003700024EA0E048460846802FA0CF2224382604C
:10038000012244688A4024EA02024260426803FA79
:1003900001F111434160C168029A21EA0E01C16076
:1003A000C16802FA0CF21143C16010BD80B549006A
:1003B0004FF0030CD0F80CE00CFA01F32EEA030323
:1003C000C360C36802FA01F11943C16080BD000037
:1003D0000069012202FA01F10840704780B54FF030
:1003E000010CD0F814E00CFA01F32EEA0303436188
:1003F000436902FA01F11943416180BD80B500F003
:1004000021F843F63000C4F20200016841F0010116
:10041000016080BD80B500F015F843F63000C4F2ED
:100420000200016841F00201016080BD80B500F06A
:1004300009F843F63000C4F20200016841F00401FB
:10044000016080BD43F60800C4F2020050F8081CA9
:1004500041F0010140F8081C50F8081C8907FBD541
:10046000016821F00301016001680160016811F079
:100470000C0FFBD140F2000042F20041C2F200003A
:10048000C0F2F401016070474EF68850CEF20000D1
:10049000016841F4700101604FF0006140F8801C78
:1004A0007047000000F024F840F600044CF6CD46FA
:1004B0000125C4F20204CCF6CC4600BF002700BFE1
:1004C00020460D21FFF784FF002808BF0127F7D041
:1004D000012FF5D1A5FB0601C80800EB8000A5EBB4
:1004E000400000F067F80135092D88BF0025E5E7D9
:1004F000F0B585B0FFF7A6FF0024C4F2020404F5AE
:10050000006528460D2100220027FFF7F3FE082092
:10051000092107220A26CDE90021029005200621A3
:1005200007220623039600F081F828460D210122B8
:10053000FFF73CFF20460521022200230097FFF72A
:100540000FFF20460621022200230097FFF708FF35
:1005500020460721022200230097FFF701FF04F540
:10056000806630460621022200230097FFF7F8FE3E
:1005700028460721022200230097FFF7F1FE2046BC
:100580000921022200230097FFF7EAFE20460821F6
:10059000022200230097FFF7E3FE30460A210222E1
:1005A00000230097FFF7DCFE002000F003F805B001
:1005B000F0BD00002DE9F04140F2BC61C0F6000141
:1005C000420100248A58C4F2020401EB401720467D
:1005D0000521FFF703FF07F1040898E864012046AE
:1005E0000621FFF7FBFE204607212A46FFF7F6FE0D
:1005F00004F58065284606213246FFF7EFFE04F534
:10060000006007214246FFF7E9FE7A69204609218A
:10061000FFF7E4FEBA6920460821FFF7DFFEFA691A
:1006200028460A21FFF7DAFEBDE8F0812DE9F04FF8
:1006300081B00026C4F2020615460F46DDE90C988B
:10064000DDE90ABA0146304601221C46FFF752FE98
:10065000304639460122FFF74DFE30462946012239
:10066000FFF748FE06F58065284621460122FFF780
:1006700041FE06F5006059460122FFF73BFE304679
:1006800051460122FFF736FE304649460122FFF768
:1006900031FE284641460122FFF72CFE01B0BDE89D
:1006A000F08FF1EE100A4FF6FF71C0F2C03120EA70
:1006B000010040F04070E1EE100A704700000000B9
:1006C000000000000000000000000000000000002A
:1006D0000000000001000000010000000100000017
:1006E0000000000000000000010000000100000008
:1006F00001000000010000000100000000000000F7
:1007000000000000010000000000000000000000E8
:1007100001000000000000000100000000000000D7
:1007200000000000000000000000000001000000C8
:1007300001000000000000000100000001000000B6
:1007400000000000000000000100000001000000A7
:100750000000000000000000010000000000000098
:100760000100000000000000000000000100000087
:100770000000000000000000010000000000000078
:100780000100000000000000000000000000000068
:100790000000000000000000010000000000000058
:1007A0000000000000000000010000000100000047
:1007B0000000000001000000010000000000000037
:1007C0000000000000000000000000000000000029
:1007D0000000000000000000010000000000000018
:1007E0000000000000000000000000000100000008
:1007F00000000000000000000100000001000000F7
:1008000001000000010000000100000001000000E4
:100810000100000001000000000000004008000886
:100820000000002008000000D4010008480800086B
:100830000800002060060000F00100080000000031
:080840000024F4000000000098
:040000050800019955
:00000001FF
