:020000040800F2
:10000000800600203902000841020008430200086F
:1000100045020008470200084902000800000000ED
:100020000000000000000000000000004B0200087B
:100030004D020008000000004F02000849070008B8
:10004000530200085302000853020008530200083C
:10005000530200085302000853020008530200082C
:10006000530200085302000853020008530200081C
:10007000530200085302000853020008530200080C
:100080005302000853020008530200080000000059
:100090000000000000000000000000005302000803
:1000A00053020008530200085302000853020008DC
:1000B00053020008530200085302000853020008CC
:1000C00053020008530200085302000853020008BC
:1000D0005302000853020008530200080000000009
:1000E000F502000853020008530200080000000057
:1000F00000000000000000000000000053020008A3
:1001000000000000530200085302000853020008D8
:1001100000000000000000000000000000000000DF
:10012000530200085302000853020008530200085B
:100130005302000800000000000000000000000062
:100140000000000000000000000000005302000852
:10015000530200085302000853020008530200082B
:1001600053020008530200080000000000000000D5
:10017000000000000000000000000000000000007F
:100180000000000053020008000000000000000012
:10019000530200085302000800F002F800F03CF897
:1001A0000AA090E8000C82448344AAF10107DA45D2
:1001B00001D100F031F8AFF2090EBAE80F0013F0E8
:1001C000010F18BFFB1A43F001031847480A00004B
:1001D000680A0000103A24BF78C878C1FAD85207DC
:1001E00024BF30C830C144BF04680C6070470000B1
:1001F0000023002400250026103A28BF78C1FBD830
:10020000520728BF30C148BF0B6070471FB500F0D0
:1002100044FC1FBD10B510BD00F031F81146FFF7CA
:10022000F5FF00F013FB00F04FF803B4FFF7F2FF07
:1002300003BC00F057F80000094880470948004710
:10024000FEE7FEE7FEE7FEE7FEE7FEE7FEE7FEE786
:10025000FEE7FEE704480549054A064B70470000E3
:10026000B1070008990100088000002080060020E6
:10027000800200208002002070477047704775465A
:1002800000F02CF8AE4605006946534620F0070002
:10029000854618B020B5FFF7DDFFBDE820404FF0E0
:1002A00000064FF000074FF000084FF0000BAC467F
:1002B000ACE8C009ACE8C009ACE8C009ACE8C009CA
:1002C00021F007018D46704710B50446AFF300805A
:1002D0002046BDE81040FFF7A8BF00000048704767
:1002E0001000002001491820ABBEFEE726000200E6
:1002F0007047000080B50D2000F09EFA002808BF6E
:1003000080BD0D2000F082FA40F27000C2F20000C1
:1003100001210160002000F085FA80BD2DE9F04147
:100320000D4643F64401C4F2020198460B6843F4BB
:1003300080430B60A0F18041A1F5023303F5006119
:100340004FEAB12643F60801072EC4F2010100F27C
:10035000A880DFE806F004203E617EA6A6950C2664
:1003600025F0030406EA850E4FF00F0C0E590CFA27
:100370000EF726EA07070F5103F580660F594FEA7B
:10038000B626062E0F5100F28C80DFE806F004221C
:1003900045628A8A79000C2725F0030407EA85075D
:1003A0004FF00F0C51F804E00CFA07F62EEA06069F
:1003B0000E514FF0010C0E590CFA07F74FEAB32318
:1003C0003743052B0F516CD8DFE803F00326436B4E
:1003D0006B5A0C2325F0030603EA85030F278C597B
:1003E0009F4024EA07078F5102278C5907FA03F32D
:1003F00041F60047C4F202072343B8428B513FD075
:1004000041F20003C4F20203984222D040F60043B6
:10041000C4F20203984244D10C2325F0030603EAF8
:1004200085030F278C599F4024EA07078F51032724
:100430008C5907FA03F341F60047C4F2020723433D
:10044000B8428B511CD041F20003C4F2020398421F
:1004500027D10C2325F0030603EA85030F278C59C7
:100460009F4024EA07078F5104278C5907FA03F3AA
:1004700041F60047C4F202072343B8428B5110D122
:100480000C2025F0030700EA85000F23CE59834096
:1004900026EA0303CB510723CE5903FA00F0304379
:1004A000C851022A0AD0012A15D0EAB90120D1F890
:1004B0000024A8401043C1F8000415E00120D1F841
:1004C0000024A8400243C1F8002443F60C42C4F2C1
:1004D0000102136806E043F60C42C4F20102012057
:1004E0001368A84018431060D1F8F803042D40F4B5
:1004F0000050C1F8F80313D80626DFE805F00A0318
:1005000005070900072604E0082602E0092600E0A6
:100510000A263046414600F069F9304600F056F9A7
:10052000681F042806D81720414600F05FF91720FD
:1005300000F04CF9A5F10A00052888BFBDE8F0815C
:100540002820414600F052F9282000F03FF9BDE88C
:10055000F081000070B5054640F60000C4F20200CC
:10056000144685420E460DD040F20040C4F202000F
:1005700085420AD00020C4F20200854207D100F073
:1005800055F804E000F066F801E000F059F828465C
:100590003146224600F002F870BD000080B54900E7
:1005A0004FF0030CD0F800E00CFA01F32EEA03033D
:1005B0000360036802FA01F11943016080BD000085
:1005C00010B54FEA410C4FF0030E84680EFA0CFE92
:1005D00024EA0E048460846802FA0CF222438260EA
:1005E000012244688A4024EA02024260426803FA17
:1005F00001F111434160C168029A21EA0E01C16014
:10060000C16802FA0CF21143C16010BD80B54FF011
:10061000010CD0F814E00CFA01F32EEA0303436155
:10062000436902FA01F11943416180BD43F630008C
:10063000C4F20200016841F001010160704700004E
:1006400043F63000C4F20200016841F0020101608B
:100650007047000043F63000C4F20200016841F028
:10066000040101607047000043F60800C4F2020074
:10067000D0F8F81321F00F01C0F8F813D0F8F813F0
:1006800041F00201C0F8F81350F8081C41F00101D4
:1006900040F8081C50F8081C8907FBD550F8081CC6
:1006A000542221F0807140F8081C50F8041C21F4F9
:1006B000800140F8041C50F8041C40F8041C50F859
:1006C000041C62F38E1140F8041C50F8041C08222C
:1006D00062F3050140F8041C50F8041C21F4403179
:1006E00040F8041C50F8081C41F0807140F8081CC8
:1006F00050F8081C8901FBD4016821F00301016056
:10070000016841F002010160016801F00C01082953
:10071000FAD1016821F0F0010160016821F4E05193
:100720000160016841F480510160016821F4604179
:10073000016040F200004BF60051C2F20000C0F22E
:10074000015101607047000040F27800C2F20000E1
:100750000168002908BF70470168013901607047CE
:1007600080B54EF21001CEF2000100220A600B6843
:1007700043F004030B6040F6412358434FF0FF332E
:1007800003EB401048608A60086840F0020008608F
:10079000086840F00100086000F030F880BD0000FB
:1007A0004EF21800CEF200000021016070470000F8
:1007B0004EF68850CEF20000016841F470010160ED
:1007C0004FF0006140F8801C70470000C1B200F09B
:1007D0001F00012202FA00F04EF20012CEF20002D7
:1007E00042EAD10121F0030108607047E422C0F21F
:1007F000E002090162F31F20017070474EF623509A
:10080000CEF20000002101707047000043F6144250
:10081000C4F201020121136801FA00F018431060CC
:100820007047000040F27801C2F20001086000BF8A
:1008300008680028FCD1704743F61441C4F2010156
:10084000096821FA00F000F00100704700F038F864
:1008500040F27C044CF6CD4840F2040640F27007AA
:1008600040F27409C2F20004CCF6CC48C2F2000691
:10087000C2F200070025C2F200094FF0010A00BFD2
:10088000FFF78EFF2068A0FB0812D10801EB810161
:10089000A0EB410000F08AF83068FFF7C3FF38682A
:1008A00030B920680130206020680A2828BF256000
:1008B00038680128E4D1C9F800A025603D60DFE771
:1008C0002DE9F04F85B0FFF7CFFE40F20800C2F2ED
:1008D00000000068FFF744FF0024C4F2020404F59E
:1008E000006528460D21012200230027FFF716FD91
:1008F0004FF00A084FF008094FF0090A4FF0070BB4
:100900000520062107220623CDE900BACDF808907C
:10091000CDF80C8000F086F8204605210222002345
:100920000097FFF74DFE2046062102220023009784
:10093000FFF746FE20460721022200230097FFF71B
:100940003FFE04F580663046062102220023009710
:10095000FFF736FE28460721022200230097FFF703
:100960002FFE20460921022200230097FFF728FED0
:1009700020460821022200230097FFF721FE30467F
:100980000A21022200230097FFF71AFE0520062104
:1009900007220623CDE900BACDF80890CDF80C80E7
:1009A00000F040F805B0BDE8F08F00002DE9F041FF
:1009B00040F6B421C0F60001420100248A58C4F276
:1009C000020401EB401720460521FFF71FFE07F147
:1009D000040898E8640120460621FFF717FE204628
:1009E00007212A46FFF712FE04F5806528460621F6
:1009F0003246FFF70BFE04F5006007214246FFF781
:100A000005FE7A6920460921FFF700FEBA692046F3
:100A10000821FFF7FBFDFA6928460A21FFF7F6FDDA
:100A2000BDE8F0812DE9F04F81B00026C4F2020646
:100A300015460F46DDE90C98DDE90ABA0146304655
:100A400001221C46FFF786FD304639460122FFF79A
:100A500081FD304629460122FFF77CFD06F58065C1
:100A6000284621460122FFF775FD06F5006059462C
:100A70000122FFF76FFD304651460122FFF76AFD64
:100A8000304649460122FFF765FD284641460122CE
:100A9000FFF760FD01B0BDE8F08FF1EE100A4FF6F0
:100AA000FF71C0F2C03120EA010040F04070E1EE79
:100AB000100A704700000000000000000000000065
:100AC0000000000000000000000000000100000025
:100AD0000100000001000000000000000000000014
:100AE0000100000001000000010000000100000002
:100AF00001000000000000000000000001000000F4
:100B000000000000000000000100000000000000E4
:100B100001000000000000000000000000000000D4
:100B200000000000010000000100000000000000C3
:100B300001000000010000000000000000000000B3
:100B400001000000010000000000000000000000A3
:100B50000100000000000000010000000000000093
:100B60000000000001000000000000000000000084
:100B70000100000000000000010000000000000073
:100B80000000000000000000000000000000000065
:100B90000100000000000000000000000000000054
:100BA0000100000001000000000000000100000042
:100BB0000100000000000000000000000000000034
:100BC0000000000000000000000000000000000025
:100BD0000100000000000000000000000000000014
:100BE0000000000001000000000000000000000004
:100BF00001000000010000000100000001000000F1
:100C000001000000010000000100000001000000E0
:100C100000000000380C0008000000201000000058
:100C2000D4010008480C00081000002070060000E5
:100C3000F0010008000000000024F400E8030000B8
:080C40000100000000000000AB
:040000050800019955
:00000001FF
