:020000040800F2
:100000008806002049020008510200085302000837
:1000100055020008570200085902000800000000BD
:100020000000000000000000000000005B0200086B
:100030005D020008000000005F0200086102000885
:1000400063020008630200086302000863020008FC
:1000500063020008630200086302000863020008EC
:1000600063020008630200086302000863020008DC
:1000700063020008630200086302000863020008CC
:100080006302000863020008630200080000000029
:1000900000000000000000000000000063020008F3
:1000A000630200086302000863020008630200089C
:1000B000630200086302000863020008630200088C
:1000C000630200086302000863020008630200087C
:1000D00063020008630200086302000800000000D9
:1000E00063020008630200086302000800000000C9
:1000F0000000000000000000000000006302000893
:1001000000000000630200086302000863020008A8
:1001100000000000000000000000000000000000DF
:10012000630200086302000863020008630200081B
:100130006302000800000000000000000000000052
:100140000000000000000000000000006302000842
:1001500063020008630200086302000863020008EB
:1001600063020008630200080000000000000000B5
:10017000000000000000000000000000000000007F
:100180000000000063020008000000000000000002
:10019000630200086302000800F002F800F045F86E
:1001A0000AA090E8000C82448344AAF10107DA45D2
:1001B00001D100F03AF8AFF2090EBAE80F0013F0DF
:1001C000010F18BFFB1A43F001031847A0060000F7
:1001D000C0060000103A24BF78C878C1FAD8520788
:1001E00024BF30C830C144BF04680C6070470000B1
:1001F0000023002400250026103A28BF78C1FBD830
:10020000520728BF30C148BF0B6070471FB500F0D0
:100210001FFB9DE8030000F0E5F800F03DF81FBD6E
:1002200010B5002000F014F910BD00F038F91146A7
:10023000FFF7ECFF00F0FAFA00F070F903B4FFF7F3
:10024000EFFF03BC00F0A8F80948804709480047C1
:10025000FEE7FEE7FEE7FEE7FEE7FEE7FEE7FEE776
:10026000FEE7FEE704480549054A064B70470000D3
:10027000FD0600089901000888000020880600207B
:1002800088020020880200200B460146184600F034
:100290006BB870477047704770B5064C7C44064D8C
:1002A0007D4404E02046016808448047241DAC4298
:1002B000F8D170BDEC050000EC05000070B50646F5
:1002C00000F070F8056806F10B0020F00704B44256
:1002D0009CBF002070BD2B466A68BAB11068A0426E
:1002E00010D304F1080188423CBF5068586007D31E
:1002F0005168101941601168091B01605860146051
:10030000101D70BD13465268002AE7D121462846C9
:1003100000F054F80028DED170BD70B50446051F0A
:1003200000F040F80068002C14BF446870BD002C39
:1003300018BFAC423CBF20466468F8D301680A1875
:10034000AA4218BF456003D12A68054611440160DE
:1003500028684119A1421CBF6C6070BD616869606A
:1003600021680844286070BD2DE9F0410746154614
:100370000E461020FFF7A2FF04000AD06760C4E910
:10038000026500F013F80168216004600020BDE8F8
:10039000F0810120FBE7000001491820ABBEFEE719
:1003A00026000200004870471000002000487047F7
:1003B00040000020704770477047704738B50446CA
:1003C0000A4600206946AFF30080002808BF38BD08
:1003D00002460099204600F087F8012038BD012030
:1003E00000F0AAB8F8B5AFF30080054600200C462F
:1003F000102000BF0646A819A0420DD93246694612
:100400000020AFF30080070008BF00F095F80098C7
:10041000A04218BF0546C419FFF7C4FF0560074690
:10042000F01D20F007004619284600F00AF8B442F3
:1004300008BFF8BDA21B31463868BDE8F84000F09F
:1004400053B800210160C0E90110704710207047C7
:100450002DE9F0410646FFF7A9FF8046454613E027
:1004600016B1E068B0420ED120682860D4E90101DD
:10047000D8F8007088472046FFF74FFFD8F80000F3
:10048000B842EBD100E025462C68002CE8D1BDE84D
:10049000F081000000487047080000207047754652
:1004A000FFF7F8FFAE4605006946534620F0070007
:1004B000854618B020B5FFF7D5FEBDE820404FF0C7
:1004C00000064FF000074FF000084FF0000BAC465D
:1004D000ACE8C009ACE8C009ACE8C009ACE8C009A8
:1004E00021F007018D467047034640688C4600287E
:1004F00018BF88423CBF03464068F8D318681844C8
:10050000884207D00CF1030020F00700001D411ABB
:10051000521A0146081D0A60FFF7FFBE10B50446D7
:10052000AFF300802046BDE81040FFF787BE0028EB
:1005300001D0FFF731BF704710B500F01DF8BDE8DE
:100540001040FFF7F4BF70B505460C460A2000E0E6
:100550006D1C00F039F835B128780028F8D102E098
:10056000641C00F031F814B120780028F8D1BDE8FF
:1005700070400A2000F028B810B5012805D00021ED
:1005800003A0FFF7E0FF012010BD09A1F8E700007C
:1005900053494752544D454D3A204F7574206F666C
:1005A0002068656170206D656D6F727900000000D4
:1005B0003A2048656170206D656D6F727920636FB8
:1005C000727275707465640008B569468DF8000034
:1005D0000320ABBE08BD000070B5054640F6000024
:1005E000C4F20200144685420E460DD040F200408F
:1005F000C4F2020085420AD00020C4F20200854203
:1006000007D100F035F804E000F04AF801E000F00E
:100610003BF828463146224600F002F870BD000043
:1006200080B549004FF0030CD0F800E00CFA01F35C
:100630002EEA03030360036802FA01F11943016023
:1006400080BD00000069012202FA01F108407047F4
:1006500080B54FF0010CD0F814E00CFA01F32EEA4B
:1006600003034361436902FA01F11943416180BD0B
:1006700080B500F021F843F63000C4F202000168B2
:1006800041F00101016080BD80B500F015F843F62E
:100690003000C4F20200016841F00201016080BD37
:1006A00080B500F009F843F63000C4F2020001689A
:1006B00041F00401016080BD43F60800C4F202006D
:1006C00050F8081C41F0010140F8081C50F8081CC3
:1006D0008907FBD5016821F0030101600168016011
:1006E000016811F00C0FFBD140F2000042F2004112
:1006F000C2F20000C0F2F401016070474EF688506B
:10070000CEF20000016841F4700101604FF0006119
:1007100040F8801C7047000080B500F055F800F0EC
:100720006DF880BD10B5044600686168FFF78AFF68
:10073000E06010BDF0B581B014460D46064608468F
:10074000114600220027FFF747FFC6E90054304654
:10075000B76001B0F0BD000010B504460068002885
:1007600018BF00F02CF8204610BD000080B5FFF740
:10077000D9FF80BD80B5D0E900238C4610461946CC
:100780006246FFF765FF80BDF0B581B014460D46A7
:1007900006460846114601220127FFF71DFFC6E95C
:1007A00000543046B76001B0F0BD000010B50446FB
:1007B0000068002818BF00F002F8204610BDAFF313
:1007C0000080FFF7AABD000010B540F26804C2F235
:1007D000000440F60001C4F2020120460D22FFF79A
:1007E000A9FF40F2597040F20002C0F60000C0F6C6
:1007F00000022146FFF748FD10BD000010B540F291
:100800007804C2F200040021C4F20201204605224D
:10081000FFF7BAFF40F2AD7040F20002C0F60000F0
:10082000C0F600022146FFF72FFD10BD40F268041C
:1008300040F27805C2F20004C2F200052046FFF73C
:1008400095FFB0FA80F041092846FFF793FFF5E7DE
:10085000F1EE100A4FF6FF71C0F2C03120EA01003C
:1008600040F04070E1EE100A704700009008000868
:100870000000002008000000D401000898080008CB
:100880000800002080060000F00100088DFEFFFF38
:080890000024F4000000000048
:040000050800019955
:00000001FF
