:020000040800F2
:10000000780600203D02000845020008470200086B
:10001000490200084B0200084D02000800000000E1
:100020000000000000000000000000004F02000877
:1000300051020008000000005302000849070008B0
:10004000570200085702000857020008570200082C
:10005000570200085702000857020008570200081C
:10006000570200085702000857020008570200080C
:1000700057020008570200085702000857020008FC
:10008000570200085702000857020008000000004D
:1000900000000000000000000000000057020008FF
:1000A00057020008570200085702000857020008CC
:1000B00057020008570200085702000857020008BC
:1000C00057020008570200085702000857020008AC
:1000D00057020008570200085702000800000000FD
:1000E00057020008570200085702000800000000ED
:1000F000000000000000000000000000570200089F
:1001000000000000570200085702000857020008CC
:1001100000000000000000000000000000000000DF
:10012000570200085702000857020008570200084B
:10013000570200080000000000000000000000005E
:10014000000000000000000000000000570200084E
:10015000570200085702000857020008570200081B
:1001600057020008570200080000000000000000CD
:10017000000000000000000000000000000000007F
:10018000000000005702000800000000000000000E
:10019000570200085702000800F002F800F03EF88D
:1001A0000AA090E8000C82448344AAF10107DA45D2
:1001B00001D100F033F8AFF2090EBAE80F0013F0E6
:1001C000010F18BFFB1A43F0010318470C0A000087
:1001D0002C0A0000103A24BF78C878C1FAD8520718
:1001E00024BF30C830C144BF04680C6070470000B1
:1001F0000023002400250026103A28BF78C1FBD830
:10020000520728BF30C148BF0B6070471FB500F0D0
:1002100026FC00F037F81FBD10B510BD00F044F803
:100220001146FFF7F3FF00F075FB00F062F803B42E
:10023000FFF7F2FF03BC00F06BF8000009488047AD
:1002400009480047FEE7FEE7FEE7FEE7FEE7FEE7B8
:10025000FEE7FEE7FEE7FEE704480549054A064BD0
:1002600070470000B10700089901000878000020DD
:10027000780600207802002078020020704770473E
:100280007047000070B5064C7C44064D7D4404E088
:100290002046016808448047241DAC42F8D170BD57
:1002A0006C0900006C090000754600F02BF8AE46A2
:1002B00005006946534620F00700854618B020B572
:1002C000FFF7CAFFBDE820404FF000064FF00007DF
:1002D0004FF000084FF0000BAC46ACE8C009ACE8AA
:1002E000C009ACE8C009ACE8C00921F007018D469F
:1002F000704710B50446AFF300802046BDE81040BB
:10030000FFF795BF004870470800002070470000C5
:1003100001491820ABBEFEE7260002002DE9F0419E
:100320000D4643F64401C4F2020198460B6843F4BB
:1003300080430B60A0F18041A1F5023303F5006119
:100340004FEAB12643F60801072EC4F2010100F27C
:10035000A880DFE806F004203E617EA6A6950C2664
:1003600025F0030406EA850E4FF00F0C0E590CFA27
:100370000EF726EA07070F5103F580660F594FEA7B
:10038000B626062E0F5100F28C80DFE806F004221C
:1003900045628A8A79000C2725F0030407EA85075D
:1003A0004FF00F0C51F804E00CFA07F62EEA06069F
:1003B0000E514FF0010C0E590CFA07F74FEAB32318
:1003C0003743052B0F516CD8DFE803F00326436B4E
:1003D0006B5A0C2325F0030603EA85030F278C597B
:1003E0009F4024EA07078F5102278C5907FA03F32D
:1003F00041F60047C4F202072343B8428B513FD075
:1004000041F20003C4F20203984222D040F60043B6
:10041000C4F20203984244D10C2325F0030603EAF8
:1004200085030F278C599F4024EA07078F51032724
:100430008C5907FA03F341F60047C4F2020723433D
:10044000B8428B511CD041F20003C4F2020398421F
:1004500027D10C2325F0030603EA85030F278C59C7
:100460009F4024EA07078F5104278C5907FA03F3AA
:1004700041F60047C4F202072343B8428B5110D122
:100480000C2025F0030700EA85000F23CE59834096
:1004900026EA0303CB510723CE5903FA00F0304379
:1004A000C851022A0AD0012A15D0EAB90120D1F890
:1004B0000024A8401043C1F8000415E00120D1F841
:1004C0000024A8400243C1F8002443F60C42C4F2C1
:1004D0000102136806E043F60C42C4F20102012057
:1004E0001368A84018431060D1F8F803042D40F4B5
:1004F0000050C1F8F80313D80626DFE805F00A0318
:1005000005070900072604E0082602E0092600E0A6
:100510000A263046414600F0D9F9304600F0C6F9C7
:10052000681F042806D81720414600F0CFF917208D
:1005300000F0BCF9A5F10A00052888BFBDE8F081EC
:100540002820414600F0C2F9282000F0AFF9BDE8AC
:10055000F081000070B5054640F60000C4F20200CC
:10056000144685420E460DD040F20040C4F202000F
:1005700085420AD00020C4F20200854207D100F073
:1005800055F804E000F066F801E000F059F828465C
:100590003146224600F002F870BD000080B54900E7
:1005A0004FF0030CD0F800E00CFA01F32EEA03033D
:1005B0000360036802FA01F11943016080BD000085
:1005C00010B54FEA410C4FF0030E84680EFA0CFE92
:1005D00024EA0E048460846802FA0CF222438260EA
:1005E000012244688A4024EA02024260426803FA17
:1005F00001F111434160C168029A21EA0E01C16014
:10060000C16802FA0CF21143C16010BD80B54FF011
:10061000010CD0F814E00CFA01F32EEA0303436155
:10062000436902FA01F11943416180BD43F630008C
:10063000C4F20200016841F001010160704700004E
:1006400043F63000C4F20200016841F0020101608B
:100650007047000043F63000C4F20200016841F028
:10066000040101607047000043F60800C4F2020074
:10067000D0F8F81321F00F01C0F8F813D0F8F813F0
:1006800041F00201C0F8F81350F8081C41F00101D4
:1006900040F8081C50F8081C8907FBD550F8081CC6
:1006A000542221F0807140F8081C50F8041C21F4F9
:1006B000800140F8041C50F8041C40F8041C50F859
:1006C000041C62F38E1140F8041C50F8041C08222C
:1006D00062F3050140F8041C50F8041C21F4403179
:1006E00040F8041C50F8081C41F0807140F8081CC8
:1006F00050F8081C8901FBD4016821F00301016056
:10070000016841F002010160016801F00C01082953
:10071000FAD1016821F0F0010160016821F4E05193
:100720000160016841F480510160016821F4604179
:10073000016040F200004BF60051C2F20000C0F22E
:10074000015101607047000040F26800C2F20000F1
:100750000168002908BF70470168013901607047CE
:1007600080B54EF21001CEF2000100220A600B6843
:1007700043F004030B6040F6412358434FF0FF332E
:1007800003EB401048608A60086840F0020008608F
:10079000086840F00100086000F0A0F880BD00008B
:1007A0004EF21800CEF200000021016070470000F8
:1007B0004EF68850CEF20000016841F470010160ED
:1007C0004FF0006140F8801C7047000080B500F0D9
:1007D0008DF880BDF0B585B0FFF746FF0024C4F268
:1007E000020404F5006528460D210122002300279C
:1007F000FFF794FD0820092107220A26CDE90021F0
:1008000002900520062107220623039600F0ECF84B
:1008100020460521022200230097FFF7D1FE204643
:100820000621022200230097FFF7CAFE2046072177
:10083000022200230097FFF7C3FE04F580663046CE
:100840000621022200230097FFF7BAFE284607215F
:10085000022200230097FFF7B3FE2046092102225F
:1008600000230097FFF7ACFE204608210222002358
:100870000097FFF7A5FE30460A21022200230097C9
:10088000FFF79EFE05B0F0BD80B5084600F038F8D1
:1008900080BD000080B5FFF783FF80BD10B5044622
:1008A0000846FFF75DFF204610BD0000C1B200F012
:1008B0001F00012202FA00F04EF20012CEF20002F6
:1008C00042EAD10121F0030108607047E422C0F23E
:1008D000E002090162F31F20017070474EF62350B9
:1008E000CEF20000002101707047000080B540F298
:1008F0007000C2F200000121FFF7D0FF80BD0000B0
:1009000040F26801C2F20001086000BF08680028D8
:10091000FCD17047FFF75EFF40F26C054CF6CD4608
:1009200040F2040740F27004C2F20005CCF6CC4657
:10093000C2F20007C2F200044FF000082868A0FBD2
:100940000612D10801EB8101A0EB410000F010F884
:1009500039682046FFF798FF28680130286028682A
:100960000A28204608BFC5F80080FFF793FFE5E797
:100970002DE9F04140F67821C0F600014201002443
:100980008A58C4F2020401EB401720460521FFF704
:100990003DFE07F1040898E8640120460621FFF7B0
:1009A00035FE204607212A46FFF730FE04F5806514
:1009B000284606213246FFF729FE04F5006007218C
:1009C0004246FFF723FE7A6920460921FFF71EFE03
:1009D000BA6920460821FFF719FEFA6928460A215C
:1009E000FFF714FEBDE8F0812DE9F04F81B000263D
:1009F000C4F2020615460F46DDE90C98DDE90ABA95
:100A00000146304601221C46FFF7A4FD3046394618
:100A10000122FFF79FFD304629460122FFF79AFD8C
:100A200006F58065284621460122FFF793FD06F56D
:100A3000006059460122FFF78DFD304651460122E4
:100A4000FFF788FD304649460122FFF783FD28461F
:100A500041460122FFF77EFD01B0BDE8F08FF1EEC7
:100A6000100A4FF6FF71C0F2C03120EA010040F0D9
:100A70004070E1EE100A7047000000000000000026
:100A80000000000000000000000000000000000066
:100A90000100000001000000010000000000000053
:100AA0000000000001000000010000000100000043
:100AB0000100000001000000000000000000000034
:100AC0000100000000000000000000000100000024
:100AD0000000000001000000000000000000000015
:100AE0000000000000000000010000000100000004
:100AF00000000000010000000100000000000000F4
:100B000000000000010000000100000000000000E3
:100B100000000000010000000000000001000000D3
:100B200000000000000000000100000000000000C4
:100B300000000000010000000000000001000000B3
:100B400000000000000000000000000000000000A5
:100B50000000000001000000000000000000000094
:100B60000000000001000000010000000000000083
:100B70000100000001000000000000000000000073
:100B80000000000000000000000000000000000065
:100B90000000000001000000000000000000000054
:100BA0000000000000000000010000000000000044
:100BB0000000000001000000010000000100000032
:100BC0000100000001000000010000000100000021
:100BD0000100000000000000000C000800000020E0
:100BE00008000000D4010008080C000808000020DC
:100BF00070060000F0010008D5FBFFFF00000000B8
:080C00000024F400E8030000E9
:040000050800019955
:00000001FF
