:020000040800F2
:10000000F8060020390200084102000843020008F7
:1000100045020008470200084902000800000000ED
:100020000000000000000000000000004B0200087B
:100030004D020008000000004F02000845050008BE
:10004000530200085302000853020008530200083C
:10005000530200085302000853020008530200082C
:10006000530200085302000853020008530200081C
:10007000530200085302000853020008530200080C
:100080005302000853020008530200080000000059
:100090000000000000000000000000005302000803
:1000A00053020008530200085302000853020008DC
:1000B00053020008530200085302000853020008CC
:1000C00053020008530200085302000853020008BC
:1000D00053020008B905000865060008000000008A
:1000E00053020008530200085302000800000000F9
:1000F00000000000000000000000000053020008A3
:1001000000000000530200085302000853020008D8
:1001100000000000000000000000000000000000DF
:10012000530200085302000853020008530200085B
:100130005302000800000000000000000000000062
:100140000000000000000000000000005302000852
:10015000530200085302000853020008530200082B
:1001600053020008530200080000000000000000D5
:10017000000000000000000000000000000000007F
:100180000000000053020008000000000000000012
:10019000530200085302000800F002F800F03CF897
:1001A0000AA090E8000C82448344AAF10107DA45D2
:1001B00001D100F031F8AFF2090EBAE80F0013F0E8
:1001C000010F18BFFB1A43F0010318470C09000088
:1001D0002C090000103A24BF78C878C1FAD8520719
:1001E00024BF30C830C144BF04680C6070470000B1
:1001F0000023002400250026103A28BF78C1FBD830
:10020000520728BF30C148BF0B6070471FB500F0D0
:1002100056FC1FBD10B510BD00F074F81146FFF775
:10022000F5FF00F093FB00F092F803B4FFF7F2FF44
:1002300003BC00F099F800000948804709480047CE
:10024000FEE7FEE7FEE7FEE7FEE7FEE7FEE7FEE786
:10025000FEE7FEE704480549054A064B70470000E3
:100260009D05000899010008F8000020F80600200C
:10027000F8020020F8020020014900F051BB000004
:100280007400002010B5044603E000F049FB401C58
:1002900009D014F8010B05490028F6D1BDE810403B
:1002A0000A2000F03DBB4FF0FF3010BD740000206D
:1002B0004FF0000200B5134694469646203922BFFF
:1002C000A0E80C50A0E80C50B1F12001BFF4F7AF4A
:1002D000090728BFA0E80C5048BF0CC05DF804EB2C
:1002E000890028BF40F8042B08BF704748BF20F89A
:1002F000022B11F0804F18BF00F8012B7047704798
:1003000070477047754600F02BF8AE460500694609
:10031000534620F00700854618B020B5FFF79AFF36
:10032000BDE820404FF000064FF000074FF00008F6
:100330004FF0000BAC46ACE8C009ACE8C009ACE833
:10034000C009ACE8C00921F007018D46704710B51F
:100350000446AFF300802046BDE81040FFF765BFBC
:10036000004870471000002001491820ABBEFEE78E
:10037000260002007047000070B5054640F60000F8
:10038000C4F20200144685420E460DD040F20040F1
:10039000C4F2020085420AD00020C4F20200854265
:1003A00007D100F041F804E000F052F801E000F05D
:1003B00045F828463146224600F002F870BD00009C
:1003C00080B549004FF0030CD0F800E00CFA01F3BF
:1003D0002EEA03030360036802FA01F11943016086
:1003E00080BD000080B549004FF0030CD0F80CE050
:1003F0000CFA01F32EEA0303C360C36802FA01F1A9
:100400001943C16080BD000080B54FF0010CD0F8E9
:1004100014E00CFA01F32EEA03034361436902FA84
:1004200001F11943416180BD43F63000C4F202007E
:10043000016841F0010101607047000043F630009F
:10044000C4F20200016841F002010160704700003F
:1004500043F63000C4F20200016841F0040101607B
:100460007047000043F60800C4F20200D0F8F81309
:1004700021F00F01C0F8F813D0F8F81341F0020191
:10048000C0F8F81350F8081C41F0010140F8081CAE
:1004900050F8081C8907FBD550F8081C542221F09D
:1004A000807140F8081C50F8041C21F4800140F8C9
:1004B000041C50F8041C40F8041C50F8041C62F39F
:1004C0008E1140F8041C50F8041C082262F3050148
:1004D00040F8041C50F8041C21F4403140F8041C7E
:1004E00050F8081C41F0807140F8081C50F8081CB6
:1004F0008901FBD4016821F003010160016841F02A
:1005000002010160016801F00C010829FAD10168BB
:1005100021F0F0010160016821F4E05101600168FF
:1005200041F480510160016821F46041016040F2B2
:1005300000004BF60051C2F20000C0F20151016010
:100540007047000040F27000C2F20000016800290C
:1005500008BF7047016801390160704780B54EF2ED
:100560001001CEF2000100220A600B6843F0040380
:100570000B6040F6412358434FF0FF3303EB40102C
:1005800048608A60086840F002000860086840F02F
:100590000100086000F0AAF980BD00004EF6885006
:1005A000CEF20000016841F4700101604FF000617B
:1005B00040F8801C70470000B0B541F20004C4F25E
:1005C0000104204600F0BEF9002808BFB0BD204657
:1005D00000F032F940F2F005C2F2000540F20401E9
:1005E0002870C2F200012878096840F2E0048142D4
:1005F000C2F2000408D140F27800C2F200000121EA
:10060000016000202060B0BD40F20800C2F200008E
:100610002168026891420BDD00212160016840F2EF
:100620007C00C2F20000FFF743FE07A0FFF72AFE9E
:100630002878216840F27C02C2F2000250542068FF
:1006400001302060B0BD00BF4552524F52203A20C9
:10065000546F6F206C6F6E6720737472696E670DD4
:1006600000000000B0B544F20044C4F2000420468B
:1006700000F068F9E0B1204600F0DEF840F2F10544
:10068000C2F20005287004F54C402946012200F012
:1006900007F92878FFF7F0FD40F20401C2F20001EB
:1006A00028780968814218BFB0BD02A0FFF7EAFDB3
:1006B000B0BD00BF0D0000002DE9F04F81B017461E
:1006C0000E460446DDF8288044F2004908461146EB
:1006D00002229B46C4F20009FFF74EFE58464146EF
:1006E0000222FFF749FE6FF01F0000EB870306F1BF
:1006F0002400024609F5504506F12001082FBCBF31
:100700000A46BB00AC420CBF4FF0080C4FF0070C80
:1007100012680CFA03F3082FB8BF084642EA030137
:100720000160B8F1070F4FEA880004DC0CFA00F012
:100730000BF1200104E020380CFA00F00BF1240149
:100740000A68DDF82CA010430860304639460022C4
:10075000FFF748FE584641460022FFF743FE09F5E1
:100760004C4043F64401C4F20201844206D04C4599
:1007700009D00A6842F020020A600AE00A6842F0E2
:1007800010020A6005E051F8042C42F4003241F8EE
:10079000042CE16826A221F40051E160E1684C4597
:1007A00008BF043292ED000A4FEA0A1201EE102A45
:1007B000B8EEC11A21F4806180EE010AE160E168BF
:1007C000472521F48051E160E1684C4521F4004166
:1007D000E160216921F440512161BDEEC00AA168A8
:1007E00010EE102A41EA0211A160616941F0C001D6
:1007F0006161E16841F00801E160E16841F00401F4
:10080000E160E16841F02001E16008BF26258442F3
:1008100008BF2525284600F071F8284600F056F854
:10082000E06840F40050E06001B0BDE8F08F00BF28
:10083000A037A04CA037204C01688906FCD5406841
:10084000C0B27047B0B582B044F2004EC4F2000EA0
:100850008C460EF54C4188424FF000024FF00003E9
:1008600008BF062270450EF5DE3508BF0222884219
:1008700008BF03232946704508BF03230EF55044E3
:1008800018BF0EF5E031A04202BF29460B220C230F
:1008900000930B46CDF804C0FFF70EFF02B0B0BDC9
:1008A00062B14FF0000C00BF03681B06FCD511F8C5
:1008B0000C300CF1010C94454360F5D101684906F8
:1008C000FCD5016821F0400101607047C1B200F021
:1008D0001F00012202FA00F04EF20012CEF20002D6
:1008E00042EAD10121F00301086070474EF623501F
:1008F000CEF200000021017070470000E421C0F238
:10090000E00161F31F2010210170704740F2700177
:10091000C2F20001086000BF08680028FCD17047DF
:1009200010B582B004468DF8070044F20040C4F2CE
:1009300000000DF107010122FFF7B2FF204602B0CF
:1009400010BD0000006800F0200070470024C4F2D1
:10095000020400F085F838A0FFF794FC40F2780B11
:1009600040F27C0A40F2E40540F2E80740F2EC086D
:10097000C2F2000BC2F2000A4FF00009C2F20005F9
:10098000C2F20007C2F2000804F5806618E02EA04B
:10099000FFF778FCCBF800902A6820460621FFF785
:1009A00033FD3A6820460721FFF72EFDD8F80020D6
:1009B00030460621FFF728FD4FF4FA70FFF7A6FF37
:1009C000DBF800000128E7D19AF800004C28E3D1B9
:1009D0009AF8010030380728D9D8DFE800F004077A
:1009E0000B0F131A2127C5F800900DE00120C5F860
:1009F000009010E00120C5F8009013E00120C5F838
:100A0000009015E001202860C7F80090C8F8009019
:100A1000C0E701202860C7F80090C8F80000B9E7D7
:100A2000012028603860C8F80090B3E701202860F2
:100A30003860C8F80000ADE748656C6C6F204E75F3
:100A4000636C656F0D0000004552524F52203A20F2
:100A500057726F6E6720636F6D6D616E640D00007D
:100A600010B582B0FFF7FEFC0120FFF777FD0024F0
:100A7000C4F20204A4F5DE304FF41641FFF7E2FEA3
:100A80000A21A4F570404FF4165C0091214609221A
:100A90002346CDF804C0FFF70FFE204606210122B1
:100AA000FFF76AFC204607210122FFF765FC04F5E9
:100AB000806006210122FFF75FFC02B010BDF1EE5D
:100AC000100A4FF6FF71C0F2C03120EA010040F079
:100AD0004070E1EE100A7047F80A0008000000209C
:100AE00010000000D4010008080B000810000020CE
:100AF000E8060000F00100080024F4000D000000EA
:080B00000A00000000000000E3
:040000050800019955
:00000001FF
