:020000040800F2
:100000009806002039020008410200084302000857
:1000100045020008470200084902000800000000ED
:100020000000000000000000000000004B0200087B
:100030004D020008000000004F020008C50800083B
:10004000530200085302000853020008530200083C
:10005000530200085302000853020008530200082C
:10006000530200085302000853020008530200081C
:10007000530200085302000853020008530200080C
:100080005302000853020008530200080000000059
:100090000000000000000000000000005302000803
:1000A00053020008530200085302000853020008DC
:1000B00053020008530200085302000853020008CC
:1000C00053020008530200085302000853020008BC
:1000D0005302000853020008530200080000000009
:1000E000F502000853020008530200080000000057
:1000F00000000000000000000000000053020008A3
:1001000000000000530200085302000853020008D8
:1001100000000000000000000000000000000000DF
:10012000530200085302000853020008530200085B
:100130005302000800000000000000000000000062
:100140000000000000000000000000005302000852
:10015000530200085302000853020008530200082B
:1001600053020008530200080000000000000000D5
:10017000000000000000000000000000000000007F
:100180000000000053020008000000000000000012
:10019000530200085302000800F002F800F03CF897
:1001A0000AA090E8000C82448344AAF10107DA45D2
:1001B00001D100F031F8AFF2090EBAE80F0013F0E8
:1001C000010F18BFFB1A43F001031847D4080000C1
:1001D000F4080000103A24BF78C878C1FAD8520752
:1001E00024BF30C830C144BF04680C6070470000B1
:1001F0000023002400250026103A28BF78C1FBD830
:10020000520728BF30C148BF0B6070471FB500F0D0
:1002100009FC1FBD10B510BD00F031F81146FFF705
:10022000F5FF00F0C5FB00F04FF803B4FFF7F2FF55
:1002300003BC00F057F80000094880470948004710
:10024000FEE7FEE7FEE7FEE7FEE7FEE7FEE7FEE786
:10025000FEE7FEE704480549054A064B70470000E3
:100260001509000899010008980000209806002050
:10027000980200209802002070477047704775462A
:1002800000F02CF8AE4605006946534620F0070002
:10029000854618B020B5FFF7DDFFBDE820404FF0E0
:1002A00000064FF000074FF000084FF0000BAC467F
:1002B000ACE8C009ACE8C009ACE8C009ACE8C009CA
:1002C00021F007018D46704710B50446AFF300805A
:1002D0002046BDE81040FFF7A8BF00000048704767
:1002E0000800002001491820ABBEFEE726000200EE
:1002F0007047000080B50D2000F050FB002808BFBB
:1003000080BD00F0C3FA0D2000F032FB80BD00007C
:1003100043F60042C4F201020121136801FA00F021
:10032000184310607047000070B543F64405C4F2EE
:10033000020500F13E400C46296800F1FF7043F6CB
:10034000080C4FEAB020C4F2010C41F480410728A8
:10035000296000F27480DFE800F00418303F4E722C
:10036000725D0C2024F0030500EA84004FF00F0EAC
:100370005CF805100EFA00F021EA00004CF80500C8
:100380005CF805004CF8050059E00C2024F003054A
:1003900000EA84004FF00F0E5CF805600EFA00F1E1
:1003A00026EA01014CF8051001215CF8056001FA0C
:1003B00000F030434CF8050041E00C2024F0030627
:1003C00000EA84000F215CF80650814025EA010113
:1003D0004CF8061002212BE00C2024F0030600EA62
:1003E00084000F215CF80650814025EA01014CF899
:1003F000061003211CE00C2024F0030600EA840010
:100400000F215CF80650814025EA01014CF80610E6
:1004100004210DE00C2024F0030600EA84000F21E3
:100420005CF80650814025EA01014CF806100721CE
:100430005CF8065001FA00F028434CF80600022A46
:100440000AD0012A15D0EAB90120DCF80014A04036
:100450000843CCF8000415E00120DCF80014A040AB
:100460000143CCF8001443F60C41C4F201010A68C0
:1004700006E043F60C41C4F2010101200A68A040E5
:1004800010430860DCF8F803042C40F40050CCF86A
:10049000F8030DD80625DFE804F01203050709006C
:1004A00007250CE008250AE0092508E00A2506E0F2
:1004B0000A2C01D2172502E00F2C07D82825284640
:1004C000194600F045FA284600F032FA2046FFF7B8
:1004D0001FFF70BD70B5054640F60000C4F2020073
:1004E000144685420E460DD040F20040C4F2020090
:1004F00085420AD00020C4F20200854207D100F0F4
:1005000055F804E000F066F801E000F059F82846DC
:100510003146224600F002F870BD000080B5490067
:100520004FF0030CD0F800E00CFA01F32EEA0303BD
:100530000360036802FA01F11943016080BD000005
:1005400010B54FEA410C4FF0030E84680EFA0CFE12
:1005500024EA0E048460846802FA0CF2224382606A
:10056000012244688A4024EA02024260426803FA97
:1005700001F111434160C168029A21EA0E01C16094
:10058000C16802FA0CF21143C16010BD80B54FF092
:10059000010CD0F814E00CFA01F32EEA03034361D6
:1005A000436902FA01F11943416180BD43F630000D
:1005B000C4F20200016841F00101016070470000CF
:1005C00043F63000C4F20200016841F0020101600C
:1005D0007047000043F63000C4F20200016841F0A9
:1005E000040101607047000043F60800C4F20200F5
:1005F000D0F8F81321F00F01C0F8F813D0F8F81371
:1006000041F00201C0F8F81350F8081C41F0010154
:1006100040F8081C50F8081C8907FBD550F8081C46
:10062000542221F0807140F8081C50F8041C21F479
:10063000800140F8041C50F8041C40F8041C50F8D9
:10064000041C62F38E1140F8041C50F8041C0822AC
:1006500062F3050140F8041C50F8041C21F44031F9
:1006600040F8041C50F8081C41F0807140F8081C48
:1006700050F8081C8901FBD4016821F003010160D6
:10068000016841F002010160016801F00C010829D4
:10069000FAD1016821F0F0010160016821F4E05114
:1006A0000160016841F480510160016821F46041FA
:1006B000016040F200004BF60051C2F20000C0F2AF
:1006C000015101607047000070B582B0DDE908ECAF
:1006D000DDE9066540F26C04C2F20004206061604E
:1006E000A260E36026616561C4F818E0C4F81CC02C
:1006F000206861680122FFF7EDFEA068E168012231
:10070000FFF7E8FE206961690122FFF7E3FEA069B7
:10071000E1690122FFF7DEFE206861680025022200
:1007200000230095FFF70CFFA068E1680222002378
:100730000095FFF705FF20696169022200230095FB
:10074000FFF7FEFEA069E169022200230095FFF792
:10075000F7FE02B070BD0000B0B540F26C04C2F20A
:10076000000439B1012918BFB0BD236800EB400077
:1007700011A106E0236840F6402100EB4000C0F6DE
:10078000000111F820506168C5F3C0021846FFF758
:10079000FDFEA068E168C5F38002FFF7F7FE20695F
:1007A0006169C5F34002FFF7F1FEA069E16905F058
:1007B0000102FFF7EBFEB0BD0C00000001000000DD
:1007C000030000000600000002000000000000001E
:1007D0000300000003000000010000000900000009
:1007E0000000000002000000012904D0002918BF09
:1007F00070470C2100E00B21884048F20071C0F2E4
:100800009331B1FBF0F040F29001C2F200010860B8
:10081000704700002DE9F04381B040F26C074FF0C3
:100820000008C2F20007002A08BF4FF0070838622C
:10083000386A012A08BF4FF0030801284FF000066C
:1008400021DB40F2900914460D46C2F2000910E087
:10085000013EB8BF464630462146FFF77DFFD9F836
:10086000000000F091F8386A01383862386A0028D0
:1008700009DD012DECD0002DEDD100204645B8BF9B
:10088000701C0646E7E701B0BDE8F08310B540F202
:100890006C04C2F200040020206220686168226AB1
:1008A000FFF774FEA068E168226AFFF76FFE206917
:1008B0006169226AFFF76AFEA069E169226AFFF7AF
:1008C00065FE10BD40F26800C2F200000168002918
:1008D00008BF7047016801390160704780B54EF26A
:1008E0001001CEF2000100220A600B6843F00403FD
:1008F0000B6054235843013848608A60086840F010
:1009000002000860086840F00100086000F028F864
:1009100080BD00004EF68850CEF20000016841F420
:10092000700101604FF0006140F8801C70470000CA
:10093000C1B200F01F00012202FA00F04EF20012D4
:10094000CEF2000242EAD10121F0030108607047B3
:10095000E422C0F2E002090162F31F200170704737
:100960004EF62350CEF200000021017070470000C7
:1009700043F61442C4F201020121136801FA00F0A7
:10098000184310607047000040F26801C2F2000195
:10099000086000BF08680028FCD1704743F6144186
:1009A000C4F20101096821FA00F000F0010070476B
:1009B00000F00EF84FF4006000210122FFF72AFF3B
:1009C0004FF4006001210122FFF724FFFEE7000041
:1009D000B0B584B0FFF708FE0120FFF77FFF40F2BB
:1009E0000044C4F2020404F5806528460D2100226B
:1009F000FFF770FD28460D2101220023FFF794FC2C
:100A000005200325CDE9004020460A212246042383
:100A100002940395FFF758FE08200121FFF7E4FE3A
:100A200004B0B0BDF1EE100A4FF6FF71C0F2C03154
:100A300020EA010040F04070E1EE100A704700002B
:100A40000800000001000000070000000C0000008A
:100A5000020000000000000004000000030000008D
:100A60000100000006000000040000000200000079
:100A70000200000005000000030000000300000069
:100A80000600000004000000010000000700000054
:100A90000500000009000000000000000600000042
:100AA000C00A00080000002008000000D40100086F
:100AB000C80A00080800002090060000F0010008A5
:080AC0000024F4000000000016
:040000050800019955
:00000001FF
