:020000040800F2
:100000008806002041020008490200084B0200084F
:100010004D0200084F0200085102000800000000D5
:100020000000000000000000000000005302000873
:10003000550200080000000057020008910A00085D
:100040005B0200085B0200085B0200085B0200081C
:100050005B0200085B0200085B0200085B0200080C
:100060005B0200085B0200085B0200085B020008FC
:100070005B0200085B0200085B0200085B020008EC
:100080005B0200085B020008390500080000000060
:100090000000000000000000000000005B020008FB
:1000A0005B0200085B0200085B0200085B020008BC
:1000B0005B0200085B0200085B0200085B020008AC
:1000C0005B0200085B0200085B0200085B0200089C
:1000D0005B0200085B0200085B02000800000000F1
:1000E0005B0200085B0200085B02000800000000E1
:1000F0000000000000000000000000005B0200089B
:10010000000000005B0200085B0200085B020008C0
:1001100000000000000000000000000000000000DF
:100120005B0200085B0200085B0200085B0200083B
:100130005B0200080000000000000000000000005A
:100140000000000000000000000000005B0200084A
:100150005B0200085B0200085B0200085B0200080B
:100160005B0200085B0200080000000000000000C5
:10017000000000000000000000000000000000007F
:10018000000000005B02000800000000000000000A
:100190005B0200085B02000800F002F800F041F882
:1001A0000AA090E8000C82448344AAF10107DA45D2
:1001B00001D100F036F8AFF2090EBAE80F0013F0E3
:1001C000010F18BFFB1A43F0010318479C0E0000F3
:1001D000BC0E0000103A24BF78C878C1FAD8520784
:1001E00024BF30C830C144BF04680C6070470000B1
:1001F0000023002400250026103A28BF78C1FBD830
:10020000520728BF30C148BF0B607047642900F017
:100210007780002070471FB500F018FF1FBD10B594
:1002200010BD00F04FF91146FFF7F5FF00F0D8FDC3
:1002300000F06DF903B4FFF7F2FF03BC00F074F9AE
:100240000948804709480047FEE7FEE7FEE7FEE76A
:10025000FEE7FEE7FEE7FEE7FEE7FEE704480549A6
:10026000054A064B70470000E90A0008990100089A
:1002700088000020880600208802002088020020D4
:100280000FB4044910B503AA029800F0EDF810BCB1
:100290005DF814FB7C0000202DE9F0410E46044679
:1002A000002020622046E168884730B3252805D029
:1002B000D4E901219047206A401CF2E7E16820461A
:1002C00000278847050018D0A5F14100192802D859
:1002D00020354FF400673246294620462760FFF755
:1002E00095FF40B1012804D0F61D26F00706083618
:1002F000D8E7361DD6E72846DAE7206ABDE8F08160
:100300002DE9F0410646002410687529314616A5EE
:1003100010D0AFF30080002802DA404213A507E0B6
:1003200031688A0701D512A502E0490704D511A555
:10033000012401E0AFF3008000210A2206F1240726
:1003400009E0B0FBF2FCB0FBF2F302FB1C00303022
:1003500078541846491C0028F3D123462A463046D3
:10036000BDE8F04100F027B8000000002D000000BB
:100370002B00000020000000014900F00FBD00002C
:100380007C00002010B5044603E000F007FD401C8F
:1003900009D014F8010B05490028F6D1BDE810403A
:1003A0000A2000F0FBBC4FF0FF3010BD7C000020A5
:1003B0007047704770472DE9F0470D4699469246C1
:1003C000044600F124080168880604D5E06921F09C
:1003D0001001216000E00120A84201DD471B00E080
:1003E0000027A1697A1902EB0900081AA061207898
:1003F000C00602D42046AFF30080002608E0D4E90E
:1004000001211AF806009047206A401C761C2062E1
:100410004E45F4DB2078C0060AD52046AFF30080B5
:1004200006E0D4E9012130209047206A401C206278
:10043000381EA7F10107F4DC07E0D4E9012118F820
:1004400005009047206A401C2062281EA5F1010586
:10045000F3DC2046AFF300802078000602D50220AE
:10046000BDE8F0870120FBE7074B70B50D467B44E4
:1004700000F011F80446284600F020F810B14FF0C3
:10048000FF3070BD204670BD2B09000001694A1C79
:1004900002610878704700B58FB0CDE901310021C5
:1004A000059105497944CDE9031011466846FFF7E7
:1004B000F3FE0FB000BD0000E5FFFFFF007B00F082
:1004C00080007047754600F02BF8AE46050069467F
:1004D000534620F00700854618B020B5FFF7BEFE52
:1004E000BDE820404FF000064FF000074FF0000835
:1004F0004FF0000BAC46ACE8C009ACE8C009ACE872
:10050000C009ACE8C00921F007018D46704710B55D
:100510000446AFF300802046BDE81040FFF78ABED6
:10052000004870471000002001491820ABBEFEE7CC
:10053000260002007047000080B500F049FC00284A
:1005400018BF00F017FC00F03BFC002808BF80BD7E
:1005500040F28400C2F20000018839B1018801290B
:100560000ED140F27401C2F2000103E040F27001CA
:10057000C2F2000142F24C02C4F2010212680A60A7
:100580000188B1FA81F14909018080BD2DE9F0416E
:10059000054642F2080740F20040C4F20107C4F2E7
:1005A00000004FF00074854208BF4FF000643868C7
:1005B000B5F1804F20F002003860386808BF4FF076
:1005C000C06440F480603860284690460E4600F0D3
:1005D00099FA2868314620F001002860284600F08A
:1005E00013FB6868B8F1020F20F07000686068685B
:1005F00040F040006860A86920F07000A861A86918
:1006000040F06000A861286A40F001002862E86AB2
:100610004FEA50006863286840F00100286038689D
:1006200020F070603860386840EA0400386038684C
:1006300020F04050386088BFBDE8F081386808F18C
:10064000010140EA01703860BDE8F08142F2040126
:10065000C4F201014A6838B122F00200486008681B
:1006600040F480700860704742F0020048600868FB
:1006700020F48070086070472DE9F04142F20404D4
:1006800090460E460746C4F2010400F081F8054684
:1006900038463146032200F025F93846314600221B
:1006A00000F056F943F64400C4F202000168092D37
:1006B00041F480710160D4F8000320F44030C4F8A4
:1006C0000003D4F80003C4F80003206820F0407051
:1006D00020600EDC05EB45000721E268814022EA3C
:1006E0000101E1600421E26801FA00F01043E060DA
:1006F0001AE046F26760C6F2666055FB00F08110B2
:1007000001EBD07000EB8000A5EB400000EB400057
:100710000721E268814022EA0101E1600421A26828
:1007200001FA00F01043A060606805F01F0120F09E
:1007300002006060206840F480702060606820F4EF
:1007400000606060A06A20F47000A062206B20F05E
:100750001F002063206B08432063206820F02000E6
:100760002060206840F02000206000F0EBFA00F0EC
:10077000D9FAB8F1010F18BFBDE8F08140F200408E
:10078000C4F2000001210022FFF700FFBDE8F08164
:1007900040F60002C4F20202904214D040F200423D
:1007A000C4F20202904214D00022C4F2020290422B
:1007B00018BF7047082905D2C8B2F32222FA00F008
:1007C000C00710D1FEE7062902D201F10A007047E6
:1007D000FEE7002904BF08207047012904BF092053
:1007E000704700BFFEE702A050F82100704700BF2D
:1007F00000000000010000000000000000000000F8
:1008000004000000050000000600000007000000D2
:1008100070B542F22C0EC4F2010EDEF80020012861
:1008200022F47002CEF8002040F20002CFF6F072FF
:10083000DEF8003002EB005242EA0302CEF800205C
:10084000B8BF70BD00234FF01F0C002214E000BFA2
:10085000DEF808400CFA03F5AC43CEF8084051F836
:100860002240DEF808509C402C43CEF8084001326C
:10087000904203F105032AD0052AE9D90B2A13D89F
:10088000A3F11E04DEF804500CFA04F6B543CEF8CA
:10089000045051F82250DEF8046005FA04F43443A1
:1008A000CEF80440E3E700BFA3F13C04DEF80050BB
:1008B0000CFA04F6B543CEF8005051F82250DEF899
:1008C000006005FA04F43443CEF80040CFE770BD71
:1008D000816841F001018160816841F0804181605F
:1008E0007047000070B5054640F60000C4F20200F3
:1008F000144685420E460DD040F20040C4F202007C
:1009000085420AD00020C4F20200854207D100F0DF
:1009100031F804E000F042F801E000F035F8284634
:100920003146224600F002F870BD000080B5490053
:100930004FF0030CD0F800E00CFA01F32EEA0303A9
:100940000360036802FA01F11943016080BD0000F1
:1009500080B549004FF0030CD0F80CE00CFA01F31D
:100960002EEA0303C360C36802FA01F11943C160B0
:1009700080BD000043F63000C4F20200016841F07F
:10098000010101607047000043F63000C4F202002C
:10099000016841F0020101607047000043F6300039
:1009A000C4F20200016841F00401016070470000D8
:1009B00043F60800C4F20200D0F8F81321F00F014A
:1009C000C0F8F813D0F8F81341F00201C0F8F8139A
:1009D00050F8081C41F0010140F8081C50F8081CB0
:1009E0008907FBD550F8081C542221F0807140F88B
:1009F000081C50F8041C21F4800140F8041C50F835
:100A0000041C40F8041C50F8041C62F38E1140F8DA
:100A1000041C50F8041C082262F3050140F8041C71
:100A200050F8041C21F4403140F8041C50F8081C14
:100A300041F0807140F8081C50F8081C8901FBD473
:100A4000016821F003010160016841F002010160C9
:100A5000016801F00C010829FAD1016821F0F001C8
:100A60000160016821F4E0510160016841F48051A6
:100A70000160016821F46041016040F200004BF622
:100A80000051C2F20000C0F2015101607047000045
:100A900040F27800C2F200000168002908BF7047E8
:100AA000016801390160704780B54EF21001CEF245
:100AB000000100220A600B6843F004030B6040F65B
:100AC000412358434FF0FF3303EB401048608A60E6
:100AD000086840F002000860086840F00100086003
:100AE00000F038F980BD00004EF68850CEF20000CC
:100AF000016841F4700101604FF0006140F8801C12
:100B00007047000010B5044640F6FF30C4F2000004
:100B1000844219DD43F6FF70C4F2010084422BDCED
:100B200040F60040C4F2000084423AD00020C4F2F3
:100B30000100844258D143F64000C4F202004268EA
:100B400042F0010242604FE0B4F1804F32D040F2F7
:100B50000040C4F2000084423ED040F60000C4F2DF
:100B60000000844240D143F64000C4F20200026813
:100B700042F00402026037E044F20000C4F20100D7
:100B8000844220D044F60000C4F2010084422BD1FC
:100B900043F64000C4F20200426842F48022426000
:100BA00022E043F64000C4F20200026842F008026C
:100BB000026019E043F64000C4F20200026842F00D
:100BC0000102026010E043F64000C4F202004268F5
:100BD00042F48032426007E043F64000C4F2020073
:100BE000026842F002020260204600F00DF8206820
:100BF00020F010002060E06840F00100E060206814
:100C000040F00100206010BD43F60802C4F2020269
:100C1000136801EB810103F00303022B1ABF126872
:100C200040F23F6242F2CF0282624FF0FF3202EBAB
:100C30004101C1627047000080B543F63000C4F244
:100C40000200016941F2171241F4003101610168AB
:100C500041F0010101600020C4F20200016821F0AE
:100C6000F0010160016841F0A0010160016A41F4F6
:100C7000EE410162816841F0F0018160C16821F0BC
:100C8000F001C160C16841F05001C160416821F0CC
:100C90000C01416044F20C40C4F20000016821F4F0
:100CA00000510160016821F480510160016821F464
:100CB00080610160416821F440514160016821F484
:100CC0000041016050F8041C114340F8041C016805
:100CD00041F00C010160816841F0C0018160016850
:100CE00041F020010160016841F40051016000F011
:100CF00039F800F01FF880BD62B14FF0000C00BF62
:100D000003681B06FCD511F80C300CF1010C94455E
:100D10004360F5D101684906FCD5016821F0400126
:100D2000016070474EF20010CEF200004FF48021B7
:100D3000016070474EF20410CEF2000040210160C5
:100D4000704700004EF21240CEF2000020210170E8
:100D5000704700004EF62350CEF2000000210170D3
:100D6000704700004EF22640CEF2000010210170C4
:100D70007047000042F20000C4F20100016821F057
:100D8000200101607047000040F27801C2F20001CA
:100D9000086000BF08680028FCD1704710B582B019
:100DA00004468DF8070044F20040C4F200000DF143
:100DB00007010122FFF7A0FF204602B010BD00008E
:100DC00042F20000C4F20100006800F00200704727
:100DD00042F20000C4F20100006800F020007047F9
:100DE00000F072F89FED280B40F2700440F280058D
:100DF00040F20C0640F2740751EC100BC2F20004F2
:100E0000C2F20005C2F20006C2F200070FF2AC09FE
:100E10004FEAD1780FF2780A0FF2840B07E000BF97
:100E20000A20FFF7A9FA4FF47A70FFF7ADFF2068A8
:100E300098B1386888B120683968401A00F0A1F884
:100E400068F3DF7100F06EF8286021685046FFF704
:100E500017FA39685846FFF713FA28683168B0EB7B
:100E6000410FDDDD20683168884202DD10A0FFF708
:100E700089FA386831688842D2DD4846FFF782FA3D
:100E8000CEE700BF00BF00BF000000000000000070
:100E9000495231203A3A20256420200D0A000000F2
:100EA000495232203A3A20256420200D0A000000E1
:100EB000474F204C454654200D000000474F20521C
:100EC00049474854200D000010B5FFF771FD01207F
:100ED000FFF7EAFDFFF7B0FE40F20044C4F202045F
:100EE0002046002101220823FFF7C6FB20460121EE
:100EF00001220823FFF7C0FBA4F5003001210022E6
:100F0000FFF744FB40F20401C2F200010220FFF7A8
:100F10007FFC0120FFF79AFBA4F56440FFF7D8FCA3
:100F200010BD00004FEA41034FEA5353A3F580631D
:100F3000D3F11E03C8BFD3F1210C0CDD4FF00042EA
:100F400042EAC12242EA505232FA03FC8CEAE17CC6
:100F5000ACEBE1707047102BC4BF0020704703F565
:100F6000787CBCF1FF3F04D06FF0004282EA2100A0
:100F7000704770B500F01CF849922480002070473B
:100F8000F2E710F0004248BF4042B0FA80F310FA96
:100F900003F10AD0C3F11D0303F5806302EB035292
:100FA0004FEA415002EBD12170474FF000007047EB
:100FB0000EF1020E2EF0030E5EF8046B364205D4DD
:100FC000012A43EB030515F5001F12D8012841EB58
:100FD000010C1CF5001F0CD80ED14FEAD17C0CEB94
:100FE0004C0C0CF1020C15F5001F08BF4CEBD37C28
:100FF00004E04FF0080C01E04FEAD37C0CEB4C0509
:1010000026FA05F606F00706B6F1040C06D20EEB3A
:10101000860CBDE870404CF0010C6047DFE80CF036
:10102000090B02024FF00041A1F500214FF0000032
:1010300070BD19461046012851EB010418BFD4F5C4
:10104000001484BF002001F0004170BDF1EE100AD1
:101050004FF6FF71C0F2C03120EA010040F040704D
:10106000E1EE100A70470000881000080000002020
:1010700010000000D40100089810000810000020A3
:1010800078060000F00100080024F40008000000C9
:0810900009000000E803000064
:040000050800019955
:00000001FF
