:020000040800F2
:100000002807002041020008490200084B020008AE
:100010004D0200084F0200085102000800000000D5
:100020000000000000000000000000005302000873
:10003000550200080000000057020008C916000819
:100040005B0200085B0200085B0200085B0200081C
:100050005B0200085B020008150B00085B02000849
:100060005B0200085B0200085B0200085B020008FC
:100070005B0200085B0200085B0200085B020008EC
:100080005B0200085B020008AD05000800000000EC
:10009000000000000000000000000000A90B0008A4
:1000A0005B0200085B0200085B0200085B020008BC
:1000B0003D1700085B0200080D1900085B020008EC
:1000C0005B0200085B0200085B0200085B0200089C
:1000D0005B0200085B0200085B02000800000000F1
:1000E000410B00085B0200085B02000800000000F2
:1000F0000000000000000000000000005B0200089B
:10010000000000005B020008391900085B020008CB
:1001100000000000000000000000000000000000DF
:100120005B0200085B0200085B0200085B0200083B
:100130005B0200080000000000000000000000005A
:100140000000000000000000000000005B0200084A
:100150005B0200085B0200085B0200080D1C00083F
:100160005B0200085B0200080000000000000000C5
:10017000000000000000000000000000000000007F
:10018000000000005B02000800000000000000000A
:100190005B0200085B02000800F002F800F041F882
:1001A0000AA090E8000C82448344AAF10107DA45D2
:1001B00001D100F036F8AFF2090EBAE80F0013F0E3
:1001C000010F18BFFB1A43F001031847A4210000D8
:1001D000C4210000103A24BF78C878C1FAD8520769
:1001E00024BF30C830C144BF04680C6070470000B1
:1001F0000023002400250026103A28BF78C1FBD830
:10020000520728BF30C148BF0B607047642900F017
:100210007F80002070471FB502F09AF81FBD10B50F
:1002200010BD00F089F91146FFF7F5FF01F038FF26
:1002300000F0A7F903B4FFF7F2FF03BC00F0AEF93A
:100240000948804709480047FEE7FEE7FEE7FEE76A
:10025000FEE7FEE7FEE7FEE7FEE7FEE704480549A6
:10026000054A064B70470000211700089901000855
:100270002801002028070020280300202803002050
:100280000FB41CB5074B06AA7B446946009005983D
:1002900000F013F90020694600F022F91CBC5DF85B
:1002A00014FB0000550200002DE9F0410E46044603
:1002B000002020622046E168884730B3252805D019
:1002C000D4E901219047206A401CF2E7E16820460A
:1002D00000278847050018D0A5F14100192802D849
:1002E00020354FF400673246294620462760FFF745
:1002F0008DFF40B1012804D0F61D26F00706083610
:10030000D8E7361DD6E72846DAE7206ABDE8F0814F
:100310002DE9F0410646002410687529314616A5DE
:1003200010D0AFF30080002802DA404213A507E0A6
:1003300031688A0701D512A502E0490704D511A545
:10034000012401E0AFF3008000210A2206F1240716
:1003500009E0B0FBF2FCB0FBF2F302FB1C00303012
:1003600078541846491C0028F3D123462A463046C3
:10037000BDE8F04100F043B8000000002D0000008F
:100380002B0000002000000010B5044603E001F03F
:1003900049FE401C09D014F8010B05490028F6D18C
:1003A000BDE810400A2001F03DBE4FF0FF3010BD07
:1003B000C80000204FF000020429C0F0128010F0A5
:1003C000030C00F09480CCF1040CBCF1020F18BFB8
:1003D00000F8012BA8BF20F8022BA1EB0C0100F0C4
:1003E00086B85FEAC17C24BF00F8012B00F8012B1E
:1003F00048BF00F8012B70477047704770472DE9E0
:10040000F0470D4699469246044600F124080168DB
:10041000880604D5E06921F01001216000E0012088
:10042000A84201DD471B00E00027A1697A1902EB11
:100430000900081AA0612078C00602D42046AFF354
:100440000080002608E0D4E901211AF80600904750
:10045000206A401C761C20624E45F4DB2078C006E2
:100460000AD52046AFF3008006E0D4E90121302010
:100470009047206A401C2062381EA7F10107F4DC77
:1004800007E0D4E9012118F805009047206A401CD4
:100490002062281EA5F10105F3DC2046AFF30080A1
:1004A0002078000602D50220BDE8F0870120FBE796
:1004B00001694A1C02610878704700B58FB0CDE928
:1004C00001310021059105497944CDE90310114618
:1004D0006846FFF7E9FE0FB000BD0000E5FFFFFF33
:1004E0000A6802F8010B0A6070474FF0000200B57D
:1004F000134694469646203922BFA0E80C50A0E847
:100500000C50B1F12001BFF4F7AF090728BFA0E8F4
:100510000C5048BF0CC05DF804EB890028BF40F8C0
:10052000042B08BF704748BF20F8022B11F0804F02
:1005300018BF00F8012B7047754600F02BF8AE4647
:1005400005006946534620F00700854618B020B5DF
:10055000FFF784FEBDE820404FF000064FF0000793
:100560004FF000084FF0000BAC46ACE8C009ACE817
:10057000C009ACE8C009ACE8C00921F007018D460C
:10058000704710B50446AFF300802046BDE8104028
:10059000FFF750BE0048704728000020014918208E
:1005A000ABBEFEE72600020070470000B0B501F0C8
:1005B00053FD002818BF01F0FBFC01F045FD40F29F
:1005C000181E40F2141CC2F2000EC2F2000CD8B188
:1005D00040F28801C2F20001086830B942F24C00D2
:1005E000C4F201000068CCF800000868012806D1B8
:1005F00042F24C00C4F201000068CEF80000086826
:10060000B0FA80F04009086040F2E001C2F2000157
:10061000486840F2FC02C2F20002906040F22400FE
:10062000C2F20000DEF800300468A34240F28C03FE
:10063000C2F2000301DD012005E0DEF800400068A1
:10064000844201DA0020D860D86840F20C1E48606D
:1006500048689468C2F2000EA0421CBF0120CEF888
:1006600004000868506040F22000C2F20000DCF88C
:1006700000400568AC4201DD012005E0DCF80050D7
:100680000068854201DA0020986098680860086870
:10069000516888421CBF0120CEF80000B0BD0000A8
:1006A0002DE9F041054642F2080740F20040C4F24D
:1006B0000107C4F200004FF00074854208BF4FF0FC
:1006C00000643868B5F1804F20F002003860386867
:1006D00008BF4FF0C06440F4806038602846904600
:1006E0000E4601F0E7F92868314620F00100286045
:1006F000284601F061FA6868B8F1020F20F0700036
:100700006860686840F040006860A86920F0700088
:10071000A861A86940F06000A861286A40F0010063
:100720002862E86A4FEA50006863286840F00100D8
:100730002860386820F070603860386840EA04004B
:100740003860386820F04050386088BFBDE8F081DC
:10075000386808F1010140EA01703860BDE8F081B5
:1007600042F20401C4F201014A6838B122F00200E9
:100770004860086840F480700860704742F00200EA
:100780004860086820F48070086070472DE9F041E7
:1007900042F2040490460E460746C4F2010400F0FB
:1007A00081F8054638463146032200F03DFB3846C5
:1007B0003146002200F094FB43F64400C4F20200EC
:1007C0000168092D41F480710160D4F8000320F420
:1007D0004030C4F80003D4F80003C4F800032068D4
:1007E00020F0407020600EDC05EB45000721E26838
:1007F000814022EA0101E1600421E26801FA00F08F
:100800001043E0601AE046F26760C6F2666055FB8E
:1008100000F0811001EBD07000EB8000A5EB4000F0
:1008200000EB40000721E268814022EA0101E1601B
:100830000421A26801FA00F01043A060606805F08E
:100840001F0120F002006060206840F4807020608A
:10085000606820F400606060A06A20F47000A0620C
:10086000206B20F01F002063206B0843206320686A
:1008700020F020002060206840F02000206001F07F
:100880006FFB01F035FBB8F1010F18BFBDE8F08137
:1008900040F20040C4F2000001210022FFF700FFF7
:1008A000BDE8F08140F60002C4F20202904214D08A
:1008B00040F20042C4F20202904214D00022C4F27C
:1008C0000202904218BF7047082905D2C8B2F3222D
:1008D00022FA00F0C00710D1FEE7062902D201F18A
:1008E0000A007047FEE7002904BF0820704701296D
:1008F00004BF0920704700BFFEE702A050F82100A6
:10090000704700BF00000000010000000000000070
:1009100000000000040000000500000006000000C8
:100920000700000070B542F22C0EC4F2010EDEF892
:100930000020012822F47002CEF8002040F20002CC
:10094000CFF6F072DEF8003002EB005242EA03020A
:10095000CEF80020B8BF70BD00234FF01F0C00225E
:1009600014E000BFDEF808400CFA03F5AC43CEF803
:10097000084051F82240DEF808509C402C43CEF845
:1009800008400132904203F105032AD0052AE9D933
:100990000B2A13D8A3F11E04DEF804500CFA04F657
:1009A000B543CEF8045051F82250DEF8046005FA41
:1009B00004F43443CEF80440E3E700BFA3F13C0461
:1009C000DEF800500CFA04F6B543CEF8005051F8AA
:1009D0002250DEF8006005FA04F43443CEF80040FB
:1009E000CFE770BD816841F001018160816841F00D
:1009F00080418160704700002DE9F04381B040F2F2
:100A00008C00C2F2000040F2CC0442F26C358269E4
:100A1000C2F20004C0F6000520462946FFF730FC6C
:100A200040F2C409C2F2000940F2D007D9F8002010
:100A3000C2F2000738462946FFF722FC40F21810A0
:100A4000C2F2000040F2D4060268C2F2000630464C
:100A50002946FFF715FC40F2EC00C2F2000040F21C
:100A6000D8080268C2F2000840462946FFF708FC91
:100A700041F20005C4F201051BA12846152201F030
:100A800021FA28462146042201F01CFA42F26A3477
:100A9000C0F6000428462146012201F013FA284638
:100AA0003946042201F00EFA28462146012201F0BF
:100AB00009FA28463146042201F004FA2846214664
:100AC000012201F0FFF928464146042201F0FAF91B
:100AD0000BA12846102201F0F5F90020C9F800000A
:100AE00001B0BDE8F08300BF444154412C4441545F
:100AF000452C54494D452C54494D45522C0000007D
:100B00002C4155544F5343524F4C4C5F32300D0AD9
:100B10000000000080B5002001F0B8FA58B140F69E
:100B20000000C4F20200002100F0ECF940F2E00104
:100B3000C2F200018860002001F05EFA80BD000072
:100B4000B0B50D2001F0A2FA002808BFB0BD40F2F8
:100B50001004C2F20004207840F28C054E28C2F244
:100B6000000502D02078532804D1E869B0FA80F05B
:100B7000400900E00120E861E86930B9601CC1B2B9
:100B8000A01CC2B24E2001F0DFFAE869012806D1AC
:100B9000601CC1B2A01CC2B2532001F0D5FA0D20D6
:100BA00001F02AFAB0BD000010B5082001F06EFA7D
:100BB00028B340F28C00C2F20000016A01310162E8
:100BC000016A012915D1012140F210044160C2F2ED
:100BD000000420784921312201F0B6FA2078532808
:100BE0000DD15820207020786178A27801F0ACFAFD
:100BF00005E0016A022902BF00214160016208206C
:100C000001F0FAF910BD000043F60042C4F20102FF
:100C10000121136801FA00F01843106070470000CA
:100C200070B543F64405C4F2020500F13E400C469F
:100C3000296800F1FF7043F6080C4FEAB020C4F2B7
:100C4000010C41F480410728296000F27480DFE83C
:100C500000F00418303F4E72725D0C2024F0030542
:100C600000EA84004FF00F0E5CF805100EFA00F059
:100C700021EA00004CF805005CF805004CF805007E
:100C800059E00C2024F0030500EA84004FF00F0E19
:100C90005CF805600EFA00F126EA01014CF8051037
:100CA00001215CF8056001FA00F030434CF80500C2
:100CB00041E00C2024F0030600EA84000F215CF8D8
:100CC0000650814025EA01014CF8061002212BE074
:100CD0000C2024F0030600EA84000F215CF8065083
:100CE000814025EA01014CF8061003211CE00C208C
:100CF00024F0030600EA84000F215CF806508140CE
:100D000025EA01014CF8061004210DE00C2024F026
:100D1000030600EA84000F215CF80650814025EAB2
:100D200001014CF8061007215CF8065001FA00F0AA
:100D300028434CF80600022A0AD0012A15D0EAB945
:100D40000120DCF80014A0400843CCF8000415E0B2
:100D50000120DCF80014A0400143CCF8001443F655
:100D60000C41C4F201010A6806E043F60C41C4F2EA
:100D7000010101200A68A04010430860DCF8F80374
:100D8000042C40F40050CCF8F8030DD80625DFE819
:100D900004F012030507090007250CE008250AE006
:100DA000092508E00A2506E00A2C01D2172502E0F1
:100DB0000F2C07D828252846194601F0D9F82846CF
:100DC00001F09EF82046FFF71FFF70BD40F28C0037
:100DD000C2F200000021016041608160C1600161D8
:100DE00041618161C161016240F2E000C2F2000034
:100DF00001604160816040F2FC00C2F200000160CD
:100E000041608160C16040F20C10C2F2000041609C
:100E1000016040F2B400C2F20000016040F2B8008C
:100E2000C2F200000160704770B5054640F6000050
:100E3000C4F20200144685420E460DD040F2004036
:100E4000C4F2020085420AD00020C4F202008542AA
:100E500007D100F0ABFB04E000F0BCFB01E000F0C8
:100E6000AFFB28463146224600F002F870BD000074
:100E700080B549004FF0030CD0F800E00CFA01F304
:100E80002EEA03030360036802FA01F119430160CB
:100E900080BD000010B54FEA410C4FF0030E84688E
:100EA0000EFA0CFE24EA0E048460846802FA0CF246
:100EB00022438260012244688A4024EA020242609E
:100EC000426803FA01F111434160C168029A21EAC4
:100ED0000E01C160C16802FA0CF21143C16010BD7D
:100EE00080B549004FF0030CD0F80CE00CFA01F388
:100EF0002EEA0303C360C36802FA01F11943C1601B
:100F000080BD00000069012202FA01F1084070472B
:100F1000542280685143013981624FF6FF71C162EA
:100F2000704700002DE9F04116460D460746C0E91E
:100F3000001200F0ADF8D7E90248284631460222F7
:100F4000C7F81080FFF770FF284631460022FFF7F0
:100F5000C7FFF01706EB507020F00700F110301AB1
:100F600005EB810180000F2251F8203F824023EAE7
:100F700002020A604FF6FF72C4F2000294424FF080
:100F800001020BDC40F2FF73C4F200039C4213DC4D
:100F9000B4F1804F2BD040F2004215E044F2FF3311
:100FA000C4F201039C4215DC0023C4F201039C42FD
:100FB0001DD044F2000215E040F60002C4F2000227
:100FC000944205D040F60042C4F20002944213D18C
:100FD00002220CE044F20042C4F20102944205D025
:100FE00044F60002C4F20102944205D103220B68C8
:100FF00002FA00F0184308602046642100F05AFD10
:101000002046642100F00AFD5320A0624FF6FF70D5
:10101000E06220680F2120F001002060A06940F00C
:101020000100A061A06940F48070A061E06940F017
:101030000100E061E06940F48070E0616FF003005E
:1010400000EB8800226A814022EA010121626FF0F0
:10105000020101EB88010522236A02FA01F123EA69
:10106000010121620121226A01FA00F0104320628D
:10107000E06801FA08F10843E060E06840F0010030
:10108000E060206840F001002060BDE8F0810000D1
:10109000D0E9002140F60003C4F202039A4219D0BD
:1010A00040F20043C4F202039A4220D00023C4F26B
:1010B00002039A423CD10F293AD8DFE801F0083AFE
:1010C0003939390828393D444B39393939084FF015
:1010D00080414CE00639032988BF7047DFE801F002
:1010E000171C022140F20041C4F200014FE0033915
:1010F00007291DD8DFE801F01D0B10353F04044916
:1011000040F20041C4F2000101F580613FE040F28D
:101110000041C4F200012AE040F20041C4F20001A3
:101120002FE040F20041C4F200010422C0E90212A3
:1011300070474FF0804124E040F20041C4F20001CA
:1011400001F57C4113E040F20041C4F2000101F5D9
:101150007C4116E040F20041C4F2000101F57C41FF
:1011600015E040F20041C4F2000101F58061012266
:10117000C0E90212704740F20041C4F2000101F5DB
:1011800080610222C0E9021270474FF080410322C1
:10119000C0E902127047000070B5D0E90234016165
:1011A0006FF0030000EB810001251E6A05FA00FCC8
:1011B00026EA0C001862DE684FEA810E05FA01F09B
:1011C000013926EA00050329DD602AD8DFE801F0AD
:1011D000021A0715194651F8185F012C03E0194649
:1011E00051F81C5F032C25F003050D600D6814BF3A
:1011F00045F0020445F0010412E0194651F81C5F65
:10120000042C03E0194651F8185F022C25F44075B0
:101210000D600D6802D145F4807401E045F400745E
:101220000C60AEF1030405211E6AA1408E43022A20
:101230001E6206D0012A06D052B91A6AC94311406B
:1012400005E01A6A02E001211A6AA14011431962FD
:10125000196A41EA0C011962D9680843D86070BD67
:101260002DE9F04381B040F2440816460D4607468A
:10127000C4F20108C0E9001200F0DCF8D7E9024925
:10128000284631460222FFF7CFFD00272846314687
:10129000022200230097FFF7FDFDF01706EB5070C8
:1012A00020F00700F110301A05EB810180000F22B9
:1012B00051F8203F824023EA02020A604FF6FF7293
:1012C000C4F2000294424FF001020BDC40F2FF73C3
:1012D000C4F200039C4213DCB4F1804F2BD040F2E7
:1012E000004215E044F2FF33C4F201039C4215DCD6
:1012F0000023C4F201039C421DD044F2000215E019
:1013000040F60002C4F20002944205D040F60042CA
:10131000C4F20002944213D102220CE044F20042D3
:10132000C4F20102944205D044F60002C4F2010264
:10133000944205D103220B6802FA00F018430860BA
:1013400020460121A8F1440500F0B4FB2068A9F172
:10135000010120F010002060E06A032954D8400801
:10136000DFE801F002142639A16904F1340221F00A
:101370007001A161A1696FF0020341F06001A161F8
:10138000A16941F00801A161012136E0A16904F1E0
:10139000380221F4E041A161A1696FF0200341F41A
:1013A000C041A161A16941F40061A161102124E063
:1013B000E16904F13C0221F07001E161E1696FF43F
:1013C000007341F06001E161E16941F00801E16110
:1013D0004FF4807111E0E16904F1400221F4E04131
:1013E000E161E1696FF4005341F4C041E161E169F9
:1013F00041F40061E1614FF480511060206A1840AF
:101400002062206A08432062AC4205D1D8F800006F
:1014100040F40040C8F80000206840F0010020605F
:1014200001B0BDE8F083000080B5806800F0DCFB0F
:1014300080BD0000D0E9002140F60003C4F20203A1
:101440009A4219D040F20043C4F202039A4220D0DB
:101450000023C4F202039A423CD10F293AD8DFE8B4
:1014600001F0083A3939390828393D444B393939BE
:1014700039084FF080414CE00639032988BF704796
:10148000DFE801F0171C022140F20041C4F2000124
:101490004FE0033907291DD8DFE801F01D0B103597
:1014A0003F04044940F20041C4F2000101F58061AB
:1014B0003FE040F20041C4F200012AE040F2004166
:1014C000C4F200012FE040F20041C4F20001042206
:1014D000C0E9021270474FF0804124E040F2004121
:1014E000C4F2000101F57C4113E040F20041C4F276
:1014F000000101F57C4116E040F20041C4F2000118
:1015000001F57C4115E040F20041C4F2000101F513
:1015100080610122C0E90212704740F20041C4F22A
:10152000000101F580610222C0E9021270474FF00C
:1015300080410322C0E902127047000043F6080C04
:10154000D0E90212C4F2020C886ADCF8003003F021
:101550000303022B01D1542307E0DCF8003003F031
:101560000303B3FA83F35B091B01013A032A88BF23
:1015700070470130B3FBF0F001EE100AB8EE411AEB
:1015800021EE000ABCEEC00A10EE100ADFE802F0FD
:10159000020B05083431086070473C310860704721
:1015A00040310860704738310860704743F63000BA
:1015B000C4F20200016841F00101016070470000BF
:1015C00043F63000C4F20200016841F002010160FC
:1015D0007047000043F63000C4F20200016841F099
:1015E000040101607047000043F60800C4F20200E5
:1015F000D0F8F81321F00F01C0F8F813D0F8F81361
:1016000041F00201C0F8F81350F8081C41F0010144
:1016100040F8081C50F8081C8907FBD550F8081C36
:10162000542221F0807140F8081C50F8041C21F469
:10163000800140F8041C50F8041C40F8041C50F8C9
:10164000041C62F38E1140F8041C50F8041C08229C
:1016500062F3050140F8041C50F8041C21F44031E9
:1016600040F8041C50F8081C41F0807140F8081C38
:1016700050F8081C8901FBD4016821F003010160C6
:10168000016841F002010160016801F00C010829C4
:10169000FAD1016821F0F0010160016821F4E05104
:1016A0000160016841F480510160016821F46041EA
:1016B000016040F200004BF60051C2F20000C0F29F
:1016C000015101607047000040F2BC00C2F200000E
:1016D0000168002908BF704701680139016070473F
:1016E00080B54EF21001CEF2000100220A600B68B4
:1016F00043F004030B6040F6412358434FF0FF339F
:1017000003EB401048608A60086840F002000860FF
:10171000086840F00100086000F032FC80BD000065
:101720004EF68850CEF20000016841F4700101606D
:101730004FF0006140F8801C704700002DE9F04335
:1017400081B04FF0804000F099FC40F2DC04C2F21E
:10175000000468B12068012806D140F2F800C2F206
:1017600000000168013101604FF0804000F03EFC54
:101770004FF08040032100F077FC80B10120206011
:101780003C20C4F2000090ED000A40F22410B8EEB4
:10179000400AC2F2000080ED000A0321ADE04FF0E4
:1017A0008040042100F060FC002800F0AA800020A6
:1017B0003C212060C4F2000191ED010A40F21C11AD
:1017C000B8EE400AC2F2000140F2040281ED000AC4
:1017D000C2F2000292ED000A91ED001A40F22411CB
:1017E000C2F2000191ED002A40F2F801C2F20001BC
:1017F0000A6831EE421AC2EB024202EE102AB8EE3B
:10180000422A31EE021A40F2201220EE010AC2F200
:10181000000282ED000A92ED000A9FED3B1A40F2B1
:10182000EC0280EE010AC2F2000240F21C07C2F292
:101830000007BDEEC00A82ED000A13683F68BB4294
:1018400005DA40F28C03C2F2000301271F6040F268
:10185000C0040860C2F200042068013020601068F3
:101860001D2806DC40F2B000C2F200000168013120
:10187000016020680B283FDB40F2B008C2F200088C
:10188000D8F8000040F28C0607284FF00000C2F2A2
:10189000000640F2FC07C8BF01203060C2F200071A
:1018A000306839680025884221D0306840B940F25C
:1018B0001000C2F2000000784F21302200F044FCFA
:1018C0003068012813D140F21009C2F2000999F8DA
:1018D00000004F21312200F037FC99F80000532816
:1018E00005D140F2C400C2F200000121016030685D
:1018F00038602560C8F8005004214FF0804000F0A7
:1019000061FB01B0BDE8F0830000684210B540F60D
:101910000004C4F20004204600F0B0FB002808BF19
:1019200010BD40F2B400C2F2000001680131016054
:10193000204600F05BFB10BDF0B581B040F60044DE
:10194000C4F20004204600F099FB00285DD040F26C
:10195000E005C2F20005A86801282CD140F2FC067F
:10196000C2F20006A868F168884206D040F2B800CA
:10197000C2F20000016801310160A868F168884284
:1019800005D140F2B800C2F200000021016040F22F
:10199000B807C2F20007386814280CDB40F21000C8
:1019A000C2F2000000784321312200F0CDFBA8688C
:1019B000F06000203860A86820BB40F2FC06C2F24C
:1019C0000006A868F16840F2B8078842C2F2000732
:1019D00002D0386801303860A868F168884204BFD6
:1019E00000203860386814280CDB40F21000C2F286
:1019F000000000784321302200F0A6FBA868F060C8
:101A000000203860204600F0F1FA01B0F0BD00007F
:101A1000C16841F00101C1607047000010B5044683
:101A200000F048F840F6FF30C4F20000844212DDB6
:101A300043F6FF70C4F2010084421DDC40F6004012
:101A4000C4F20000844225D00020C4F20100844288
:101A500026D1192427E0B4F1804F1DD040F2004078
:101A6000C4F2000084421DD040F60000C4F2000021
:101A7000844215D11E2416E044F20000C4F2010095
:101A800084420BD044F60000C4F20100844207D126
:101A90001A2408E0322406E01C2404E0182402E0A2
:101AA000002400E01D24204600F03AFA204600F011
:101AB0006FFA10BD10B5044640F6FF30C4F20000C6
:101AC000844219DD43F6FF70C4F2010084422BDC2E
:101AD00040F60040C4F2000084423AD00020C4F234
:101AE0000100844258D143F64000C4F2020042682B
:101AF00042F0010242604FE0B4F1804F32D040F238
:101B00000040C4F2000084423ED040F60000C4F21F
:101B10000000844240D143F64000C4F20200026853
:101B200042F00402026037E044F20000C4F2010017
:101B3000844220D044F60000C4F2010084422BD13C
:101B400043F64000C4F20200426842F48022426040
:101B500022E043F64000C4F20200026842F00802AC
:101B6000026019E043F64000C4F20200026842F04D
:101B70000102026010E043F64000C4F20200426835
:101B800042F48032426007E043F64000C4F20200B3
:101B9000026842F002020260204600F00DF8206860
:101BA00020F010002060E06840F00100E060206854
:101BB00040F00100206010BD43F60802C4F20202AA
:101BC000136801EB810103F00303022B1ABF1268B3
:101BD00040F23F6242F2CF0282624FF0FF3202EBEC
:101BE0004101C16270470000B0F1804F05D04FF055
:101BF000FF3212FA81F1C16204E02C220139C4F2F1
:101C000000021160532181627047000070B541F2FB
:101C10000044C4F20104204600F034FA00284FD0FA
:101C2000204600F01BF940F2F405C2F200052870CE
:101C3000A4F550402946012200F044F940F2F00496
:101C4000C2F200042878216840F20806C2F20006B9
:101C5000705420680130206028782A2804D119A007
:101C6000FEF792FB002020603078312840F28C0093
:101C7000C2F2000004BF012181613178302904BF24
:101C80000021816140F21000C2F2000001784E296B
:101C900016D00178532913D00178582910D0007834
:101CA000502808BF70BD0020206040F20C00C2F236
:101CB0000000016840F21000C2F20000FEF77AFB5B
:101CC00070BD00BF0D0000002DE9F04F81B0174638
:101CD0000E460446DDF8288044F2004908461146C5
:101CE00002229B46C4F20009FFF79EF8584641467F
:101CF0000222FFF799F86FF01F0000EB870306F14F
:101D00002400024609F5504506F12001082FBCBF0A
:101D10000A46BB00AC420CBF4FF0080C4FF0070C5A
:101D200012680CFA03F3082FB8BF084642EA030111
:101D30000160B8F1070F4FEA880004DC0CFA00F0EC
:101D40000BF1200104E020380CFA00F00BF1240123
:101D50000A68DDF82CA0104308603046394600229E
:101D6000FFF7BEF8584641460022FFF7B9F809F5DB
:101D70004C4043F64401C4F20201844205D04C4574
:101D800008D00A6842F0200202E00A6842F010021D
:101D90000A6005E051F8042C42F4003241F8042CAA
:101DA000E1682CA221F40051E160E1684C4508BFD4
:101DB000043292ED000A4FEA0A1201EE102AB8EE40
:101DC000C11A21F4806180EE010AE160E168844279
:101DD00021F48051E160E16821F40041E160216972
:101DE00021F440512161BDEEC00AA16810EE102A15
:101DF00041EA0211A160616941F0C0016161E168DD
:101E000041F00801E160E16841F00401E160E1684E
:101E100041F02001E16007D04C450BD0472007215D
:101E2000472500F0BDF80AE025200921252500F00E
:101E3000B7F804E026200821262500F0B1F828464E
:101E400000F07EF8E06840F40050E06001B0BDE8CA
:101E5000F08F00BFA037A04CA037204C0168890646
:101E6000FCD54068C0B27047B0B582B044F2004EB5
:101E7000C4F2000E8C460EF54C4188424FF0000231
:101E80004FF0000308BF062270450EF5DE3508BF8F
:101E90000222884208BF03232946704508BF032356
:101EA0000EF5504418BF0EF5E031A04202BF29469E
:101EB0000B220C2300930B46CDF804C0FFF704FF60
:101EC00002B0B0BD62B14FF0000C00BF03681B064A
:101ED000FCD511F80C300CF1010C94454360F5D1A0
:101EE00001684906FCD5016821F040010160704796
:101EF0004EF20010CEF200004FF4802101607047D6
:101F0000C1B200F01F00012202FA00F04EF20012EE
:101F1000CEF2000242EAD10121F0030108607047CD
:101F2000C1B200F01F00012202FA00F04EF20012CE
:101F3000CEF2000242EAD10121F0030108607047AD
:101F4000C1B200F01F00012202FA00F04EF20012AE
:101F5000CEF2000242EAD10121F00301086070478D
:101F60004EF21240CEF200002021017070470000B6
:101F7000E422C0F2E002090162F31F200170704701
:101F80004EF62350CEF20000002101707047000091
:101F9000E421C0F2E00161F31F203021017070479D
:101FA000E422C0F2E002090162F31F2001707047D1
:101FB00042F20000C4F20100016821F0200101603A
:101FC000704700000139032988BF704703A252F807
:101FD0002110026911400161704700BFFDFFFFFF42
:101FE000FBFFFFFFF7FFFFFFEFFFFFFF016921F09E
:101FF000010101617047000043F61442C4F201027E
:102000000121136801FA00F01843106070470000C6
:1020100040F2BC01C2F20001086000BF086800285D
:10202000FCD1704710B582B004468DF8070044F229
:102030000040C4F200000DF107010122FFF742FF4A
:10204000204602B010BD000042F20000C4F20100C0
:10205000006800F00200704742F20000C4F2010084
:10206000006800F0200070474A1E032A024688BF1D
:1020700070471069C84000F001007047006900F027
:1020800001007047006800F02000704743F61441DB
:10209000C4F20101096821FA00F000F00100704764
:1020A00000F068F8FEF792FE40F2B40440F20C161D
:1020B00040F2E00740F21005C2F200044FF00008C1
:1020C000C2F20006C2F20007C2F200054FF0580942
:1020D00004E000BF4FF4FA70FFF79AFF206814285D
:1020E00003DBFEF789FCC4F800803068012813D1B7
:1020F0003868012810D128785721312200F024F8BF
:10210000C6F800802878532806D185F800902878F2
:102110006978AA7800F018F870680128DAD1786830
:102120000128D7D128785321312200F00DF8C6F8C4
:10213000048028785328CDD185F8009028786978D4
:10214000AA7800F001F8C5E780B540F21003C2F2AA
:102150000003187041F2004059709A70C4F20100F7
:1021600019460422FFF7AEFE4FF4FA70FFF750FF56
:1021700080BD00002DE9F0418CB0FFF735FA012059
:10218000FFF7AEFA40F20044C4F2020404F58065A1
:10219000284600210022FEF747FE28460D21012295
:1021A0000323FEF73DFD2046082100220323FEF70E
:1021B00037FD2846002100220323FEF731FDA4F558
:1021C000806508AE304629460622FFF749F848F2F6
:1021D000A061C0F201013046FFF726F9B2EE040A11
:1021E0003046FFF7ABF903AE304621460A224FF0E6
:1021F0000A08FEF797FE30460A21FEF789FE3046B0
:1022000003210022FEF7C8FF304604210122FEF719
:10221000C3FF4FF08040FFF7FBFBA4F5FC363046D0
:102220006421FFF7FBFB3046FFF7F2FBA4F5FE3617
:1022300030466421FFF7F2FB3046FFF7E9FBA4F5D7
:1022400074464FF416573046294609222B46CDF8DE
:1022500000800197FFF738FDA4F5E0304FF41651E8
:10226000FFF702FEA4F570404FF41651FFF7FCFD96
:102270002046012101220823FEF788FA204600218A
:1022800001220823FEF782FAA4F50030642100221F
:10229000FEF706FA40F21401C2F200010220FEF736
:1022A00041FB0120FEF75CFAA4F56440FEF79AFBBF
:1022B00009A0FEF769F841F66160FFF7A9FE12A1D7
:1022C00030460C22FFF7FEFD13A130463422FFF703
:1022D000F9FD0CB0BDE8F08147657474696E672044
:1022E000726561647920746F2072756E2E20506C57
:1022F0006561736520776169742061206D6F6D651C
:102300006E742E0D00000000434C45415253484569
:1023100045540D0A000000004C4142454C2C4461DC
:1023200074652C54696D652C54696D65722C534924
:1023300052454E2C56495349544F525F4C4F472CEF
:10234000536F756E642C446973740D0A00000000AD
:10235000F1EE100A4FF6FF71C0F2C03120EA010021
:1023600040F04070E1EE100A70472C002564000038
:10237000902300080000002028000000D40100087D
:10238000B82300082800002000070000F001000822
:102390000024F40000002041302A2A2A0A0000000C
:1023A0004E58302A09000000080000001E000000FE
:0823B000E8030000E80300004F
:0400000508000241AC
:00000001FF
