:020000040800F2
:10000000800600203902000841020008430200086F
:1000100045020008470200084902000800000000ED
:100020000000000000000000000000004B0200087B
:100030004D020008000000004F020008E50800081B
:10004000530200085302000853020008530200083C
:10005000530200085302000853020008530200082C
:10006000530200085302000853020008530200081C
:10007000530200085302000853020008530200080C
:100080005302000853020008530200080000000059
:100090000000000000000000000000005302000803
:1000A00053020008530200085302000853020008DC
:1000B00059090008530200085302000853020008BF
:1000C00053020008530200085302000853020008BC
:1000D0005302000853020008530200080000000009
:1000E00053020008530200085302000800000000F9
:1000F00000000000000000000000000053020008A3
:1001000000000000530200085302000853020008D8
:1001100000000000000000000000000000000000DF
:10012000530200085302000853020008530200085B
:100130005302000800000000000000000000000062
:100140000000000000000000000000005302000852
:10015000530200085302000853020008530200082B
:1001600053020008530200080000000000000000D5
:10017000000000000000000000000000000000007F
:100180000000000053020008000000000000000012
:10019000530200085302000800F002F800F03CF897
:1001A0000AA090E8000C82448344AAF10107DA45D2
:1001B00001D100F031F8AFF2090EBAE80F0013F0E8
:1001C000010F18BFFB1A43F001031847840B00000E
:1001D000A40B0000103A24BF78C878C1FAD852079F
:1001E00024BF30C830C144BF04680C6070470000B1
:1001F0000023002400250026103A28BF78C1FBD830
:10020000520728BF30C148BF0B6070471FB500F0D0
:1002100092FD1FBD10B510BD00F031F81146FFF77B
:10022000F5FF00F0EBFC00F04FF803B4FFF7F2FF2E
:1002300003BC00F057F80000094880470948004710
:10024000FEE7FEE7FEE7FEE7FEE7FEE7FEE7FEE786
:10025000FEE7FEE704480549054A064B70470000E3
:100260003D09000899010008800000208006002058
:10027000800200208002002070477047704775465A
:1002800000F02CF8AE4605006946534620F0070002
:10029000854618B020B5FFF7DDFFBDE820404FF0E0
:1002A00000064FF000074FF000084FF0000BAC467F
:1002B000ACE8C009ACE8C009ACE8C009ACE8C009CA
:1002C00021F007018D46704710B50446AFF300805A
:1002D0002046BDE81040FFF7A8BF00000048704767
:1002E0000800002001491820ABBEFEE726000200EE
:1002F0007047000070B5054640F60000C4F20200E9
:10030000144685420E460DD040F20040C4F2020071
:1003100085420AD00020C4F20200854207D100F0D5
:1003200053FA04E000F064FA01E000F057FA2846BE
:100330003146224600F002F870BD000080B5490049
:100340004FF0030CD0F800E00CFA01F32EEA03039F
:100350000360036802FA01F11943016080BD0000E7
:1003600080B549004FF0030CD0F808E00CFA01F317
:100370002EEA03038360836802FA01F11943816066
:1003800080BD000010B54FEA410C4FF0030E8468A9
:100390000EFA0CFE24EA0E048460846802FA0CF261
:1003A00022438260012244688A4024EA02024260B9
:1003B000426803FA01F111434160C168029A21EADF
:1003C0000E01C160C16802FA0CF21143C16010BD98
:1003D00080B54FF0010CD0F814E00CFA01F32EEACE
:1003E00003034361436902FA01F11943416180BD8E
:1003F000F0B581B016460D460746C0E9001200F080
:100400005FF9D7E90247284631460222FFF772FF1B
:10041000284631460222FFF7A3FF072E67D84FF682
:10042000FF70C4F2000084420BDC40F2FF70C4F2A3
:100430000000844224DCB4F1804F10D040F2004030
:1004400026E044F2FF30C4F2010084423EDC00208A
:10045000C4F20100844202D044F200003EE0B00049
:10046000012101FA00F043F6FF71C4F201018C4250
:10047000286225DC40F20040C4F2000084420BD028
:1004800040F60000C4F20000844205D040F600406F
:10049000C4F2000084422AD1B000022101FA00F027
:1004A00044F20001C4F201018C4228621AD044F6E1
:1004B0000000C4F20100844214D044F200400DE078
:1004C00044F20000C4F2010084420BD044F2004028
:1004D000C4F20100844205D044F60000C4F20100D9
:1004E000844204D1B000032101FA00F0286226F012
:1004F0000700082870D14FF6FF70C4F20000844254
:100500000BDC40F2FF70C4F20000844227DCB4F13F
:10051000804F10D040F2004029E044F2FF30C4F296
:100520000100844244DC0020C4F20100844202D075
:1005300044F2000044E06FF01F0000EB8600012150
:1005400001FA00F043F6FF71C4F201018C426862C7
:1005500028DC40F20040C4F2000084420BD040F698
:100560000000C4F20000844205D040F60040C4F20E
:100570000000844230D16FF01F0000EB86000221A2
:1005800001FA00F044F20001C4F201018C426862F9
:100590001AD044F60000C4F20100844214D044F2A0
:1005A00000400DE044F20000C4F2010084420BD090
:1005B00044F20040C4F20100844205D044F6000039
:1005C000C4F20100844207D16FF01F0000EB8600E7
:1005D000032101FA00F068622046142100F038FA85
:1005E000E06A791E032954D84008DFE801F00214BC
:1005F0002639A16904F1340221F07001A161A169D9
:100600006FF0020341F06001A161A16941F00801AE
:10061000A161012136E0A16904F1380221F4E04131
:10062000A161A1696FF0200341F4C041A161A169FA
:1006300041F40061A161102124E0E16904F13C0270
:1006400021F07001E161E1696FF4007341F0600134
:10065000E161E16941F00801E1614FF4807111E06D
:10066000E16904F1400221F4E041E161E1696FF4E4
:10067000005341F4C041E161E16941F40061E1618D
:100680004FF480511060206A18402062206A0843AD
:1006900020624420C4F20100A0F144018C4203D145
:1006A000016841F400410160206840F001002060D1
:1006B00001B0F0BD80B5806800F04CFA80BD00004C
:1006C000D0E9002140F60003C4F202039A4219D097
:1006D00040F20043C4F202039A4220D00023C4F245
:1006E00002039A423CD10F293AD8DFE801F0083AD8
:1006F0003939390828393D444B39393939084FF0EF
:1007000080414CE00639032988BF7047DFE801F0DB
:10071000171C022140F20041C4F200014FE00339EE
:1007200007291DD8DFE801F01D0B10353F040449EF
:1007300040F20041C4F2000101F580613FE040F267
:100740000041C4F200012AE040F20041C4F200017D
:100750002FE040F20041C4F200010422C0E902127D
:1007600070474FF0804124E040F20041C4F20001A4
:1007700001F57C4113E040F20041C4F2000101F5B3
:100780007C4116E040F20041C4F2000101F57C41D9
:1007900015E040F20041C4F2000101F58061012240
:1007A000C0E90212704740F20041C4F2000101F5B5
:1007B00080610222C0E9021270474FF0804103229B
:1007C000C0E902127047000043F63000C4F2020094
:1007D000016841F0010101607047000043F63000FC
:1007E000C4F20200016841F002010160704700009C
:1007F00043F63000C4F20200016841F004010160D8
:100800007047000043F60800C4F20200D0F8F81365
:1008100021F00F01C0F8F813D0F8F81341F00201ED
:10082000C0F8F81350F8081C41F0010140F8081C0A
:1008300050F8081C8907FBD550F8081C542221F0F9
:10084000807140F8081C50F8041C21F4800140F825
:10085000041C50F8041C40F8041C50F8041C62F3FB
:100860008E1140F8041C50F8041C082262F30501A4
:1008700040F8041C50F8041C21F4403140F8041CDA
:1008800050F8081C41F0807140F8081C50F8081C12
:100890008901FBD4016821F003010160016841F086
:1008A00002010160016801F00C010829FAD1016818
:1008B00021F0F0010160016821F4E051016001685C
:1008C00041F480510160016821F46041016040F20F
:1008D00000004BF60051C2F20000C0F2015101606D
:1008E0007047000040F26C00C2F20000016800296D
:1008F00008BF7047016801390160704780B54EF24A
:100900001001CEF2000100220A600B6843F00403DC
:100910000B6040F6412358434FF0FF3303EB401088
:1009200048608A60086840F002000860086840F08B
:100930000100086000F02AF980BD00004EF68850E2
:10094000CEF20000016841F4700101604FF00061D7
:1009500040F8801C7047000010B54FF0804000F058
:1009600041F940F26804C2F2000428B1012020607D
:100970004FF0804000F01AF94FF0804000F036F957
:1009800028B1022020604FF0804000F015F94FF0B0
:10099000804000F02FF9002808BF10BD0320206020
:1009A0004FF0804000F00EF910BD0000C16841F02A
:1009B0000101C1607047000010B5044600F048F81E
:1009C00040F6FF30C4F20000844212DD43F6FF70AF
:1009D000C4F2010084421DDC40F60040C4F2000075
:1009E000844225D00020C4F20100844226D119247B
:1009F00027E0B4F1804F1DD040F20040C4F2000067
:100A000084421DD040F60000C4F20000844215D19B
:100A10001E2416E044F20000C4F2010084420BD010
:100A200044F60000C4F20100844207D11A2408E011
:100A3000322406E01C2404E0182402E0002400E034
:100A40001D24204600F092F8204600F0A7F810BDC3
:100A500010B5044640F6FF30C4F20000844219DDB0
:100A600043F6FF70C4F2010084422BDC40F60040E4
:100A7000C4F2000084423AD00020C4F20100844253
:100A800058D143F64000C4F20200426842F001022D
:100A900042604FE0B4F1804F32D040F20040C4F2E7
:100AA000000084423ED040F60000C4F200008442C0
:100AB00040D143F64000C4F20200026842F0040252
:100AC000026037E044F20000C4F20100844220D00A
:100AD00044F60000C4F2010084422BD143F64000EA
:100AE000C4F20200426842F48022426022E043F6EF
:100AF0004000C4F20200026842F00802026019E0FD
:100B000043F64000C4F20200026842F001020260B3
:100B100010E043F64000C4F20200426842F4803222
:100B2000426007E043F64000C4F20200026842F06F
:100B300002020260206820F010002060204600F0D1
:100B400009F8E06840F00100E060206840F0010032
:100B5000206010BD01EB810142F2CF0249008262A8
:100B60004FF0FF3212FA81F1C1627047C1B200F05A
:100B70001F00012202FA00F04EF20012CEF2000233
:100B800042EAD10121F00301086070474EF623507C
:100B9000CEF200000021017070470000E421C0F295
:100BA000E00161F31F20202101707047016921F0ED
:100BB0000201016170470000016921F00401016137
:100BC00070470000016921F00801016170470000D1
:100BD00040F26C01C2F20001086000BF0868002802
:100BE000FCD170470069C0F3400070470069C0F352
:100BF000800070470069C0F3C000704740F20044B5
:100C0000C4F2020400F042F82C20C4F20000016893
:100C10004CF6CD42CCF6CC42A1FB0213D908816040
:100C2000016840F26806A1FB02129108C1600168E8
:100C3000C2F200064908A4F580650027016100BFE3
:100C40003068012812D1284605210122FFF7C0FB98
:100C5000204603210022FFF7BBFB20460A21002289
:100C6000FFF7B6FB6420FFF7B3FF37603068022858
:100C700003D16420FFF7ACFF376030680328DFD171
:100C80006420FFF7A5FF3760DAE7000070B582B097
:100C9000FFF7B8FD01200126FFF730FE40F20044C7
:100CA000C4F20204A4F58065284605210122FFF75D
:100CB00021FB204603210122FFF71CFB20460A21CD
:100CC0000122FFF717FB2846052101220023009689
:100CD000FFF758FB20460321012200230096FFF76F
:100CE00051FB20460A21012200230096FFF74AFB10
:100CF00040F27006C2F20006304629460522FFF790
:100D000077FB304621460322FFF772FB304621462F
:100D10000A22FFF76DFB304640F6B831FFF7CAFCF8
:100D20004FF080400121FFF747FE4FF08040FFF772
:100D30003DFE02B070BDF1EE100A4FF6FF71C0F239
:100D4000C03120EA010040F04070E1EE100A704727
:100D5000700D00080000002008000000D401000809
:100D6000780D00080800002078060000F001000857
:080D70000024F4000000000063
:040000050800019955
:00000001FF
