:020000040800F2
:10000000F0060020390200084102000843020008FF
:1000100045020008470200084902000800000000ED
:100020000000000000000000000000004B0200087B
:100030004D020008000000004F020008F10900080E
:10004000530200085302000853020008530200083C
:10005000530200085302000853020008530200082C
:10006000530200085302000853020008530200081C
:10007000530200085302000853020008530200080C
:100080005302000853020008530200080000000059
:100090000000000000000000000000005302000803
:1000A00053020008530200085302000853020008DC
:1000B00053020008530200085D0A000853020008BA
:1000C00053020008530200085302000853020008BC
:1000D0005302000853020008530200080000000009
:1000E000B10300085302000853020008000000009A
:1000F00000000000000000000000000053020008A3
:1001000000000000530200080D0B00085302000815
:1001100000000000000000000000000000000000DF
:10012000530200085302000853020008530200085B
:100130005302000800000000000000000000000062
:100140000000000000000000000000005302000852
:10015000530200085302000853020008AD0D0008C6
:1001600053020008530200080000000000000000D5
:10017000000000000000000000000000000000007F
:100180000000000053020008000000000000000012
:10019000530200085302000800F002F800F03CF897
:1001A0000AA090E8000C82448344AAF10107DA45D2
:1001B00001D100F031F8AFF2090EBAE80F0013F0E8
:1001C000010F18BFFB1A43F0010318475C1500002C
:1001D0007C150000103A24BF78C878C1FAD85207BD
:1001E00024BF30C830C144BF04680C6070470000B1
:1001F0000023002400250026103A28BF78C1FBD830
:10020000520728BF30C148BF0B6070471FB501F0CF
:100210009DF91FBD10B510BD00F090F81146FFF715
:10022000F5FF00F0C3FF00F0AEF803B4FFF7F2FFF4
:1002300003BC00F0B5F800000948804709480047B2
:10024000FEE7FEE7FEE7FEE7FEE7FEE7FEE7FEE786
:10025000FEE7FEE704480549054A064B70470000E3
:10026000410A000899010008F0000020F006002073
:10027000F0020020F002002010B5044603E000F078
:1002800071FF401C09D014F8010B05490028F6D174
:10029000BDE810400A2000F065BF4FF0FF3010BDF0
:1002A000B40000204FF000020429C0F0128010F0CA
:1002B000030C00F01B80CCF1040CBCF1020F18BF42
:1002C00000F8012BA8BF20F8022BA1EB0C0100F0D5
:1002D0000DB85FEAC17C24BF00F8012B00F8012BA8
:1002E00048BF00F8012B70474FF0000200B51346DD
:1002F00094469646203922BFA0E80C50A0E80C5046
:10030000B1F12001BFF4F7AF090728BFA0E80C50F6
:1003100048BF0CC05DF804EB890028BF40F8042BEF
:1003200008BF704748BF20F8022B11F0804F18BF5C
:1003300000F8012B7047704770477047754600F012
:100340002BF8AE4605006946534620F00700854667
:1003500018B020B5FFF77EFFBDE820404FF0000643
:100360004FF000074FF000084FF0000BAC46ACE830
:10037000C009ACE8C009ACE8C009ACE8C00921F08C
:1003800007018D46704710B50446AFF30080204644
:10039000BDE81040FFF749BF004870471800002033
:1003A00001491820ABBEFEE726000200704700009E
:1003B00080B50D2000F0F0FE002808BF80BD00F0E1
:1003C0000BFA0D2000F0AEFE80BD000043F60042A7
:1003D000C4F201020121136801FA00F01843106011
:1003E0007047000070B543F64405C4F2020500F101
:1003F0003E400C46296800F1FF7043F6080C4FEAB6
:10040000B020C4F2010C41F480410728296000F2B9
:100410007480DFE800F00418303F4E72725D0C20EB
:1004200024F0030500EA84004FF00F0E5CF805107D
:100430000EFA00F021EA00004CF805005CF8050017
:100440004CF8050059E00C2024F0030500EA840074
:100450004FF00F0E5CF805600EFA00F126EA01017C
:100460004CF8051001215CF8056001FA00F03043FA
:100470004CF8050041E00C2024F0030600EA84005B
:100480000F215CF80650814025EA01014CF8061066
:1004900002212BE00C2024F0030600EA84000F2147
:1004A0005CF80650814025EA01014CF80610032152
:1004B0001CE00C2024F0030600EA84000F215CF805
:1004C0000650814025EA01014CF8061004210DE098
:1004D0000C2024F0030600EA84000F215CF806508B
:1004E000814025EA01014CF8061007215CF806500E
:1004F00001FA00F028434CF80600022A0AD0012A2B
:1005000015D0EAB90120DCF80014A0400843CCF86B
:10051000000415E00120DCF80014A0400143CCF8F1
:10052000001443F60C41C4F201010A6806E043F6E8
:100530000C41C4F2010101200A68A0401043086088
:10054000DCF8F803042C40F40050CCF8F8030DD884
:100550000625DFE804F012030507090007250CE073
:1005600008250AE0092508E00A2506E00A2C01D240
:10057000172502E00F2C07D828252846194600F039
:10058000A3FD284600F070FD2046FFF71FFF70BD59
:1005900080B540F27800C2F200002821FFF7A4FEE7
:1005A00080BD000070B5054640F60000C4F20200B0
:1005B000144685420E460DD040F20040C4F20200BF
:1005C00085420AD00020C4F20200854207D100F023
:1005D00075F804E000F086F801E000F079F82846AC
:1005E0003146224600F002F870BD000080B5490097
:1005F0004FF0030CD0F800E00CFA01F32EEA0303ED
:100600000360036802FA01F11943016080BD000034
:1006100010B54FEA410C4FF0030E84680EFA0CFE41
:1006200024EA0E048460846802FA0CF22243826099
:10063000012244688A4024EA02024260426803FAC6
:1006400001F111434160C168029A21EA0E01C160C3
:10065000C16802FA0CF21143C16010BD80B54900B7
:100660004FF0030CD0F80CE00CFA01F32EEA030370
:10067000C360C36802FA01F11943C16080BD000084
:1006800080B54FF0010CD0F814E00CFA01F32EEA1B
:1006900003034361436902FA01F11943416180BDDB
:1006A00020B1012818BF7047052000E0012080B567
:1006B00000F0AEFEBDE880407047000043F6300019
:1006C000C4F20200016841F00101016070470000BE
:1006D00043F63000C4F20200016841F002010160FB
:1006E0007047000043F63000C4F20200016841F098
:1006F000040101607047000043F60800C4F20200E4
:10070000D0F8F81321F00F01C0F8F813D0F8F8135F
:1007100041F00201C0F8F81350F8081C41F0010143
:1007200040F8081C50F8081C8907FBD550F8081C35
:10073000542221F0807140F8081C50F8041C21F468
:10074000800140F8041C50F8041C40F8041C50F8C8
:10075000041C62F38E1140F8041C50F8041C08229B
:1007600062F3050140F8041C50F8041C21F44031E8
:1007700040F8041C50F8081C41F0807140F8081C37
:1007800050F8081C8901FBD4016821F003010160C5
:10079000016841F002010160016801F00C010829C3
:1007A000FAD1016821F0F0010160016821F4E05103
:1007B0000160016841F480510160016821F46041E9
:1007C000016040F200004BF60051C2F20000C0F29E
:1007D000015101607047000010B540F20C00C2F2F8
:1007E00000000521017040F20801C2F20001502210
:1007F0000A70007800F00CFE40F27800C2F20000AF
:1008000001218162FFF7C4FE302000F07BFD40F241
:100810000044C4F20204204608210022FFF730FF02
:10082000204609210022FFF72BFF10BD70B582B0D2
:10083000DDE908ECDDE9066540F2C404C2F200041B
:1008400020606160A260E36026616561C4F818E021
:10085000C4F81CC0206861680122FFF7A3FEA068ED
:10086000E1680122FFF79EFE206961690122FFF71E
:1008700099FEA069E1690122FFF794FE2068616892
:100880000025022200230095FFF7C2FEA068E16860
:10089000022200230095FFF7BBFE20696169022256
:1008A00000230095FFF7B4FEA069E169022200234E
:1008B0000095FFF7ADFE02B070BD0000B0B540F28C
:1008C000C404C2F2000439B1012918BFB0BD2368C5
:1008D00000EB400011A106E0236841F2C86100EB83
:1008E0004000C0F6000111F820506168C5F3C00255
:1008F0001846FFF7C5FEA068E168C5F38002FFF760
:10090000BFFE20696169C5F34002FFF7B9FEA06927
:10091000E16905F00102FFF7B3FEB0BD0C00000075
:1009200001000000030000000600000002000000BB
:1009300000000000030000000300000001000000B0
:10094000090000000000000002000000012904D09E
:10095000002918BF70470C2100E00B21884048F2A5
:100960000071C0F29331B1FBF0F040F2E801C2F245
:1009700000010860704700002DE9F04381B040F2AB
:10098000C4074FF00008C2F20007002A08BF4FF06A
:1009900007083862386A012A08BF4FF003080128A7
:1009A0004FF0000621DB40F2E80914460D46C2F282
:1009B000000910E0013EB8BF464630462146FFF729
:1009C0007DFFD9F8000000F0C3FB386A01383862B7
:1009D000386A002809DD012DECD0002DEDD1002072
:1009E0004645B8BF701C0646E7E701B0BDE8F08396
:1009F00040F2B000C2F200000168002908BF704751
:100A0000016801390160704780B54EF21001CEF2E5
:100A1000000100220A600B6843F004030B605423BA
:100A20005843013848608A60086840F00200086056
:100A3000086840F00100086000F04EFB80BD000037
:100A40004EF68850CEF20000016841F4700101605A
:100A50004FF0006140F8801C704700002DE9F04124
:100A600040F20045C4F20205A5F5FE34204600F030
:100A70008BFB002845D040F27806C2F20006706871
:100A800001280AD1F06940B928460821012201272E
:100A9000FFF7F6FD002077627060706A012814D1BC
:100AA00040F2AC07C2F2000738680130386038689D
:100AB0001F280AD32846082100224FF00008FFF71C
:100AC000DFFDC6F82480C7F800807068012809D1CE
:100AD000F069012806D1284608210122FFF7D0FD40
:100AE000002070603068012804D1284609210122C5
:100AF000FFF7C6FD306820B9284609210022FFF71C
:100B0000BFFD204600F008FBBDE8F081F0B581B0E4
:100B100040F60044C4F20004204600F035FB0028F3
:100B200053D040F27805C2F20005A86A00284CD1E3
:100B300040F20807C2F20007387840F20C06582845
:100B4000C2F200061AD13078C0B16869012815D107
:100B5000307801383070307804280FD8DFE800F0A2
:100B6000030507090B00002006E0012004E0022035
:100B700002E0032000E0042000F04AFC3878582806
:100B80000AD1307840B96869012805D101200021D7
:100B90002862C5E90411A861A869012815D140F2AD
:100BA000B805C2F20005286801302860312000F045
:100BB000A9FB2868C00702D00A2000F029FC286899
:100BC000C00702D1002000F023FC204600F0A4FA68
:100BD00001B0F0BDC16841F00101C1607047000083
:100BE00010B5044600F048F840F6FF30C4F20000AB
:100BF000844212DD43F6FF70C4F2010084421DDC22
:100C000040F60040C4F20000844225D00020C4F227
:100C10000100844226D1192427E0B4F1804F1DD071
:100C200040F20040C4F2000084421DD040F60000B3
:100C3000C4F20000844215D11E2416E044F20000E4
:100C4000C4F2010084420BD044F60000C4F201005B
:100C5000844207D11A2408E0322406E01C2404E070
:100C6000182402E0002400E01D24204600F00CFAC5
:100C7000204600F039FA10BD10B5044640F6FF30AA
:100C8000C4F20000844219DD43F6FF70C4F2010093
:100C900084422BDC40F60040C4F2000084423AD08B
:100CA0000020C4F20100844258D143F64000C4F24F
:100CB0000200426842F0010242604FE0B4F1804F0E
:100CC00032D040F20040C4F2000084423ED040F6F0
:100CD0000000C4F20000844240D143F64000C4F258
:100CE0000200026842F00402026037E044F20000B1
:100CF000C4F20100844220D044F60000C4F2010096
:100D000084422BD143F64000C4F20200426842F410
:100D10008022426022E043F64000C4F202000268F2
:100D200042F00802026019E043F64000C4F20200FB
:100D3000026842F00102026010E043F64000C4F293
:100D40000200426842F48032426007E043F640000D
:100D5000C4F20200026842F002020260204600F083
:100D60000DF8206820F010002060E06840F00100DD
:100D7000E060206840F00100206010BD43F60802EA
:100D8000C4F20202136801EB810103F00303022B9A
:100D90001ABF126840F23F6242F2CF0282624FF005
:100DA000FF3202EB4101C1627047000070B541F2B1
:100DB0000044C4F20104204600F0EAF9E8B32046FA
:100DC00000F008F940F2C005C2F200052870A4F551
:100DD00050402946012200F031F940F2BC04C2F231
:100DE00000042878216840F20806C2F20006705418
:100DF00020680130206028782A281ED10FA0FFF734
:100E00003BFA0020206030784E2816D030785328E6
:100E100013D03078582810D03078502808BF70BDD3
:100E20000020206040F20400C2F20000016840F29D
:100E30000800C2F20000FFF735FA70BD0D00000097
:100E40002DE9F04F81B017460E460446DDF82880A4
:100E500044F200490846114602229B46C4F20009AA
:100E6000FFF7A0FB584641460222FFF79BFB6FF0BD
:100E70001F0000EB870306F12400024609F55045E8
:100E800006F12001082FBCBF0A46BB00AC420CBFD4
:100E90004FF0080C4FF0070C12680CFA03F3082F00
:100EA000B8BF084642EA03010160B8F1070F4FEAF4
:100EB000880004DC0CFA00F00BF1200104E020387B
:100EC0000CFA00F00BF124010A68DDF82CA01043A5
:100ED0000860304639460022FFF7C0FB58464146BD
:100EE0000022FFF7BBFB09F54C4043F64401C4F276
:100EF0000201844205D04C4508D00A6842F0200225
:100F000002E00A6842F010020A6005E051F8042C81
:100F100042F4003241F8042CE1682CA221F4005183
:100F2000E160E1684C4508BF043292ED000A4FEAE7
:100F30000A1201EE102AB8EEC11A21F4806180EE87
:100F4000010AE160E168844221F48051E160E168D6
:100F500021F40041E160216921F440512161BDEE9D
:100F6000C00AA16810EE102A41EA0211A16061696D
:100F700041F0C0016161E16841F00801E160E168B0
:100F800041F00401E160E16841F02001E16007D037
:100F90004C450BD047200721472500F0ADF80AE06B
:100FA00025200921252500F0A7F804E026200821A6
:100FB000262500F0A1F8284600F076F8E06840F415
:100FC0000050E06001B0BDE8F08F00BFA037A04C3A
:100FD000A037204C01688906FCD54068C0B2704734
:100FE000B0B582B044F2004EC4F2000E8C460EF54D
:100FF0004C4188424FF000024FF0000308BF062228
:1010000070450EF5DE3508BF0222884208BF032373
:101010002946704508BF03230EF5504418BF0EF54E
:10102000E031A04202BF29460B220C2300930B465D
:10103000CDF804C0FFF704FF02B0B0BD62B14FF0BD
:10104000000C00BF03681B06FCD511F80C300CF136
:10105000010C94454360F5D101684906FCD501684F
:1010600021F0400101607047C1B200F01F00012271
:1010700002FA00F04EF20012CEF2000242EAD10172
:1010800021F0030108607047C1B200F01F00012287
:1010900002FA00F04EF20012CEF2000242EAD10152
:1010A00021F0030108607047C1B200F01F00012267
:1010B00002FA00F04EF20012CEF2000242EAD10132
:1010C00021F0030108607047E422C0F2E002090148
:1010D00062F31F20017070474EF62350CEF20000DD
:1010E0000021017070470000E421C0F2E00161F3CB
:1010F0001F20502101707047E422C0F2E002090174
:1011000062F31F200170704740F20800C2F2000035
:101110002021417081707047016921F00101016156
:101120007047000043F61442C4F201020121136823
:1011300001FA00F0184310607047000040F2B0015F
:10114000C2F20001086000BF08680028FCD17047A7
:1011500040F2B001C2F20001086000BF0868002838
:10116000FCD1704710B582B004468DF8070044F2F8
:101170000040C4F200000DF107010122FFF75EFFFD
:10118000204602B010BD0000006900F00100704769
:10119000006800F02000704743F61441C4F20101DA
:1011A000096821FA00F000F00100704700F0BCF877
:1011B000FFF7EEF940F2780440F20807C2F20004AB
:1011C00001250026C2F20007C4E90B5608E000BF63
:1011D000A06A68B1FFF798FF4FF4FA70FFF7AEFF0F
:1011E000A06A0128F4D13878532808BFA662EFE737
:1011F000206A012803D1206900F082F9266238783C
:101200004E2825D10020E661FFF74AFA78784F286A
:1012100009D049280CD043281AD1B878302811D1E8
:101220002562266114E0B878312806D125600FE0E8
:10123000B878312808BF65600AE0B878302808BF60
:10124000266005E0B878312804BF2562256100BF1B
:101250003878532836D10120E561FFF721FA7878F4
:1012600043384FEA70000A282CD8DFE800F0062B3C
:101270002B112B2B0C2B162B1B00B87830281BD1D5
:10128000256226611EE0B878312810D1256019E06A
:10129000B878312808BF656014E0B878302808BFF6
:1012A000E6600FE0B878302808BFA6600AE0B8789A
:1012B000302808BF266005E0B878312804BF2562D1
:1012C000256100BF387858287FF484AF7878572894
:1012D0000AD053280ED049287FF47CAFB878312843
:1012E0007FF478AF65600AE0B87831287FF472AF98
:1012F000A56004E0B87831287FF46CAFE5606561E3
:1013000068E7000080B540F20D01C2F200010870EC
:1013100041F20040C4F201000422FFF78FFE4FF4B7
:10132000FA70FFF70BFF80BD2DE9F04184B0FFF7A5
:10133000E3F901200127FFF767FB40F20044C4F204
:1013400002042046082101224FF00808FFF72AF97D
:101350002046092101220925FFF724F9204608210A
:10136000012200230097FFF753F9204609210122AB
:1013700000230097FFF74CF904F580600D2101224E
:1013800003230327FFF72EF807200A268DE8210103
:101390000520062107220623039600F075F8A4F520
:1013A00080652046042122460523CDE900470396A7
:1013B0000295FFF73BFA0C2001210C27FFF7C6FA34
:1013C000A4F5FC3630464FF47A71FFF709FC30463D
:1013D000FFF700FCA4F5FE3630466421FFF700FC61
:1013E0003046FFF7F7FBA4F5E0304FF416514FF409
:1013F0001656FFF7F5FDA4F5704029460B222B4643
:1014000000970196FFF71CFD04B0BDE8F0810000D5
:101410002DE9F04141F26851C0F60001420100247B
:101420008A58C4F2020401EB401720460521FFF759
:1014300027F907F1040898E8640120460621FFF720
:101440001FF9204607212A46FFF71AF904F580659F
:10145000284606213246FFF713F904F500600721FC
:101460004246FFF70DF97A6920460921FFF708F98E
:10147000BA6920460821FFF703F9FA6928460A21CC
:10148000FFF7FEF8BDE8F0812DE9F04F81B00026AE
:10149000C4F2020615460F46DDE90C98DDE90ABAEA
:1014A0000146304601221C46FFF77CF8304639469B
:1014B0000122FFF777F8304629460122FFF772F83C
:1014C00006F58065284621460122FFF76BF806F5F0
:1014D000006059460122FFF765F830465146012267
:1014E000FFF760F8304649460122FFF75BF82846CF
:1014F00041460122FFF756F801B0BDE8F08F000029
:10150000F0B581B040F2780504460128C2F200052A
:101510000BD1286B48B94FF400600021012200264E
:101520000127FFF729FAC5E90B67E86A204301D0D4
:1015300001B0F0BD4FF40060012101220124FFF74A
:101540001BFA0020C5E90B4001B0F0BDF1EE100A16
:101550004FF6FF71C0F2C03120EA010040F0407048
:10156000E1EE100A704700000000000000000000DB
:10157000000000000000000000000000000000006B
:101580000100000001000000010000000000000058
:101590000000000001000000010000000100000048
:1015A0000100000001000000000000000000000039
:1015B0000100000000000000000000000100000029
:1015C000000000000100000000000000000000001A
:1015D0000000000000000000010000000100000009
:1015E00000000000010000000100000000000000F9
:1015F00000000000010000000100000000000000E9
:1016000000000000010000000000000001000000D8
:1016100000000000000000000100000000000000C9
:1016200000000000010000000000000001000000B8
:1016300000000000000000000000000000000000AA
:101640000000000001000000000000000000000099
:101650000000000001000000010000000000000088
:101660000100000001000000000000000000000078
:10167000000000000000000000000000000000006A
:101680000000000001000000000000000000000059
:101690000000000000000000010000000000000049
:1016A0000000000001000000010000000100000037
:1016B0000100000001000000010000000100000026
:1016C0000100000000000000080000000100000010
:1016D000070000000C0000000200000000000000F5
:1016E00004000000030000000100000006000000EC
:1016F00004000000020000000200000005000000DD
:1017000003000000030000000600000004000000C9
:1017100001000000070000000500000009000000B3
:10172000000000000600000048170008000000202C
:1017300018000000D40100086017000818000020FD
:10174000D8060000F00100080024F40005000000A5
:101750004E585800053053522A0000000000000087
:040000050800019955
:00000001FF
