:020000040800F2
:10000000700600203902000841020008430200087F
:1000100045020008470200084902000800000000ED
:100020000000000000000000000000004B0200087B
:100030004D020008000000004F020008A104000863
:10004000530200085302000853020008530200083C
:10005000530200085302000853020008530200082C
:10006000530200085302000853020008530200081C
:10007000530200085302000853020008530200080C
:100080005302000853020008530200080000000059
:100090000000000000000000000000005302000803
:1000A00053020008530200085302000853020008DC
:1000B00053020008530200085302000853020008CC
:1000C00053020008530200085302000853020008BC
:1000D0005302000853020008530200080000000009
:1000E00053020008530200085302000800000000F9
:1000F00000000000000000000000000053020008A3
:1001000000000000530200085302000853020008D8
:1001100000000000000000000000000000000000DF
:10012000530200085302000853020008530200085B
:100130005302000800000000000000000000000062
:100140000000000000000000000000005302000852
:10015000530200085302000853020008530200082B
:1001600053020008530200080000000000000000D5
:10017000000000000000000000000000000000007F
:100180000000000053020008000000000000000012
:10019000530200085302000800F002F800F03CF897
:1001A0000AA090E8000C82448344AAF10107DA45D2
:1001B00001D100F031F8AFF2090EBAE80F0013F0E8
:1001C000010F18BFFB1A43F0010318473C0400005D
:1001D0005C040000103A24BF78C878C1FAD85207EE
:1001E00024BF30C830C144BF04680C6070470000B1
:1001F0000023002400250026103A28BF78C1FBD830
:10020000520728BF30C148BF0B6070471FB500F0D0
:10021000EDF91FBD10B510BD00F031F81146FFF724
:10022000F5FF00F089F900F04FF803B4FFF7F2FF93
:1002300003BC00F057F80000094880470948004710
:10024000FEE7FEE7FEE7FEE7FEE7FEE7FEE7FEE786
:10025000FEE7FEE704480549054A064B70470000E3
:10026000F9040008990100087000002070060020C1
:10027000700200207002002070477047704775467A
:1002800000F02CF8AE4605006946534620F0070002
:10029000854618B020B5FFF7DDFFBDE820404FF0E0
:1002A00000064FF000074FF000084FF0000BAC467F
:1002B000ACE8C009ACE8C009ACE8C009ACE8C009CA
:1002C00021F007018D46704710B50446AFF300805A
:1002D0002046BDE81040FFF7A8BF00000048704767
:1002E0000800002001491820ABBEFEE726000200EE
:1002F0007047000070B5054640F60000C4F20200E9
:10030000144685420E460DD040F20040C4F2020071
:1003100085420AD00020C4F20200854207D100F0D5
:1003200031F804E000F042F801E000F035F828462A
:100330003146224600F002F870BD000080B5490049
:100340004FF0030CD0F800E00CFA01F32EEA03039F
:100350000360036802FA01F11943016080BD0000E7
:1003600080B549004FF0030CD0F808E00CFA01F317
:100370002EEA03038360836802FA01F11943816066
:1003800080BD000043F63000C4F20200016841F075
:10039000010101607047000043F63000C4F2020022
:1003A000016841F0020101607047000043F630002F
:1003B000C4F20200016841F00401016070470000CE
:1003C00043F60800C4F20200D0F8F81321F00F0140
:1003D000C0F8F813D0F8F81341F00201C0F8F81390
:1003E00050F8081C41F0010140F8081C50F8081CA6
:1003F0008907FBD550F8081C542221F0807140F881
:10040000081C50F8041C21F4800140F8041C50F82A
:10041000041C40F8041C50F8041C62F38E1140F8D0
:10042000041C50F8041C082262F3050140F8041C67
:1004300050F8041C21F4403140F8041C50F8081C0A
:1004400041F0807140F8081C50F8081C8901FBD469
:10045000016821F003010160016841F002010160BF
:10046000016801F00C010829FAD1016821F0F001BE
:100470000160016821F4E0510160016841F480519C
:100480000160016821F46041016040F200004BF618
:100490000051C2F20000C0F201510160704700003B
:1004A00040F26800C2F200000168002908BF7047EE
:1004B000016801390160704780B54EF21001CEF23B
:1004C000000100220A600B6843F004030B6040F651
:1004D000412358434FF0FF3303EB401048608A60DC
:1004E000086840F002000860086840F001000860F9
:1004F00000F010F880BD00004EF68850CEF20000EB
:10050000016841F4700101604FF0006140F8801C07
:10051000704700004EF62350CEF20000002101701B
:100520007047000040F26801C2F20001086000BF9D
:1005300008680028FCD170471824C4F2000400F0B9
:1005400041F82020C4F202004FF48011016043F60C
:100550004000C4F20200016841F0010101604FF067
:100560008040016821F0100101605321216140F2B7
:10057000E7316161216821F070012160216841F05B
:1005800060012160216841F008012160A16821F02B
:100590000201A160A16841F00101A16040F2F311E4
:1005A000E161016841F00101016000BF0A250026F8
:1005B0006420E661FFF7B6FF013D06F16F06F7D153
:1005C000F4E7000010B5FFF7FBFE0120FFF774FF12
:1005D0000024C4F20204204605210222FFF78AFE0D
:1005E000204605210322FFF7BBFE10BDF1EE100AE5
:1005F0004FF6FF71C0F2C03120EA010040F04070B8
:10060000E1EE100A704700002806000800000020F4
:1006100008000000D401000830060008080000208F
:1006200068060000F00100080024F400000000004B
:040000050800019955
:00000001FF
